{"contracts/TrustChain.sol":{"TrustChain":{"abi":[{"inputs":[],"stateMutability":"nonpayable","type":"constructor"},{"anonymous":false,"inputs":[{"indexed":true,"internalType":"address","name":"depositor","type":"address"},{"indexed":false,"internalType":"uint256","name":"amount","type":"uint256"}],"name":"CapitalDeposited","type":"event"},{"anonymous":false,"inputs":[{"indexed":true,"internalType":"address","name":"depositor","type":"address"},{"indexed":false,"internalType":"uint256","name":"amount","type":"uint256"}],"name":"CapitalWithdrawn","type":"event"},{"anonymous":false,"inputs":[{"indexed":true,"internalType":"uint256","name":"endorsementId","type":"uint256"},{"indexed":true,"internalType":"address","name":"endorser","type":"address"},{"indexed":true,"internalType":"address","name":"endorsee","type":"address"},{"indexed":false,"internalType":"uint256","name":"amountWithdrawn","type":"uint256"}],"name":"EndorsementStakeWithdrawn","type":"event"},{"anonymous":false,"inputs":[{"indexed":true,"internalType":"uint256","name":"loanId","type":"uint256"},{"indexed":true,"internalType":"address","name":"lender","type":"address"},{"indexed":false,"internalType":"uint256","name":"repaymentAmount","type":"uint256"},{"indexed":false,"internalType":"uint256","name":"repaymentDeadline","type":"uint256"}],"name":"LoanApproved","type":"event"},{"anonymous":false,"inputs":[{"indexed":true,"internalType":"uint256","name":"loanId","type":"uint256"}],"name":"LoanDefaulted","type":"event"},{"anonymous":false,"inputs":[{"indexed":true,"internalType":"uint256","name":"loanId","type":"uint256"}],"name":"LoanRepaid","type":"event"},{"anonymous":false,"inputs":[{"indexed":true,"internalType":"uint256","name":"loanId","type":"uint256"},{"indexed":true,"internalType":"address","name":"borrower","type":"address"},{"indexed":false,"internalType":"uint256","name":"amount","type":"uint256"},{"indexed":false,"internalType":"uint256","name":"collateralAmount","type":"uint256"}],"name":"LoanRequested","type":"event"},{"anonymous":false,"inputs":[{"indexed":true,"internalType":"address","name":"userAddr","type":"address"},{"indexed":false,"internalType":"uint256","name":"newTrustScore","type":"uint256"}],"name":"TrustScoreUpdated","type":"event"},{"anonymous":false,"inputs":[{"indexed":true,"internalType":"uint256","name":"endorsementId","type":"uint256"},{"indexed":true,"internalType":"address","name":"endorser","type":"address"},{"indexed":true,"internalType":"address","name":"endorsee","type":"address"},{"indexed":false,"internalType":"uint256","name":"amountStaked","type":"uint256"}],"name":"UserEndorsed","type":"event"},{"anonymous":false,"inputs":[{"indexed":true,"internalType":"address","name":"userAddr","type":"address"}],"name":"UserRegistered","type":"event"},{"inputs":[],"name":"COLLATERAL_REQUIREMENT_BPS","outputs":[{"internalType":"uint256","name":"","type":"uint256"}],"stateMutability":"view","type":"function"},{"inputs":[],"name":"DEFAULT_INTEREST_RATE","outputs":[{"internalType":"uint256","name":"","type":"uint256"}],"stateMutability":"view","type":"function"},{"inputs":[],"name":"ENDORSEMENT_TRUST_BONUS","outputs":[{"internalType":"uint256","name":"","type":"uint256"}],"stateMutability":"view","type":"function"},{"inputs":[],"name":"INITIAL_TRUST_SCORE","outputs":[{"internalType":"uint256","name":"","type":"uint256"}],"stateMutability":"view","type":"function"},{"inputs":[],"name":"LOAN_DEFAULT_TRUST_PENALTY","outputs":[{"internalType":"uint256","name":"","type":"uint256"}],"stateMutability":"view","type":"function"},{"inputs":[],"name":"LOAN_DURATION","outputs":[{"internalType":"uint256","name":"","type":"uint256"}],"stateMutability":"view","type":"function"},{"inputs":[],"name":"LOAN_REPAID_TRUST_BONUS","outputs":[{"internalType":"uint256","name":"","type":"uint256"}],"stateMutability":"view","type":"function"},{"inputs":[],"name":"MAX_TRUST_SCORE","outputs":[{"internalType":"uint256","name":"","type":"uint256"}],"stateMutability":"view","type":"function"},{"inputs":[],"name":"MIN_TRUST_SCORE_FOR_LOAN","outputs":[{"internalType":"uint256","name":"","type":"uint256"}],"stateMutability":"view","type":"function"},{"inputs":[],"name":"depositCapital","outputs":[],"stateMutability":"payable","type":"function"},{"inputs":[{"internalType":"address","name":"_endorsee","type":"address"}],"name":"endorseUser","outputs":[],"stateMutability":"payable","type":"function"},{"inputs":[{"internalType":"uint256","name":"","type":"uint256"}],"name":"endorsements","outputs":[{"internalType":"address","name":"endorser","type":"address"},{"internalType":"address","name":"endorsee","type":"address"},{"internalType":"uint256","name":"amountStaked","type":"uint256"},{"internalType":"bool","name":"active","type":"bool"}],"stateMutability":"view","type":"function"},{"inputs":[{"internalType":"address","name":"_userAddr","type":"address"}],"name":"getActiveLoansForUser","outputs":[{"internalType":"uint256[]","name":"","type":"uint256[]"}],"stateMutability":"view","type":"function"},{"inputs":[{"internalType":"uint256","name":"_endorsementId","type":"uint256"}],"name":"getEndorsement","outputs":[{"components":[{"internalType":"address","name":"endorser","type":"address"},{"internalType":"address","name":"endorsee","type":"address"},{"internalType":"uint256","name":"amountStaked","type":"uint256"},{"internalType":"bool","name":"active","type":"bool"}],"internalType":"struct TrustChain.Endorsement","name":"","type":"tuple"}],"stateMutability":"view","type":"function"},{"inputs":[],"name":"getLendingPoolStats","outputs":[{"internalType":"uint256","name":"_totalLiquidity","type":"uint256"},{"internalType":"uint256","name":"_numberOfLoans","type":"uint256"}],"stateMutability":"view","type":"function"},{"inputs":[{"internalType":"uint256","name":"_loanId","type":"uint256"}],"name":"getLoan","outputs":[{"components":[{"internalType":"uint256","name":"loanId","type":"uint256"},{"internalType":"address","name":"borrower","type":"address"},{"internalType":"uint256","name":"amount","type":"uint256"},{"internalType":"uint256","name":"interestRate","type":"uint256"},{"internalType":"uint256","name":"repaymentAmount","type":"uint256"},{"internalType":"uint256","name":"requestedTimestamp","type":"uint256"},{"internalType":"uint256","name":"approvalTimestamp","type":"uint256"},{"internalType":"uint256","name":"repaymentDeadline","type":"uint256"},{"internalType":"address","name":"lender","type":"address"},{"internalType":"uint256","name":"collateralAmount","type":"uint256"},{"internalType":"enum TrustChain.LoanStatus","name":"status","type":"uint8"},{"internalType":"bool","name":"exists","type":"bool"}],"internalType":"struct TrustChain.Loan","name":"","type":"tuple"}],"stateMutability":"view","type":"function"},{"inputs":[{"internalType":"address","name":"_userAddr","type":"address"}],"name":"getUser","outputs":[{"components":[{"internalType":"address","name":"userAddress","type":"address"},{"internalType":"uint256","name":"trustScore","type":"uint256"},{"internalType":"uint256","name":"endorsementsReceivedCount","type":"uint256"},{"internalType":"uint256","name":"totalStakedOnUser","type":"uint256"},{"internalType":"uint256","name":"loansCompleted","type":"uint256"},{"internalType":"uint256","name":"loansDefaulted","type":"uint256"},{"internalType":"bool","name":"isRegistered","type":"bool"}],"internalType":"struct TrustChain.User","name":"","type":"tuple"}],"stateMutability":"view","type":"function"},{"inputs":[{"internalType":"address","name":"","type":"address"}],"name":"isUserRegistered","outputs":[{"internalType":"bool","name":"","type":"bool"}],"stateMutability":"view","type":"function"},{"inputs":[{"internalType":"uint256","name":"_loanId","type":"uint256"}],"name":"liquidateDefaultedLoan","outputs":[],"stateMutability":"nonpayable","type":"function"},{"inputs":[{"internalType":"uint256","name":"","type":"uint256"}],"name":"loans","outputs":[{"internalType":"uint256","name":"loanId","type":"uint256"},{"internalType":"address","name":"borrower","type":"address"},{"internalType":"uint256","name":"amount","type":"uint256"},{"internalType":"uint256","name":"interestRate","type":"uint256"},{"internalType":"uint256","name":"repaymentAmount","type":"uint256"},{"internalType":"uint256","name":"requestedTimestamp","type":"uint256"},{"internalType":"uint256","name":"approvalTimestamp","type":"uint256"},{"internalType":"uint256","name":"repaymentDeadline","type":"uint256"},{"internalType":"address","name":"lender","type":"address"},{"internalType":"uint256","name":"collateralAmount","type":"uint256"},{"internalType":"enum TrustChain.LoanStatus","name":"status","type":"uint8"},{"internalType":"bool","name":"exists","type":"bool"}],"stateMutability":"view","type":"function"},{"inputs":[],"name":"registerUser","outputs":[],"stateMutability":"nonpayable","type":"function"},{"inputs":[{"internalType":"uint256","name":"_loanId","type":"uint256"}],"name":"repayLoan","outputs":[],"stateMutability":"payable","type":"function"},{"inputs":[{"internalType":"uint256","name":"_loanAmount","type":"uint256"}],"name":"requestLoan","outputs":[],"stateMutability":"payable","type":"function"},{"inputs":[],"name":"totalLiquidity","outputs":[{"internalType":"uint256","name":"","type":"uint256"}],"stateMutability":"view","type":"function"},{"inputs":[{"internalType":"address","name":"","type":"address"},{"internalType":"uint256","name":"","type":"uint256"}],"name":"userActiveLoans","outputs":[{"internalType":"uint256","name":"","type":"uint256"}],"stateMutability":"view","type":"function"},{"inputs":[{"internalType":"address","name":"","type":"address"}],"name":"userDeposits","outputs":[{"internalType":"uint256","name":"","type":"uint256"}],"stateMutability":"view","type":"function"},{"inputs":[{"internalType":"address","name":"","type":"address"},{"internalType":"address","name":"","type":"address"}],"name":"userEndorsementIds","outputs":[{"internalType":"uint256","name":"","type":"uint256"}],"stateMutability":"view","type":"function"},{"inputs":[{"internalType":"address","name":"","type":"address"}],"name":"users","outputs":[{"internalType":"address","name":"userAddress","type":"address"},{"internalType":"uint256","name":"trustScore","type":"uint256"},{"internalType":"uint256","name":"endorsementsReceivedCount","type":"uint256"},{"internalType":"uint256","name":"totalStakedOnUser","type":"uint256"},{"internalType":"uint256","name":"loansCompleted","type":"uint256"},{"internalType":"uint256","name":"loansDefaulted","type":"uint256"},{"internalType":"bool","name":"isRegistered","type":"bool"}],"stateMutability":"view","type":"function"},{"inputs":[{"internalType":"uint256","name":"_amount","type":"uint256"}],"name":"withdrawCapital","outputs":[],"stateMutability":"nonpayable","type":"function"},{"inputs":[{"internalType":"address","name":"_endorsee","type":"address"}],"name":"withdrawEndorsementStake","outputs":[],"stateMutability":"nonpayable","type":"function"}],"evm":{"bytecode":{"linkReferences":{},"object":"608060405234801561001057600080fd5b506001600055612901806100256000396000f3fe6080604052600436106101cd5760003560e01c806380d8c98f116100f7578063a87430ba11610095578063c4096a6d11610064578063c4096a6d1461067d578063d95b0a1214610692578063e02a4dfd146106b2578063e1ec3c68146106c957600080fd5b8063a87430ba1461058d578063a91a36e914610634578063ab7b1c891461064a578063b37924791461065d57600080fd5b80638d5d3429116100d15780638d5d3429146104cd5780638efb1040146104e05780639dd27538146105435780639ea13ddf1461056357600080fd5b806380d8c98f1461046d57806384aa8b5a146104755780638c6a10d21461049557600080fd5b806339a811ee1161016f57806361d054b71161013e57806361d054b7146103b15780636f77926b146103c657806374c8d377146104425780637540774f1461045857600080fd5b806339a811ee146103445780634d3820eb14610359578063504006ca1461036e5780635b76428f1461039b57600080fd5b8063163f7522116101ab578063163f7522146102595780631de2447d14610299578063316f8639146102af57806334d9aee2146102c557600080fd5b806306ad4964146101d25780630ba36dcd1461020857806315770f9214610243575b600080fd5b3480156101de57600080fd5b506101f26101ed366004612580565b61076f565b6040516101ff91906125a2565b60405180910390f35b34801561021457600080fd5b50610235610223366004612580565b600a6020526000908152604090205481565b6040519081526020016101ff565b34801561024f57600080fd5b5061023560095481565b34801561026557600080fd5b50610289610274366004612580565b60046020526000908152604090205460ff1681565b60405190151581526020016101ff565b3480156102a557600080fd5b5061023561019081565b3480156102bb57600080fd5b506102356102bc81565b3480156102d157600080fd5b506103176102e03660046125e6565b60066020526000908152604090208054600182015460028301546003909301546001600160a01b0392831693919092169160ff1684565b604080516001600160a01b03958616815294909316602085015291830152151560608201526080016101ff565b610357610352366004612580565b6107db565b005b34801561036557600080fd5b50610357610b23565b34801561037a57600080fd5b5061038e6103893660046125e6565b610c62565b6040516101ff9190612637565b3480156103a757600080fd5b506102356132c881565b3480156103bd57600080fd5b50610235600a81565b3480156103d257600080fd5b506103e66103e1366004612580565b610dad565b6040516101ff919081516001600160a01b031681526020808301519082015260408083015190820152606080830151908201526080808301519082015260a0828101519082015260c09182015115159181019190915260e00190565b34801561044e57600080fd5b506102356103e881565b34801561046457600080fd5b50610235601481565b610357610ed2565b34801561048157600080fd5b506103576104903660046125e6565b610fd7565b3480156104a157600080fd5b506102356104b03660046126e6565b600560209081526000928352604080842090915290825290205481565b6103576104db3660046125e6565b6112ab565b3480156104ec57600080fd5b506105006104fb3660046125e6565b611673565b6040516101ff919081516001600160a01b039081168252602080840151909116908201526040808301519082015260609182015115159181019190915260800190565b34801561054f57600080fd5b5061023561055e366004612719565b611756565b34801561056f57600080fd5b50610578611787565b604080519283526020830191909152016101ff565b34801561059957600080fd5b506105f36105a8366004612580565b600360208190526000918252604090912080546001820154600283015493830154600484015460058501546006909501546001600160a01b0390941695929492939192909160ff1687565b604080516001600160a01b0390981688526020880196909652948601939093526060850191909152608084015260a0830152151560c082015260e0016101ff565b34801561064057600080fd5b506102356101f481565b6103576106583660046125e6565b61179e565b34801561066957600080fd5b50610357610678366004612580565b611af2565b34801561068957600080fd5b50610235606481565b34801561069e57600080fd5b506103576106ad3660046125e6565b611f2a565b3480156106be57600080fd5b5061023562278d0081565b3480156106d557600080fd5b506107576106e43660046125e6565b600760208190526000918252604090912080546001820154600283015460038401546004850154600586015460068701549787015460088801546009890154600a9099015497996001600160a01b0397881699969895979496939590949293919092169160ff808216916101009004168c565b6040516101ff9c9b9a99989796959493929190612743565b6001600160a01b0381166000908152600860209081526040918290208054835181840281018401909452808452606093928301828280156107cf57602002820191906000526020600020905b8154815260200190600101908083116107bb575b50505050509050919050565b6107e361214c565b3360009081526004602052604090205460ff1661081b5760405162461bcd60e51b8152600401610812906127bd565b60405180910390fd5b6001600160a01b03811660009081526004602052604090205460ff166108835760405162461bcd60e51b815260206004820181905260248201527f456e646f7273653a20456e646f72736565206e6f7420726567697374657265646044820152606401610812565b336001600160a01b038216036108db5760405162461bcd60e51b815260206004820181905260248201527f456e646f7273653a2043616e6e6f7420656e646f72736520796f757273656c666044820152606401610812565b6000341161093a5760405162461bcd60e51b815260206004820152602660248201527f456e646f7273653a205374616b6520616d6f756e74206d75737420626520706f60448201526573697469766560d01b6064820152608401610812565b6001600160a01b0381166000908152600560209081526040808320338452909152902054156109b75760405162461bcd60e51b815260206004820152602360248201527f456e646f7273653a20416c726561647920656e646f727365642074686973207560448201526239b2b960e91b6064820152608401610812565b6109c5600280546001019055565b60006109d060025490565b60408051608081018252338082526001600160a01b0386811660208085018281523486880190815260016060880181815260008b8152600686528a812099518a549089166001600160a01b0319918216178b559451928a0180549390981692909416919091179095555160028088019190915593516003968701805491151560ff1990921691909117905582815260058252868120948152938152858420879055908352929092529182209081018054939450909291610a8f8361280a565b919050555034816003016000828254610aa89190612823565b90915550610abb905083600a60016121a5565b3460096000828254610acd9190612823565b90915550506040513481526001600160a01b03841690339084907f0d89b081a2c97eaccc807d2e4ff6a001248c8a6544bcc36156f62acb98f82c259060200160405180910390a45050610b206001600055565b50565b3360009081526004602052604090205460ff1615610b835760405162461bcd60e51b815260206004820152601860248201527f557365723a20416c7265616479207265676973746572656400000000000000006044820152606401610812565b6040805160e081018252338082526101f460208084019182526000848601818152606086018281526080870183815260a08801848152600160c08a0181815289875260038089528c88209b518c546001600160a01b03919091166001600160a01b0319909116178c5598518b830155945160028b0155925196890196909655516004808901919091559451600588015590516006909601805496151560ff1997881617905592909152848120805490941690911790925591517f54db7a5cb4735e1aac1f53db512d3390390bb6637bd30ad4bf9fc98667d9b9b99190a2565b610c6a6124e0565b6000828152600760205260409020600a0154610100900460ff16610cd05760405162461bcd60e51b815260206004820152601c60248201527f4765744c6f616e3a204c6f616e20646f6573206e6f74206578697374000000006044820152606401610812565b6000828152600760208181526040928390208351610180810185528154815260018201546001600160a01b0390811693820193909352600282015494810194909452600381015460608501526004808201546080860152600582015460a0860152600682015460c08601529281015460e085015260088101549091166101008401526009810154610120840152600a810154909161014084019160ff1690811115610d7d57610d7d6125ff565b6004811115610d8e57610d8e6125ff565b8152600a9190910154610100900460ff16151560209091015292915050565b610df86040518060e0016040528060006001600160a01b0316815260200160008152602001600081526020016000815260200160008152602001600081526020016000151581525090565b6001600160a01b03821660009081526004602052604090205460ff16610e605760405162461bcd60e51b815260206004820152601c60248201527f476574557365723a2055736572206e6f742072656769737465726564000000006044820152606401610812565b506001600160a01b03908116600090815260036020818152604092839020835160e08101855281549095168552600181015491850191909152600281015492840192909252810154606083015260048101546080830152600581015460a08301526006015460ff16151560c082015290565b610eda61214c565b3360009081526004602052604090205460ff16610f095760405162461bcd60e51b8152600401610812906127bd565b60003411610f595760405162461bcd60e51b815260206004820181905260248201527f4465706f7369743a20416d6f756e74206d75737420626520706f7369746976656044820152606401610812565b336000908152600a602052604081208054349290610f78908490612823565b925050819055503460096000828254610f919190612823565b909155505060405134815233907faa72ad912d8778453c6fbde6cd2557892fed031985b1c7e2ae57112118b9a3329060200160405180910390a2610fd56001600055565b565b610fdf61214c565b6000818152600760205260409020600a810154610100900460ff166110465760405162461bcd60e51b815260206004820152601e60248201527f4c69717569646174653a204c6f616e20646f6573206e6f7420657869737400006044820152606401610812565b6001600a82015460ff166004811115611061576110616125ff565b146110c45760405162461bcd60e51b815260206004820152602d60248201527f4c69717569646174653a204c6f616e206e6f7420616374697665206f7220616c60448201526c1c9958591e481a185b991b1959609a1b6064820152608401610812565b8060070154421161112f5760405162461bcd60e51b815260206004820152602f60248201527f4c69717569646174653a204c6f616e206e6f742079657420706173742072657060448201526e61796d656e7420646561646c696e6560881b6064820152608401610812565b600a8101805460ff1916600390811790915560018201546001600160a01b0316600090815260209190915260408120600581018054919261116f8361280a565b9091555050600182015461118f906001600160a01b0316606460006121a5565b8160090154600960008282546111a59190612823565b909155505060018201546001600160a01b03166000908152600860205260408120905b815481101561127257848282815481106111e4576111e461283c565b90600052602060002001540361126a578154829061120490600190612852565b815481106112145761121461283c565b90600052602060002001548282815481106112315761123161283c565b90600052602060002001819055508180548061124f5761124f612865565b60019003818190600052602060002001600090559055611272565b6001016111c8565b5060405184907f0789b7097e8066538cfaa1132488b132e14ba5f0c938c8b7aaf8cf40356aab0b90600090a2505050610b206001600055565b6112b361214c565b3360009081526004602052604090205460ff166112e25760405162461bcd60e51b8152600401610812906127bd565b600081116113325760405162461bcd60e51b815260206004820181905260248201527f4c6f616e5265713a20416d6f756e74206d75737420626520706f7369746976656044820152606401610812565b336000908152600360205260409020600681015460ff166113955760405162461bcd60e51b815260206004820181905260248201527f4c6f616e5265713a20426f72726f776572206e6f7420726567697374657265646044820152606401610812565b610190816001015410156113eb5760405162461bcd60e51b815260206004820152601c60248201527f4c6f616e5265713a2054727573742073636f726520746f6f206c6f77000000006044820152606401610812565b60006127106113fc6132c88561287b565b6114069190612892565b90508034146114695760405162461bcd60e51b815260206004820152602960248201527f4c6f616e5265713a20496e636f727265637420636f6c6c61746572616c20616d6044820152681bdd5b9d081cd95b9d60ba1b6064820152608401610812565b611477600180546001019055565b600061148260015490565b905060006127106114956102bc8761287b565b61149f9190612892565b905060006114ad8287612823565b9050604051806101800160405280848152602001336001600160a01b031681526020018781526020016102bc8152602001828152602001428152602001600081526020016000815260200160006001600160a01b0316815260200134815260200160006004811115611521576115216125ff565b81526001602091820181905260008681526007808452604091829020855181559385015184840180546001600160a01b03199081166001600160a01b039384161790915592860151600286015560608601516003860155608086015160048087019190915560a0870151600587015560c0870151600687015560e0870151928601929092556101008601516008860180549094169116179091556101208401516009840155610140840151600a840180549193909260ff199092169184908111156115ee576115ee6125ff565b02179055506101609190910151600a90910180549115156101000261ff001990921691909117905560408051878152346020820152339185917f68595dbe887ae7f496f2c88735019a8918919a1decfdee6bdb460480ab87decb910160405180910390a38560095410611664576116648361226d565b5050505050610b206001600055565b60408051608081018252600080825260208201819052918101829052606081019190915260025482111580156116a95750600082115b6117005760405162461bcd60e51b815260206004820152602260248201527f476574456e646f7273653a20496e76616c696420656e646f7273656d656e7420604482015261125160f21b6064820152608401610812565b50600090815260066020908152604091829020825160808101845281546001600160a01b0390811682526001830154169281019290925260028101549282019290925260039091015460ff161515606082015290565b6008602052816000526040600020818154811061177257600080fd5b90600052602060002001600091509150505481565b60008060095461179660015490565b915091509091565b6117a661214c565b6000818152600760205260409020600a810154610100900460ff1661180d5760405162461bcd60e51b815260206004820152601a60248201527f52657061793a204c6f616e20646f6573206e6f742065786973740000000000006044820152606401610812565b60018101546001600160a01b031633146118735760405162461bcd60e51b815260206004820152602160248201527f52657061793a2043616c6c6572206973206e6f742074686520626f72726f77656044820152603960f91b6064820152608401610812565b6001600a82015460ff16600481111561188e5761188e6125ff565b146118f35760405162461bcd60e51b815260206004820152602f60248201527f52657061793a204c6f616e206e6f7420696e20617070726f766564207374617460448201526e1948199bdc881c995c185e5b595b9d608a1b6064820152608401610812565b806004015434146119555760405162461bcd60e51b815260206004820152602660248201527f52657061793a20496e636f72726563742072657061796d656e7420616d6f756e6044820152651d081cd95b9d60d21b6064820152608401610812565b600a8101805460ff1916600217905560048101546009805460009061197b908490612823565b909155505033600090815260036020526040812060048101805491926119a08361280a565b91905055506119b233601460016121a5565b336000908152600860205260408120905b8154811015611a6d57848282815481106119df576119df61283c565b906000526020600020015403611a6557815482906119ff90600190612852565b81548110611a0f57611a0f61283c565b9060005260206000200154828281548110611a2c57611a2c61283c565b906000526020600020018190555081805480611a4a57611a4a612865565b60019003818190600052602060002001600090559055611a6d565b6001016119c3565b50600983015415611aba57600183015460098401546040516001600160a01b039092169181156108fc0291906000818181858888f19350505050158015611ab8573d6000803e3d6000fd5b505b60405184907f9a7851747cd7ffb3fe0a32caf3da48b31f27cebe131267051640f8b72fc4718690600090a2505050610b206001600055565b611afa61214c565b3360009081526004602052604090205460ff16611b295760405162461bcd60e51b8152600401610812906127bd565b6001600160a01b038116600090815260056020908152604080832033845290915281205490819003611bc35760405162461bcd60e51b815260206004820152603b60248201527f5769746864726177456e646f7273653a204e6f2061637469766520656e646f7260448201527f73656d656e7420666f722074686973207573657220627920796f7500000000006064820152608401610812565b600081815260066020526040902080546001600160a01b03163314611c385760405162461bcd60e51b815260206004820152602560248201527f5769746864726177456e646f7273653a204e6f7420796f757220656e646f7273604482015264195b595b9d60da1b6064820152608401610812565b600381015460ff16611c9c5760405162461bcd60e51b815260206004820152602760248201527f5769746864726177456e646f7273653a20456e646f7273656d656e74206e6f746044820152662061637469766560c81b6064820152608401610812565b6001600160a01b0383166000908152600860205260408120815b8154811015611d2057600160076000848481548110611cd757611cd761283c565b600091825260208083209091015483528201929092526040019020600a015460ff166004811115611d0a57611d0a6125ff565b03611d185760019250611d20565b600101611cb6565b508115611dae5760405162461bcd60e51b815260206004820152605060248201527f5769746864726177456e646f7273653a20456e646f727365652068617320616360448201527f746976652028417070726f76656429206c6f616e732c2063616e6e6f7420776960648201526f1d1a191c985dc81cdd185ad9481e595d60821b608482015260a401610812565b6002830154600954811115611e2b5760405162461bcd60e51b815260206004820152603e60248201527f5769746864726177456e646f7273653a20496e73756666696369656e7420706f60448201527f6f6c206c697175696469747920746f207769746864726177207374616b6500006064820152608401610812565b6003808501805460ff19169055600060028087018290556001600160a01b038916825260209290925260408120918201805491611e67836128b4565b919050555081816003016000828254611e809190612852565b925050819055508160096000828254611e999190612852565b9091555050604051339083156108fc029084906000818181858888f19350505050158015611ecb573d6000803e3d6000fd5b50866001600160a01b0316336001600160a01b0316877ff7b925416f6a43620836db6972ab3caa00e68e8838fe5c093f732f0a747cf49985604051611f1291815260200190565b60405180910390a4505050505050610b206001600055565b611f3261214c565b3360009081526004602052604090205460ff16611f615760405162461bcd60e51b8152600401610812906127bd565b60008111611fbd5760405162461bcd60e51b8152602060048201526024808201527f57697468647261774361703a20416d6f756e74206d75737420626520706f73696044820152637469766560e01b6064820152608401610812565b336000908152600a60205260409020548111156120395760405162461bcd60e51b815260206004820152603460248201527f57697468647261774361703a20496e73756666696369656e74206465706f73696044820152733a32b21031b0b834ba30b6103337b9103ab9b2b960611b6064820152608401610812565b8060095410156120a25760405162461bcd60e51b815260206004820152602e60248201527f57697468647261774361703a20496e73756666696369656e7420746f74616c2060448201526d706f6f6c206c697175696469747960901b6064820152608401610812565b336000908152600a6020526040812080548392906120c1908490612852565b9250508190555080600960008282546120da9190612852565b9091555050604051339082156108fc029083906000818181858888f1935050505015801561210c573d6000803e3d6000fd5b5060405181815233907ffd282af50c2a0af33f26b6abcc27c8bae5fc57dc3f7ce9b71612b4cd6db59ca09060200160405180910390a2610b206001600055565b60026000540361219e5760405162461bcd60e51b815260206004820152601f60248201527f5265656e7472616e637947756172643a207265656e7472616e742063616c6c006044820152606401610812565b6002600055565b6001600160a01b038316600090815260036020526040902081156121e257828160010160008282546121d79190612823565b909155506122099050565b8281600101541061220157828160010160008282546121d79190612852565b600060018201555b6103e881600101541115612220576103e860018201555b836001600160a01b03167f16bf5e9c27e8fb3837dca08521258eaf9f8e21bb809d3dd7a1a4a00093c99a44826001015460405161225f91815260200190565b60405180910390a250505050565b6000818152600760205260409020600a810154610100900460ff166122d45760405162461bcd60e51b815260206004820181905260248201527f417070726f76654c6f616e3a204c6f616e20646f6573206e6f742065786973746044820152606401610812565b6000600a82015460ff1660048111156122ef576122ef6125ff565b1461234d5760405162461bcd60e51b815260206004820152602860248201527f417070726f76654c6f616e3a204c6f616e206e6f7420696e2072657175657374604482015267656420737461746560c01b6064820152608401610812565b806002015460095410156123c25760405162461bcd60e51b815260206004820152603660248201527f417070726f76654c6f616e3a20496e73756666696369656e7420706f6f6c206c60448201527534b8bab4b234ba3c903337b9103a3434b9903637b0b760511b6064820152608401610812565b600a8101805460ff19166001179055600881018054306001600160a01b031990911617905542600682018190556123fd9062278d0090612823565b6007820155600281015460098054600090612419908490612852565b9091555050600180820180546001600160a01b03908116600090815260086020908152604080832080549687018155835290822090940186905591546002850154935191169280156108fc0292909190818181858888f19350505050158015612486573d6000803e3d6000fd5b50306001600160a01b0316827fb2c6de76341d4f1188da5458fd8729cbc0e9278f99e8992f40f36900bcef78cb836004015484600701546040516124d4929190918252602082015260400190565b60405180910390a35050565b6040518061018001604052806000815260200160006001600160a01b0316815260200160008152602001600081526020016000815260200160008152602001600081526020016000815260200160006001600160a01b031681526020016000815260200160006004811115612557576125576125ff565b8152600060209091015290565b80356001600160a01b038116811461257b57600080fd5b919050565b60006020828403121561259257600080fd5b61259b82612564565b9392505050565b6020808252825182820181905260009190848201906040850190845b818110156125da578351835292840192918401916001016125be565b50909695505050505050565b6000602082840312156125f857600080fd5b5035919050565b634e487b7160e01b600052602160045260246000fd5b6005811061263357634e487b7160e01b600052602160045260246000fd5b9052565b8151815260208083015161018083019161265b908401826001600160a01b03169052565b5060408301516040830152606083015160608301526080830151608083015260a083015160a083015260c083015160c083015260e083015160e0830152610100808401516126b3828501826001600160a01b03169052565b50506101208381015190830152610140808401516126d382850182612615565b5050610160928301511515919092015290565b600080604083850312156126f957600080fd5b61270283612564565b915061271060208401612564565b90509250929050565b6000806040838503121561272c57600080fd5b61273583612564565b946020939093013593505050565b8c81526001600160a01b038c81166020830152604082018c9052606082018b9052608082018a905260a0820189905260c0820188905260e082018790528516610100820152610120810184905261018081016127a3610140830185612615565b8215156101608301529d9c50505050505050505050505050565b6020808252601b908201527f557365723a2043616c6c6572206e6f7420726567697374657265640000000000604082015260600190565b634e487b7160e01b600052601160045260246000fd5b60006001820161281c5761281c6127f4565b5060010190565b80820180821115612836576128366127f4565b92915050565b634e487b7160e01b600052603260045260246000fd5b81810381811115612836576128366127f4565b634e487b7160e01b600052603160045260246000fd5b8082028115828204841417612836576128366127f4565b6000826128af57634e487b7160e01b600052601260045260246000fd5b500490565b6000816128c3576128c36127f4565b50600019019056fea264697066735822122001d1290ce1e130b3ba8700719948bb758cd1e18a4dc511f7963096dd687a11d864736f6c63430008180033","opcodes":"PUSH1 0x80 PUSH1 0x40 MSTORE CALLVALUE DUP1 ISZERO PUSH2 0x10 JUMPI PUSH1 0x0 DUP1 REVERT JUMPDEST POP PUSH1 0x1 PUSH1 0x0 SSTORE PUSH2 0x2901 DUP1 PUSH2 0x25 PUSH1 0x0 CODECOPY PUSH1 0x0 RETURN INVALID PUSH1 0x80 PUSH1 0x40 MSTORE PUSH1 0x4 CALLDATASIZE LT PUSH2 0x1CD JUMPI PUSH1 0x0 CALLDATALOAD PUSH1 0xE0 SHR DUP1 PUSH4 0x80D8C98F GT PUSH2 0xF7 JUMPI DUP1 PUSH4 0xA87430BA GT PUSH2 0x95 JUMPI DUP1 PUSH4 0xC4096A6D GT PUSH2 0x64 JUMPI DUP1 PUSH4 0xC4096A6D EQ PUSH2 0x67D JUMPI DUP1 PUSH4 0xD95B0A12 EQ PUSH2 0x692 JUMPI DUP1 PUSH4 0xE02A4DFD EQ PUSH2 0x6B2 JUMPI DUP1 PUSH4 0xE1EC3C68 EQ PUSH2 0x6C9 JUMPI PUSH1 0x0 DUP1 REVERT JUMPDEST DUP1 PUSH4 0xA87430BA EQ PUSH2 0x58D JUMPI DUP1 PUSH4 0xA91A36E9 EQ PUSH2 0x634 JUMPI DUP1 PUSH4 0xAB7B1C89 EQ PUSH2 0x64A JUMPI DUP1 PUSH4 0xB3792479 EQ PUSH2 0x65D JUMPI PUSH1 0x0 DUP1 REVERT JUMPDEST DUP1 PUSH4 0x8D5D3429 GT PUSH2 0xD1 JUMPI DUP1 PUSH4 0x8D5D3429 EQ PUSH2 0x4CD JUMPI DUP1 PUSH4 0x8EFB1040 EQ PUSH2 0x4E0 JUMPI DUP1 PUSH4 0x9DD27538 EQ PUSH2 0x543 JUMPI DUP1 PUSH4 0x9EA13DDF EQ PUSH2 0x563 JUMPI PUSH1 0x0 DUP1 REVERT JUMPDEST DUP1 PUSH4 0x80D8C98F EQ PUSH2 0x46D JUMPI DUP1 PUSH4 0x84AA8B5A EQ PUSH2 0x475 JUMPI DUP1 PUSH4 0x8C6A10D2 EQ PUSH2 0x495 JUMPI PUSH1 0x0 DUP1 REVERT JUMPDEST DUP1 PUSH4 0x39A811EE GT PUSH2 0x16F JUMPI DUP1 PUSH4 0x61D054B7 GT PUSH2 0x13E JUMPI DUP1 PUSH4 0x61D054B7 EQ PUSH2 0x3B1 JUMPI DUP1 PUSH4 0x6F77926B EQ PUSH2 0x3C6 JUMPI DUP1 PUSH4 0x74C8D377 EQ PUSH2 0x442 JUMPI DUP1 PUSH4 0x7540774F EQ PUSH2 0x458 JUMPI PUSH1 0x0 DUP1 REVERT JUMPDEST DUP1 PUSH4 0x39A811EE EQ PUSH2 0x344 JUMPI DUP1 PUSH4 0x4D3820EB EQ PUSH2 0x359 JUMPI DUP1 PUSH4 0x504006CA EQ PUSH2 0x36E JUMPI DUP1 PUSH4 0x5B76428F EQ PUSH2 0x39B JUMPI PUSH1 0x0 DUP1 REVERT JUMPDEST DUP1 PUSH4 0x163F7522 GT PUSH2 0x1AB JUMPI DUP1 PUSH4 0x163F7522 EQ PUSH2 0x259 JUMPI DUP1 PUSH4 0x1DE2447D EQ PUSH2 0x299 JUMPI DUP1 PUSH4 0x316F8639 EQ PUSH2 0x2AF JUMPI DUP1 PUSH4 0x34D9AEE2 EQ PUSH2 0x2C5 JUMPI PUSH1 0x0 DUP1 REVERT JUMPDEST DUP1 PUSH4 0x6AD4964 EQ PUSH2 0x1D2 JUMPI DUP1 PUSH4 0xBA36DCD EQ PUSH2 0x208 JUMPI DUP1 PUSH4 0x15770F92 EQ PUSH2 0x243 JUMPI JUMPDEST PUSH1 0x0 DUP1 REVERT JUMPDEST CALLVALUE DUP1 ISZERO PUSH2 0x1DE JUMPI PUSH1 0x0 DUP1 REVERT JUMPDEST POP PUSH2 0x1F2 PUSH2 0x1ED CALLDATASIZE PUSH1 0x4 PUSH2 0x2580 JUMP JUMPDEST PUSH2 0x76F JUMP JUMPDEST PUSH1 0x40 MLOAD PUSH2 0x1FF SWAP2 SWAP1 PUSH2 0x25A2 JUMP JUMPDEST PUSH1 0x40 MLOAD DUP1 SWAP2 SUB SWAP1 RETURN JUMPDEST CALLVALUE DUP1 ISZERO PUSH2 0x214 JUMPI PUSH1 0x0 DUP1 REVERT JUMPDEST POP PUSH2 0x235 PUSH2 0x223 CALLDATASIZE PUSH1 0x4 PUSH2 0x2580 JUMP JUMPDEST PUSH1 0xA PUSH1 0x20 MSTORE PUSH1 0x0 SWAP1 DUP2 MSTORE PUSH1 0x40 SWAP1 KECCAK256 SLOAD DUP2 JUMP JUMPDEST PUSH1 0x40 MLOAD SWAP1 DUP2 MSTORE PUSH1 0x20 ADD PUSH2 0x1FF JUMP JUMPDEST CALLVALUE DUP1 ISZERO PUSH2 0x24F JUMPI PUSH1 0x0 DUP1 REVERT JUMPDEST POP PUSH2 0x235 PUSH1 0x9 SLOAD DUP2 JUMP JUMPDEST CALLVALUE DUP1 ISZERO PUSH2 0x265 JUMPI PUSH1 0x0 DUP1 REVERT JUMPDEST POP PUSH2 0x289 PUSH2 0x274 CALLDATASIZE PUSH1 0x4 PUSH2 0x2580 JUMP JUMPDEST PUSH1 0x4 PUSH1 0x20 MSTORE PUSH1 0x0 SWAP1 DUP2 MSTORE PUSH1 0x40 SWAP1 KECCAK256 SLOAD PUSH1 0xFF AND DUP2 JUMP JUMPDEST PUSH1 0x40 MLOAD SWAP1 ISZERO ISZERO DUP2 MSTORE PUSH1 0x20 ADD PUSH2 0x1FF JUMP JUMPDEST CALLVALUE DUP1 ISZERO PUSH2 0x2A5 JUMPI PUSH1 0x0 DUP1 REVERT JUMPDEST POP PUSH2 0x235 PUSH2 0x190 DUP2 JUMP JUMPDEST CALLVALUE DUP1 ISZERO PUSH2 0x2BB JUMPI PUSH1 0x0 DUP1 REVERT JUMPDEST POP PUSH2 0x235 PUSH2 0x2BC DUP2 JUMP JUMPDEST CALLVALUE DUP1 ISZERO PUSH2 0x2D1 JUMPI PUSH1 0x0 DUP1 REVERT JUMPDEST POP PUSH2 0x317 PUSH2 0x2E0 CALLDATASIZE PUSH1 0x4 PUSH2 0x25E6 JUMP JUMPDEST PUSH1 0x6 PUSH1 0x20 MSTORE PUSH1 0x0 SWAP1 DUP2 MSTORE PUSH1 0x40 SWAP1 KECCAK256 DUP1 SLOAD PUSH1 0x1 DUP3 ADD SLOAD PUSH1 0x2 DUP4 ADD SLOAD PUSH1 0x3 SWAP1 SWAP4 ADD SLOAD PUSH1 0x1 PUSH1 0x1 PUSH1 0xA0 SHL SUB SWAP3 DUP4 AND SWAP4 SWAP2 SWAP1 SWAP3 AND SWAP2 PUSH1 0xFF AND DUP5 JUMP JUMPDEST PUSH1 0x40 DUP1 MLOAD PUSH1 0x1 PUSH1 0x1 PUSH1 0xA0 SHL SUB SWAP6 DUP7 AND DUP2 MSTORE SWAP5 SWAP1 SWAP4 AND PUSH1 0x20 DUP6 ADD MSTORE SWAP2 DUP4 ADD MSTORE ISZERO ISZERO PUSH1 0x60 DUP3 ADD MSTORE PUSH1 0x80 ADD PUSH2 0x1FF JUMP JUMPDEST PUSH2 0x357 PUSH2 0x352 CALLDATASIZE PUSH1 0x4 PUSH2 0x2580 JUMP JUMPDEST PUSH2 0x7DB JUMP JUMPDEST STOP JUMPDEST CALLVALUE DUP1 ISZERO PUSH2 0x365 JUMPI PUSH1 0x0 DUP1 REVERT JUMPDEST POP PUSH2 0x357 PUSH2 0xB23 JUMP JUMPDEST CALLVALUE DUP1 ISZERO PUSH2 0x37A JUMPI PUSH1 0x0 DUP1 REVERT JUMPDEST POP PUSH2 0x38E PUSH2 0x389 CALLDATASIZE PUSH1 0x4 PUSH2 0x25E6 JUMP JUMPDEST PUSH2 0xC62 JUMP JUMPDEST PUSH1 0x40 MLOAD PUSH2 0x1FF SWAP2 SWAP1 PUSH2 0x2637 JUMP JUMPDEST CALLVALUE DUP1 ISZERO PUSH2 0x3A7 JUMPI PUSH1 0x0 DUP1 REVERT JUMPDEST POP PUSH2 0x235 PUSH2 0x32C8 DUP2 JUMP JUMPDEST CALLVALUE DUP1 ISZERO PUSH2 0x3BD JUMPI PUSH1 0x0 DUP1 REVERT JUMPDEST POP PUSH2 0x235 PUSH1 0xA DUP2 JUMP JUMPDEST CALLVALUE DUP1 ISZERO PUSH2 0x3D2 JUMPI PUSH1 0x0 DUP1 REVERT JUMPDEST POP PUSH2 0x3E6 PUSH2 0x3E1 CALLDATASIZE PUSH1 0x4 PUSH2 0x2580 JUMP JUMPDEST PUSH2 0xDAD JUMP JUMPDEST PUSH1 0x40 MLOAD PUSH2 0x1FF SWAP2 SWAP1 DUP2 MLOAD PUSH1 0x1 PUSH1 0x1 PUSH1 0xA0 SHL SUB AND DUP2 MSTORE PUSH1 0x20 DUP1 DUP4 ADD MLOAD SWAP1 DUP3 ADD MSTORE PUSH1 0x40 DUP1 DUP4 ADD MLOAD SWAP1 DUP3 ADD MSTORE PUSH1 0x60 DUP1 DUP4 ADD MLOAD SWAP1 DUP3 ADD MSTORE PUSH1 0x80 DUP1 DUP4 ADD MLOAD SWAP1 DUP3 ADD MSTORE PUSH1 0xA0 DUP3 DUP2 ADD MLOAD SWAP1 DUP3 ADD MSTORE PUSH1 0xC0 SWAP2 DUP3 ADD MLOAD ISZERO ISZERO SWAP2 DUP2 ADD SWAP2 SWAP1 SWAP2 MSTORE PUSH1 0xE0 ADD SWAP1 JUMP JUMPDEST CALLVALUE DUP1 ISZERO PUSH2 0x44E JUMPI PUSH1 0x0 DUP1 REVERT JUMPDEST POP PUSH2 0x235 PUSH2 0x3E8 DUP2 JUMP JUMPDEST CALLVALUE DUP1 ISZERO PUSH2 0x464 JUMPI PUSH1 0x0 DUP1 REVERT JUMPDEST POP PUSH2 0x235 PUSH1 0x14 DUP2 JUMP JUMPDEST PUSH2 0x357 PUSH2 0xED2 JUMP JUMPDEST CALLVALUE DUP1 ISZERO PUSH2 0x481 JUMPI PUSH1 0x0 DUP1 REVERT JUMPDEST POP PUSH2 0x357 PUSH2 0x490 CALLDATASIZE PUSH1 0x4 PUSH2 0x25E6 JUMP JUMPDEST PUSH2 0xFD7 JUMP JUMPDEST CALLVALUE DUP1 ISZERO PUSH2 0x4A1 JUMPI PUSH1 0x0 DUP1 REVERT JUMPDEST POP PUSH2 0x235 PUSH2 0x4B0 CALLDATASIZE PUSH1 0x4 PUSH2 0x26E6 JUMP JUMPDEST PUSH1 0x5 PUSH1 0x20 SWAP1 DUP2 MSTORE PUSH1 0x0 SWAP3 DUP4 MSTORE PUSH1 0x40 DUP1 DUP5 KECCAK256 SWAP1 SWAP2 MSTORE SWAP1 DUP3 MSTORE SWAP1 KECCAK256 SLOAD DUP2 JUMP JUMPDEST PUSH2 0x357 PUSH2 0x4DB CALLDATASIZE PUSH1 0x4 PUSH2 0x25E6 JUMP JUMPDEST PUSH2 0x12AB JUMP JUMPDEST CALLVALUE DUP1 ISZERO PUSH2 0x4EC JUMPI PUSH1 0x0 DUP1 REVERT JUMPDEST POP PUSH2 0x500 PUSH2 0x4FB CALLDATASIZE PUSH1 0x4 PUSH2 0x25E6 JUMP JUMPDEST PUSH2 0x1673 JUMP JUMPDEST PUSH1 0x40 MLOAD PUSH2 0x1FF SWAP2 SWAP1 DUP2 MLOAD PUSH1 0x1 PUSH1 0x1 PUSH1 0xA0 SHL SUB SWAP1 DUP2 AND DUP3 MSTORE PUSH1 0x20 DUP1 DUP5 ADD MLOAD SWAP1 SWAP2 AND SWAP1 DUP3 ADD MSTORE PUSH1 0x40 DUP1 DUP4 ADD MLOAD SWAP1 DUP3 ADD MSTORE PUSH1 0x60 SWAP2 DUP3 ADD MLOAD ISZERO ISZERO SWAP2 DUP2 ADD SWAP2 SWAP1 SWAP2 MSTORE PUSH1 0x80 ADD SWAP1 JUMP JUMPDEST CALLVALUE DUP1 ISZERO PUSH2 0x54F JUMPI PUSH1 0x0 DUP1 REVERT JUMPDEST POP PUSH2 0x235 PUSH2 0x55E CALLDATASIZE PUSH1 0x4 PUSH2 0x2719 JUMP JUMPDEST PUSH2 0x1756 JUMP JUMPDEST CALLVALUE DUP1 ISZERO PUSH2 0x56F JUMPI PUSH1 0x0 DUP1 REVERT JUMPDEST POP PUSH2 0x578 PUSH2 0x1787 JUMP JUMPDEST PUSH1 0x40 DUP1 MLOAD SWAP3 DUP4 MSTORE PUSH1 0x20 DUP4 ADD SWAP2 SWAP1 SWAP2 MSTORE ADD PUSH2 0x1FF JUMP JUMPDEST CALLVALUE DUP1 ISZERO PUSH2 0x599 JUMPI PUSH1 0x0 DUP1 REVERT JUMPDEST POP PUSH2 0x5F3 PUSH2 0x5A8 CALLDATASIZE PUSH1 0x4 PUSH2 0x2580 JUMP JUMPDEST PUSH1 0x3 PUSH1 0x20 DUP2 SWAP1 MSTORE PUSH1 0x0 SWAP2 DUP3 MSTORE PUSH1 0x40 SWAP1 SWAP2 KECCAK256 DUP1 SLOAD PUSH1 0x1 DUP3 ADD SLOAD PUSH1 0x2 DUP4 ADD SLOAD SWAP4 DUP4 ADD SLOAD PUSH1 0x4 DUP5 ADD SLOAD PUSH1 0x5 DUP6 ADD SLOAD PUSH1 0x6 SWAP1 SWAP6 ADD SLOAD PUSH1 0x1 PUSH1 0x1 PUSH1 0xA0 SHL SUB SWAP1 SWAP5 AND SWAP6 SWAP3 SWAP5 SWAP3 SWAP4 SWAP2 SWAP3 SWAP1 SWAP2 PUSH1 0xFF AND DUP8 JUMP JUMPDEST PUSH1 0x40 DUP1 MLOAD PUSH1 0x1 PUSH1 0x1 PUSH1 0xA0 SHL SUB SWAP1 SWAP9 AND DUP9 MSTORE PUSH1 0x20 DUP9 ADD SWAP7 SWAP1 SWAP7 MSTORE SWAP5 DUP7 ADD SWAP4 SWAP1 SWAP4 MSTORE PUSH1 0x60 DUP6 ADD SWAP2 SWAP1 SWAP2 MSTORE PUSH1 0x80 DUP5 ADD MSTORE PUSH1 0xA0 DUP4 ADD MSTORE ISZERO ISZERO PUSH1 0xC0 DUP3 ADD MSTORE PUSH1 0xE0 ADD PUSH2 0x1FF JUMP JUMPDEST CALLVALUE DUP1 ISZERO PUSH2 0x640 JUMPI PUSH1 0x0 DUP1 REVERT JUMPDEST POP PUSH2 0x235 PUSH2 0x1F4 DUP2 JUMP JUMPDEST PUSH2 0x357 PUSH2 0x658 CALLDATASIZE PUSH1 0x4 PUSH2 0x25E6 JUMP JUMPDEST PUSH2 0x179E JUMP JUMPDEST CALLVALUE DUP1 ISZERO PUSH2 0x669 JUMPI PUSH1 0x0 DUP1 REVERT JUMPDEST POP PUSH2 0x357 PUSH2 0x678 CALLDATASIZE PUSH1 0x4 PUSH2 0x2580 JUMP JUMPDEST PUSH2 0x1AF2 JUMP JUMPDEST CALLVALUE DUP1 ISZERO PUSH2 0x689 JUMPI PUSH1 0x0 DUP1 REVERT JUMPDEST POP PUSH2 0x235 PUSH1 0x64 DUP2 JUMP JUMPDEST CALLVALUE DUP1 ISZERO PUSH2 0x69E JUMPI PUSH1 0x0 DUP1 REVERT JUMPDEST POP PUSH2 0x357 PUSH2 0x6AD CALLDATASIZE PUSH1 0x4 PUSH2 0x25E6 JUMP JUMPDEST PUSH2 0x1F2A JUMP JUMPDEST CALLVALUE DUP1 ISZERO PUSH2 0x6BE JUMPI PUSH1 0x0 DUP1 REVERT JUMPDEST POP PUSH2 0x235 PUSH3 0x278D00 DUP2 JUMP JUMPDEST CALLVALUE DUP1 ISZERO PUSH2 0x6D5 JUMPI PUSH1 0x0 DUP1 REVERT JUMPDEST POP PUSH2 0x757 PUSH2 0x6E4 CALLDATASIZE PUSH1 0x4 PUSH2 0x25E6 JUMP JUMPDEST PUSH1 0x7 PUSH1 0x20 DUP2 SWAP1 MSTORE PUSH1 0x0 SWAP2 DUP3 MSTORE PUSH1 0x40 SWAP1 SWAP2 KECCAK256 DUP1 SLOAD PUSH1 0x1 DUP3 ADD SLOAD PUSH1 0x2 DUP4 ADD SLOAD PUSH1 0x3 DUP5 ADD SLOAD PUSH1 0x4 DUP6 ADD SLOAD PUSH1 0x5 DUP7 ADD SLOAD PUSH1 0x6 DUP8 ADD SLOAD SWAP8 DUP8 ADD SLOAD PUSH1 0x8 DUP9 ADD SLOAD PUSH1 0x9 DUP10 ADD SLOAD PUSH1 0xA SWAP1 SWAP10 ADD SLOAD SWAP8 SWAP10 PUSH1 0x1 PUSH1 0x1 PUSH1 0xA0 SHL SUB SWAP8 DUP9 AND SWAP10 SWAP7 SWAP9 SWAP6 SWAP8 SWAP5 SWAP7 SWAP4 SWAP6 SWAP1 SWAP5 SWAP3 SWAP4 SWAP2 SWAP1 SWAP3 AND SWAP2 PUSH1 0xFF DUP1 DUP3 AND SWAP2 PUSH2 0x100 SWAP1 DIV AND DUP13 JUMP JUMPDEST PUSH1 0x40 MLOAD PUSH2 0x1FF SWAP13 SWAP12 SWAP11 SWAP10 SWAP9 SWAP8 SWAP7 SWAP6 SWAP5 SWAP4 SWAP3 SWAP2 SWAP1 PUSH2 0x2743 JUMP JUMPDEST PUSH1 0x1 PUSH1 0x1 PUSH1 0xA0 SHL SUB DUP2 AND PUSH1 0x0 SWAP1 DUP2 MSTORE PUSH1 0x8 PUSH1 0x20 SWAP1 DUP2 MSTORE PUSH1 0x40 SWAP2 DUP3 SWAP1 KECCAK256 DUP1 SLOAD DUP4 MLOAD DUP2 DUP5 MUL DUP2 ADD DUP5 ADD SWAP1 SWAP5 MSTORE DUP1 DUP5 MSTORE PUSH1 0x60 SWAP4 SWAP3 DUP4 ADD DUP3 DUP3 DUP1 ISZERO PUSH2 0x7CF JUMPI PUSH1 0x20 MUL DUP3 ADD SWAP2 SWAP1 PUSH1 0x0 MSTORE PUSH1 0x20 PUSH1 0x0 KECCAK256 SWAP1 JUMPDEST DUP2 SLOAD DUP2 MSTORE PUSH1 0x20 ADD SWAP1 PUSH1 0x1 ADD SWAP1 DUP1 DUP4 GT PUSH2 0x7BB JUMPI JUMPDEST POP POP POP POP POP SWAP1 POP SWAP2 SWAP1 POP JUMP JUMPDEST PUSH2 0x7E3 PUSH2 0x214C JUMP JUMPDEST CALLER PUSH1 0x0 SWAP1 DUP2 MSTORE PUSH1 0x4 PUSH1 0x20 MSTORE PUSH1 0x40 SWAP1 KECCAK256 SLOAD PUSH1 0xFF AND PUSH2 0x81B JUMPI PUSH1 0x40 MLOAD PUSH3 0x461BCD PUSH1 0xE5 SHL DUP2 MSTORE PUSH1 0x4 ADD PUSH2 0x812 SWAP1 PUSH2 0x27BD JUMP JUMPDEST PUSH1 0x40 MLOAD DUP1 SWAP2 SUB SWAP1 REVERT JUMPDEST PUSH1 0x1 PUSH1 0x1 PUSH1 0xA0 SHL SUB DUP2 AND PUSH1 0x0 SWAP1 DUP2 MSTORE PUSH1 0x4 PUSH1 0x20 MSTORE PUSH1 0x40 SWAP1 KECCAK256 SLOAD PUSH1 0xFF AND PUSH2 0x883 JUMPI PUSH1 0x40 MLOAD PUSH3 0x461BCD PUSH1 0xE5 SHL DUP2 MSTORE PUSH1 0x20 PUSH1 0x4 DUP3 ADD DUP2 SWAP1 MSTORE PUSH1 0x24 DUP3 ADD MSTORE PUSH32 0x456E646F7273653A20456E646F72736565206E6F742072656769737465726564 PUSH1 0x44 DUP3 ADD MSTORE PUSH1 0x64 ADD PUSH2 0x812 JUMP JUMPDEST CALLER PUSH1 0x1 PUSH1 0x1 PUSH1 0xA0 SHL SUB DUP3 AND SUB PUSH2 0x8DB JUMPI PUSH1 0x40 MLOAD PUSH3 0x461BCD PUSH1 0xE5 SHL DUP2 MSTORE PUSH1 0x20 PUSH1 0x4 DUP3 ADD DUP2 SWAP1 MSTORE PUSH1 0x24 DUP3 ADD MSTORE PUSH32 0x456E646F7273653A2043616E6E6F7420656E646F72736520796F757273656C66 PUSH1 0x44 DUP3 ADD MSTORE PUSH1 0x64 ADD PUSH2 0x812 JUMP JUMPDEST PUSH1 0x0 CALLVALUE GT PUSH2 0x93A JUMPI PUSH1 0x40 MLOAD PUSH3 0x461BCD PUSH1 0xE5 SHL DUP2 MSTORE PUSH1 0x20 PUSH1 0x4 DUP3 ADD MSTORE PUSH1 0x26 PUSH1 0x24 DUP3 ADD MSTORE PUSH32 0x456E646F7273653A205374616B6520616D6F756E74206D75737420626520706F PUSH1 0x44 DUP3 ADD MSTORE PUSH6 0x736974697665 PUSH1 0xD0 SHL PUSH1 0x64 DUP3 ADD MSTORE PUSH1 0x84 ADD PUSH2 0x812 JUMP JUMPDEST PUSH1 0x1 PUSH1 0x1 PUSH1 0xA0 SHL SUB DUP2 AND PUSH1 0x0 SWAP1 DUP2 MSTORE PUSH1 0x5 PUSH1 0x20 SWAP1 DUP2 MSTORE PUSH1 0x40 DUP1 DUP4 KECCAK256 CALLER DUP5 MSTORE SWAP1 SWAP2 MSTORE SWAP1 KECCAK256 SLOAD ISZERO PUSH2 0x9B7 JUMPI PUSH1 0x40 MLOAD PUSH3 0x461BCD PUSH1 0xE5 SHL DUP2 MSTORE PUSH1 0x20 PUSH1 0x4 DUP3 ADD MSTORE PUSH1 0x23 PUSH1 0x24 DUP3 ADD MSTORE PUSH32 0x456E646F7273653A20416C726561647920656E646F7273656420746869732075 PUSH1 0x44 DUP3 ADD MSTORE PUSH3 0x39B2B9 PUSH1 0xE9 SHL PUSH1 0x64 DUP3 ADD MSTORE PUSH1 0x84 ADD PUSH2 0x812 JUMP JUMPDEST PUSH2 0x9C5 PUSH1 0x2 DUP1 SLOAD PUSH1 0x1 ADD SWAP1 SSTORE JUMP JUMPDEST PUSH1 0x0 PUSH2 0x9D0 PUSH1 0x2 SLOAD SWAP1 JUMP JUMPDEST PUSH1 0x40 DUP1 MLOAD PUSH1 0x80 DUP2 ADD DUP3 MSTORE CALLER DUP1 DUP3 MSTORE PUSH1 0x1 PUSH1 0x1 PUSH1 0xA0 SHL SUB DUP7 DUP2 AND PUSH1 0x20 DUP1 DUP6 ADD DUP3 DUP2 MSTORE CALLVALUE DUP7 DUP9 ADD SWAP1 DUP2 MSTORE PUSH1 0x1 PUSH1 0x60 DUP9 ADD DUP2 DUP2 MSTORE PUSH1 0x0 DUP12 DUP2 MSTORE PUSH1 0x6 DUP7 MSTORE DUP11 DUP2 KECCAK256 SWAP10 MLOAD DUP11 SLOAD SWAP1 DUP10 AND PUSH1 0x1 PUSH1 0x1 PUSH1 0xA0 SHL SUB NOT SWAP2 DUP3 AND OR DUP12 SSTORE SWAP5 MLOAD SWAP3 DUP11 ADD DUP1 SLOAD SWAP4 SWAP1 SWAP9 AND SWAP3 SWAP1 SWAP5 AND SWAP2 SWAP1 SWAP2 OR SWAP1 SWAP6 SSTORE MLOAD PUSH1 0x2 DUP1 DUP9 ADD SWAP2 SWAP1 SWAP2 SSTORE SWAP4 MLOAD PUSH1 0x3 SWAP7 DUP8 ADD DUP1 SLOAD SWAP2 ISZERO ISZERO PUSH1 0xFF NOT SWAP1 SWAP3 AND SWAP2 SWAP1 SWAP2 OR SWAP1 SSTORE DUP3 DUP2 MSTORE PUSH1 0x5 DUP3 MSTORE DUP7 DUP2 KECCAK256 SWAP5 DUP2 MSTORE SWAP4 DUP2 MSTORE DUP6 DUP5 KECCAK256 DUP8 SWAP1 SSTORE SWAP1 DUP4 MSTORE SWAP3 SWAP1 SWAP3 MSTORE SWAP2 DUP3 KECCAK256 SWAP1 DUP2 ADD DUP1 SLOAD SWAP4 SWAP5 POP SWAP1 SWAP3 SWAP2 PUSH2 0xA8F DUP4 PUSH2 0x280A JUMP JUMPDEST SWAP2 SWAP1 POP SSTORE POP CALLVALUE DUP2 PUSH1 0x3 ADD PUSH1 0x0 DUP3 DUP3 SLOAD PUSH2 0xAA8 SWAP2 SWAP1 PUSH2 0x2823 JUMP JUMPDEST SWAP1 SWAP2 SSTORE POP PUSH2 0xABB SWAP1 POP DUP4 PUSH1 0xA PUSH1 0x1 PUSH2 0x21A5 JUMP JUMPDEST CALLVALUE PUSH1 0x9 PUSH1 0x0 DUP3 DUP3 SLOAD PUSH2 0xACD SWAP2 SWAP1 PUSH2 0x2823 JUMP JUMPDEST SWAP1 SWAP2 SSTORE POP POP PUSH1 0x40 MLOAD CALLVALUE DUP2 MSTORE PUSH1 0x1 PUSH1 0x1 PUSH1 0xA0 SHL SUB DUP5 AND SWAP1 CALLER SWAP1 DUP5 SWAP1 PUSH32 0xD89B081A2C97EACCC807D2E4FF6A001248C8A6544BCC36156F62ACB98F82C25 SWAP1 PUSH1 0x20 ADD PUSH1 0x40 MLOAD DUP1 SWAP2 SUB SWAP1 LOG4 POP POP PUSH2 0xB20 PUSH1 0x1 PUSH1 0x0 SSTORE JUMP JUMPDEST POP JUMP JUMPDEST CALLER PUSH1 0x0 SWAP1 DUP2 MSTORE PUSH1 0x4 PUSH1 0x20 MSTORE PUSH1 0x40 SWAP1 KECCAK256 SLOAD PUSH1 0xFF AND ISZERO PUSH2 0xB83 JUMPI PUSH1 0x40 MLOAD PUSH3 0x461BCD PUSH1 0xE5 SHL DUP2 MSTORE PUSH1 0x20 PUSH1 0x4 DUP3 ADD MSTORE PUSH1 0x18 PUSH1 0x24 DUP3 ADD MSTORE PUSH32 0x557365723A20416C726561647920726567697374657265640000000000000000 PUSH1 0x44 DUP3 ADD MSTORE PUSH1 0x64 ADD PUSH2 0x812 JUMP JUMPDEST PUSH1 0x40 DUP1 MLOAD PUSH1 0xE0 DUP2 ADD DUP3 MSTORE CALLER DUP1 DUP3 MSTORE PUSH2 0x1F4 PUSH1 0x20 DUP1 DUP5 ADD SWAP2 DUP3 MSTORE PUSH1 0x0 DUP5 DUP7 ADD DUP2 DUP2 MSTORE PUSH1 0x60 DUP7 ADD DUP3 DUP2 MSTORE PUSH1 0x80 DUP8 ADD DUP4 DUP2 MSTORE PUSH1 0xA0 DUP9 ADD DUP5 DUP2 MSTORE PUSH1 0x1 PUSH1 0xC0 DUP11 ADD DUP2 DUP2 MSTORE DUP10 DUP8 MSTORE PUSH1 0x3 DUP1 DUP10 MSTORE DUP13 DUP9 KECCAK256 SWAP12 MLOAD DUP13 SLOAD PUSH1 0x1 PUSH1 0x1 PUSH1 0xA0 SHL SUB SWAP2 SWAP1 SWAP2 AND PUSH1 0x1 PUSH1 0x1 PUSH1 0xA0 SHL SUB NOT SWAP1 SWAP2 AND OR DUP13 SSTORE SWAP9 MLOAD DUP12 DUP4 ADD SSTORE SWAP5 MLOAD PUSH1 0x2 DUP12 ADD SSTORE SWAP3 MLOAD SWAP7 DUP10 ADD SWAP7 SWAP1 SWAP7 SSTORE MLOAD PUSH1 0x4 DUP1 DUP10 ADD SWAP2 SWAP1 SWAP2 SSTORE SWAP5 MLOAD PUSH1 0x5 DUP9 ADD SSTORE SWAP1 MLOAD PUSH1 0x6 SWAP1 SWAP7 ADD DUP1 SLOAD SWAP7 ISZERO ISZERO PUSH1 0xFF NOT SWAP8 DUP9 AND OR SWAP1 SSTORE SWAP3 SWAP1 SWAP2 MSTORE DUP5 DUP2 KECCAK256 DUP1 SLOAD SWAP1 SWAP5 AND SWAP1 SWAP2 OR SWAP1 SWAP3 SSTORE SWAP2 MLOAD PUSH32 0x54DB7A5CB4735E1AAC1F53DB512D3390390BB6637BD30AD4BF9FC98667D9B9B9 SWAP2 SWAP1 LOG2 JUMP JUMPDEST PUSH2 0xC6A PUSH2 0x24E0 JUMP JUMPDEST PUSH1 0x0 DUP3 DUP2 MSTORE PUSH1 0x7 PUSH1 0x20 MSTORE PUSH1 0x40 SWAP1 KECCAK256 PUSH1 0xA ADD SLOAD PUSH2 0x100 SWAP1 DIV PUSH1 0xFF AND PUSH2 0xCD0 JUMPI PUSH1 0x40 MLOAD PUSH3 0x461BCD PUSH1 0xE5 SHL DUP2 MSTORE PUSH1 0x20 PUSH1 0x4 DUP3 ADD MSTORE PUSH1 0x1C PUSH1 0x24 DUP3 ADD MSTORE PUSH32 0x4765744C6F616E3A204C6F616E20646F6573206E6F7420657869737400000000 PUSH1 0x44 DUP3 ADD MSTORE PUSH1 0x64 ADD PUSH2 0x812 JUMP JUMPDEST PUSH1 0x0 DUP3 DUP2 MSTORE PUSH1 0x7 PUSH1 0x20 DUP2 DUP2 MSTORE PUSH1 0x40 SWAP3 DUP4 SWAP1 KECCAK256 DUP4 MLOAD PUSH2 0x180 DUP2 ADD DUP6 MSTORE DUP2 SLOAD DUP2 MSTORE PUSH1 0x1 DUP3 ADD SLOAD PUSH1 0x1 PUSH1 0x1 PUSH1 0xA0 SHL SUB SWAP1 DUP2 AND SWAP4 DUP3 ADD SWAP4 SWAP1 SWAP4 MSTORE PUSH1 0x2 DUP3 ADD SLOAD SWAP5 DUP2 ADD SWAP5 SWAP1 SWAP5 MSTORE PUSH1 0x3 DUP2 ADD SLOAD PUSH1 0x60 DUP6 ADD MSTORE PUSH1 0x4 DUP1 DUP3 ADD SLOAD PUSH1 0x80 DUP7 ADD MSTORE PUSH1 0x5 DUP3 ADD SLOAD PUSH1 0xA0 DUP7 ADD MSTORE PUSH1 0x6 DUP3 ADD SLOAD PUSH1 0xC0 DUP7 ADD MSTORE SWAP3 DUP2 ADD SLOAD PUSH1 0xE0 DUP6 ADD MSTORE PUSH1 0x8 DUP2 ADD SLOAD SWAP1 SWAP2 AND PUSH2 0x100 DUP5 ADD MSTORE PUSH1 0x9 DUP2 ADD SLOAD PUSH2 0x120 DUP5 ADD MSTORE PUSH1 0xA DUP2 ADD SLOAD SWAP1 SWAP2 PUSH2 0x140 DUP5 ADD SWAP2 PUSH1 0xFF AND SWAP1 DUP2 GT ISZERO PUSH2 0xD7D JUMPI PUSH2 0xD7D PUSH2 0x25FF JUMP JUMPDEST PUSH1 0x4 DUP2 GT ISZERO PUSH2 0xD8E JUMPI PUSH2 0xD8E PUSH2 0x25FF JUMP JUMPDEST DUP2 MSTORE PUSH1 0xA SWAP2 SWAP1 SWAP2 ADD SLOAD PUSH2 0x100 SWAP1 DIV PUSH1 0xFF AND ISZERO ISZERO PUSH1 0x20 SWAP1 SWAP2 ADD MSTORE SWAP3 SWAP2 POP POP JUMP JUMPDEST PUSH2 0xDF8 PUSH1 0x40 MLOAD DUP1 PUSH1 0xE0 ADD PUSH1 0x40 MSTORE DUP1 PUSH1 0x0 PUSH1 0x1 PUSH1 0x1 PUSH1 0xA0 SHL SUB AND DUP2 MSTORE PUSH1 0x20 ADD PUSH1 0x0 DUP2 MSTORE PUSH1 0x20 ADD PUSH1 0x0 DUP2 MSTORE PUSH1 0x20 ADD PUSH1 0x0 DUP2 MSTORE PUSH1 0x20 ADD PUSH1 0x0 DUP2 MSTORE PUSH1 0x20 ADD PUSH1 0x0 DUP2 MSTORE PUSH1 0x20 ADD PUSH1 0x0 ISZERO ISZERO DUP2 MSTORE POP SWAP1 JUMP JUMPDEST PUSH1 0x1 PUSH1 0x1 PUSH1 0xA0 SHL SUB DUP3 AND PUSH1 0x0 SWAP1 DUP2 MSTORE PUSH1 0x4 PUSH1 0x20 MSTORE PUSH1 0x40 SWAP1 KECCAK256 SLOAD PUSH1 0xFF AND PUSH2 0xE60 JUMPI PUSH1 0x40 MLOAD PUSH3 0x461BCD PUSH1 0xE5 SHL DUP2 MSTORE PUSH1 0x20 PUSH1 0x4 DUP3 ADD MSTORE PUSH1 0x1C PUSH1 0x24 DUP3 ADD MSTORE PUSH32 0x476574557365723A2055736572206E6F74207265676973746572656400000000 PUSH1 0x44 DUP3 ADD MSTORE PUSH1 0x64 ADD PUSH2 0x812 JUMP JUMPDEST POP PUSH1 0x1 PUSH1 0x1 PUSH1 0xA0 SHL SUB SWAP1 DUP2 AND PUSH1 0x0 SWAP1 DUP2 MSTORE PUSH1 0x3 PUSH1 0x20 DUP2 DUP2 MSTORE PUSH1 0x40 SWAP3 DUP4 SWAP1 KECCAK256 DUP4 MLOAD PUSH1 0xE0 DUP2 ADD DUP6 MSTORE DUP2 SLOAD SWAP1 SWAP6 AND DUP6 MSTORE PUSH1 0x1 DUP2 ADD SLOAD SWAP2 DUP6 ADD SWAP2 SWAP1 SWAP2 MSTORE PUSH1 0x2 DUP2 ADD SLOAD SWAP3 DUP5 ADD SWAP3 SWAP1 SWAP3 MSTORE DUP2 ADD SLOAD PUSH1 0x60 DUP4 ADD MSTORE PUSH1 0x4 DUP2 ADD SLOAD PUSH1 0x80 DUP4 ADD MSTORE PUSH1 0x5 DUP2 ADD SLOAD PUSH1 0xA0 DUP4 ADD MSTORE PUSH1 0x6 ADD SLOAD PUSH1 0xFF AND ISZERO ISZERO PUSH1 0xC0 DUP3 ADD MSTORE SWAP1 JUMP JUMPDEST PUSH2 0xEDA PUSH2 0x214C JUMP JUMPDEST CALLER PUSH1 0x0 SWAP1 DUP2 MSTORE PUSH1 0x4 PUSH1 0x20 MSTORE PUSH1 0x40 SWAP1 KECCAK256 SLOAD PUSH1 0xFF AND PUSH2 0xF09 JUMPI PUSH1 0x40 MLOAD PUSH3 0x461BCD PUSH1 0xE5 SHL DUP2 MSTORE PUSH1 0x4 ADD PUSH2 0x812 SWAP1 PUSH2 0x27BD JUMP JUMPDEST PUSH1 0x0 CALLVALUE GT PUSH2 0xF59 JUMPI PUSH1 0x40 MLOAD PUSH3 0x461BCD PUSH1 0xE5 SHL DUP2 MSTORE PUSH1 0x20 PUSH1 0x4 DUP3 ADD DUP2 SWAP1 MSTORE PUSH1 0x24 DUP3 ADD MSTORE PUSH32 0x4465706F7369743A20416D6F756E74206D75737420626520706F736974697665 PUSH1 0x44 DUP3 ADD MSTORE PUSH1 0x64 ADD PUSH2 0x812 JUMP JUMPDEST CALLER PUSH1 0x0 SWAP1 DUP2 MSTORE PUSH1 0xA PUSH1 0x20 MSTORE PUSH1 0x40 DUP2 KECCAK256 DUP1 SLOAD CALLVALUE SWAP3 SWAP1 PUSH2 0xF78 SWAP1 DUP5 SWAP1 PUSH2 0x2823 JUMP JUMPDEST SWAP3 POP POP DUP2 SWAP1 SSTORE POP CALLVALUE PUSH1 0x9 PUSH1 0x0 DUP3 DUP3 SLOAD PUSH2 0xF91 SWAP2 SWAP1 PUSH2 0x2823 JUMP JUMPDEST SWAP1 SWAP2 SSTORE POP POP PUSH1 0x40 MLOAD CALLVALUE DUP2 MSTORE CALLER SWAP1 PUSH32 0xAA72AD912D8778453C6FBDE6CD2557892FED031985B1C7E2AE57112118B9A332 SWAP1 PUSH1 0x20 ADD PUSH1 0x40 MLOAD DUP1 SWAP2 SUB SWAP1 LOG2 PUSH2 0xFD5 PUSH1 0x1 PUSH1 0x0 SSTORE JUMP JUMPDEST JUMP JUMPDEST PUSH2 0xFDF PUSH2 0x214C JUMP JUMPDEST PUSH1 0x0 DUP2 DUP2 MSTORE PUSH1 0x7 PUSH1 0x20 MSTORE PUSH1 0x40 SWAP1 KECCAK256 PUSH1 0xA DUP2 ADD SLOAD PUSH2 0x100 SWAP1 DIV PUSH1 0xFF AND PUSH2 0x1046 JUMPI PUSH1 0x40 MLOAD PUSH3 0x461BCD PUSH1 0xE5 SHL DUP2 MSTORE PUSH1 0x20 PUSH1 0x4 DUP3 ADD MSTORE PUSH1 0x1E PUSH1 0x24 DUP3 ADD MSTORE PUSH32 0x4C69717569646174653A204C6F616E20646F6573206E6F742065786973740000 PUSH1 0x44 DUP3 ADD MSTORE PUSH1 0x64 ADD PUSH2 0x812 JUMP JUMPDEST PUSH1 0x1 PUSH1 0xA DUP3 ADD SLOAD PUSH1 0xFF AND PUSH1 0x4 DUP2 GT ISZERO PUSH2 0x1061 JUMPI PUSH2 0x1061 PUSH2 0x25FF JUMP JUMPDEST EQ PUSH2 0x10C4 JUMPI PUSH1 0x40 MLOAD PUSH3 0x461BCD PUSH1 0xE5 SHL DUP2 MSTORE PUSH1 0x20 PUSH1 0x4 DUP3 ADD MSTORE PUSH1 0x2D PUSH1 0x24 DUP3 ADD MSTORE PUSH32 0x4C69717569646174653A204C6F616E206E6F7420616374697665206F7220616C PUSH1 0x44 DUP3 ADD MSTORE PUSH13 0x1C9958591E481A185B991B1959 PUSH1 0x9A SHL PUSH1 0x64 DUP3 ADD MSTORE PUSH1 0x84 ADD PUSH2 0x812 JUMP JUMPDEST DUP1 PUSH1 0x7 ADD SLOAD TIMESTAMP GT PUSH2 0x112F JUMPI PUSH1 0x40 MLOAD PUSH3 0x461BCD PUSH1 0xE5 SHL DUP2 MSTORE PUSH1 0x20 PUSH1 0x4 DUP3 ADD MSTORE PUSH1 0x2F PUSH1 0x24 DUP3 ADD MSTORE PUSH32 0x4C69717569646174653A204C6F616E206E6F7420796574207061737420726570 PUSH1 0x44 DUP3 ADD MSTORE PUSH15 0x61796D656E7420646561646C696E65 PUSH1 0x88 SHL PUSH1 0x64 DUP3 ADD MSTORE PUSH1 0x84 ADD PUSH2 0x812 JUMP JUMPDEST PUSH1 0xA DUP2 ADD DUP1 SLOAD PUSH1 0xFF NOT AND PUSH1 0x3 SWAP1 DUP2 OR SWAP1 SWAP2 SSTORE PUSH1 0x1 DUP3 ADD SLOAD PUSH1 0x1 PUSH1 0x1 PUSH1 0xA0 SHL SUB AND PUSH1 0x0 SWAP1 DUP2 MSTORE PUSH1 0x20 SWAP2 SWAP1 SWAP2 MSTORE PUSH1 0x40 DUP2 KECCAK256 PUSH1 0x5 DUP2 ADD DUP1 SLOAD SWAP2 SWAP3 PUSH2 0x116F DUP4 PUSH2 0x280A JUMP JUMPDEST SWAP1 SWAP2 SSTORE POP POP PUSH1 0x1 DUP3 ADD SLOAD PUSH2 0x118F SWAP1 PUSH1 0x1 PUSH1 0x1 PUSH1 0xA0 SHL SUB AND PUSH1 0x64 PUSH1 0x0 PUSH2 0x21A5 JUMP JUMPDEST DUP2 PUSH1 0x9 ADD SLOAD PUSH1 0x9 PUSH1 0x0 DUP3 DUP3 SLOAD PUSH2 0x11A5 SWAP2 SWAP1 PUSH2 0x2823 JUMP JUMPDEST SWAP1 SWAP2 SSTORE POP POP PUSH1 0x1 DUP3 ADD SLOAD PUSH1 0x1 PUSH1 0x1 PUSH1 0xA0 SHL SUB AND PUSH1 0x0 SWAP1 DUP2 MSTORE PUSH1 0x8 PUSH1 0x20 MSTORE PUSH1 0x40 DUP2 KECCAK256 SWAP1 JUMPDEST DUP2 SLOAD DUP2 LT ISZERO PUSH2 0x1272 JUMPI DUP5 DUP3 DUP3 DUP2 SLOAD DUP2 LT PUSH2 0x11E4 JUMPI PUSH2 0x11E4 PUSH2 0x283C JUMP JUMPDEST SWAP1 PUSH1 0x0 MSTORE PUSH1 0x20 PUSH1 0x0 KECCAK256 ADD SLOAD SUB PUSH2 0x126A JUMPI DUP2 SLOAD DUP3 SWAP1 PUSH2 0x1204 SWAP1 PUSH1 0x1 SWAP1 PUSH2 0x2852 JUMP JUMPDEST DUP2 SLOAD DUP2 LT PUSH2 0x1214 JUMPI PUSH2 0x1214 PUSH2 0x283C JUMP JUMPDEST SWAP1 PUSH1 0x0 MSTORE PUSH1 0x20 PUSH1 0x0 KECCAK256 ADD SLOAD DUP3 DUP3 DUP2 SLOAD DUP2 LT PUSH2 0x1231 JUMPI PUSH2 0x1231 PUSH2 0x283C JUMP JUMPDEST SWAP1 PUSH1 0x0 MSTORE PUSH1 0x20 PUSH1 0x0 KECCAK256 ADD DUP2 SWAP1 SSTORE POP DUP2 DUP1 SLOAD DUP1 PUSH2 0x124F JUMPI PUSH2 0x124F PUSH2 0x2865 JUMP JUMPDEST PUSH1 0x1 SWAP1 SUB DUP2 DUP2 SWAP1 PUSH1 0x0 MSTORE PUSH1 0x20 PUSH1 0x0 KECCAK256 ADD PUSH1 0x0 SWAP1 SSTORE SWAP1 SSTORE PUSH2 0x1272 JUMP JUMPDEST PUSH1 0x1 ADD PUSH2 0x11C8 JUMP JUMPDEST POP PUSH1 0x40 MLOAD DUP5 SWAP1 PUSH32 0x789B7097E8066538CFAA1132488B132E14BA5F0C938C8B7AAF8CF40356AAB0B SWAP1 PUSH1 0x0 SWAP1 LOG2 POP POP POP PUSH2 0xB20 PUSH1 0x1 PUSH1 0x0 SSTORE JUMP JUMPDEST PUSH2 0x12B3 PUSH2 0x214C JUMP JUMPDEST CALLER PUSH1 0x0 SWAP1 DUP2 MSTORE PUSH1 0x4 PUSH1 0x20 MSTORE PUSH1 0x40 SWAP1 KECCAK256 SLOAD PUSH1 0xFF AND PUSH2 0x12E2 JUMPI PUSH1 0x40 MLOAD PUSH3 0x461BCD PUSH1 0xE5 SHL DUP2 MSTORE PUSH1 0x4 ADD PUSH2 0x812 SWAP1 PUSH2 0x27BD JUMP JUMPDEST PUSH1 0x0 DUP2 GT PUSH2 0x1332 JUMPI PUSH1 0x40 MLOAD PUSH3 0x461BCD PUSH1 0xE5 SHL DUP2 MSTORE PUSH1 0x20 PUSH1 0x4 DUP3 ADD DUP2 SWAP1 MSTORE PUSH1 0x24 DUP3 ADD MSTORE PUSH32 0x4C6F616E5265713A20416D6F756E74206D75737420626520706F736974697665 PUSH1 0x44 DUP3 ADD MSTORE PUSH1 0x64 ADD PUSH2 0x812 JUMP JUMPDEST CALLER PUSH1 0x0 SWAP1 DUP2 MSTORE PUSH1 0x3 PUSH1 0x20 MSTORE PUSH1 0x40 SWAP1 KECCAK256 PUSH1 0x6 DUP2 ADD SLOAD PUSH1 0xFF AND PUSH2 0x1395 JUMPI PUSH1 0x40 MLOAD PUSH3 0x461BCD PUSH1 0xE5 SHL DUP2 MSTORE PUSH1 0x20 PUSH1 0x4 DUP3 ADD DUP2 SWAP1 MSTORE PUSH1 0x24 DUP3 ADD MSTORE PUSH32 0x4C6F616E5265713A20426F72726F776572206E6F742072656769737465726564 PUSH1 0x44 DUP3 ADD MSTORE PUSH1 0x64 ADD PUSH2 0x812 JUMP JUMPDEST PUSH2 0x190 DUP2 PUSH1 0x1 ADD SLOAD LT ISZERO PUSH2 0x13EB JUMPI PUSH1 0x40 MLOAD PUSH3 0x461BCD PUSH1 0xE5 SHL DUP2 MSTORE PUSH1 0x20 PUSH1 0x4 DUP3 ADD MSTORE PUSH1 0x1C PUSH1 0x24 DUP3 ADD MSTORE PUSH32 0x4C6F616E5265713A2054727573742073636F726520746F6F206C6F7700000000 PUSH1 0x44 DUP3 ADD MSTORE PUSH1 0x64 ADD PUSH2 0x812 JUMP JUMPDEST PUSH1 0x0 PUSH2 0x2710 PUSH2 0x13FC PUSH2 0x32C8 DUP6 PUSH2 0x287B JUMP JUMPDEST PUSH2 0x1406 SWAP2 SWAP1 PUSH2 0x2892 JUMP JUMPDEST SWAP1 POP DUP1 CALLVALUE EQ PUSH2 0x1469 JUMPI PUSH1 0x40 MLOAD PUSH3 0x461BCD PUSH1 0xE5 SHL DUP2 MSTORE PUSH1 0x20 PUSH1 0x4 DUP3 ADD MSTORE PUSH1 0x29 PUSH1 0x24 DUP3 ADD MSTORE PUSH32 0x4C6F616E5265713A20496E636F727265637420636F6C6C61746572616C20616D PUSH1 0x44 DUP3 ADD MSTORE PUSH9 0x1BDD5B9D081CD95B9D PUSH1 0xBA SHL PUSH1 0x64 DUP3 ADD MSTORE PUSH1 0x84 ADD PUSH2 0x812 JUMP JUMPDEST PUSH2 0x1477 PUSH1 0x1 DUP1 SLOAD PUSH1 0x1 ADD SWAP1 SSTORE JUMP JUMPDEST PUSH1 0x0 PUSH2 0x1482 PUSH1 0x1 SLOAD SWAP1 JUMP JUMPDEST SWAP1 POP PUSH1 0x0 PUSH2 0x2710 PUSH2 0x1495 PUSH2 0x2BC DUP8 PUSH2 0x287B JUMP JUMPDEST PUSH2 0x149F SWAP2 SWAP1 PUSH2 0x2892 JUMP JUMPDEST SWAP1 POP PUSH1 0x0 PUSH2 0x14AD DUP3 DUP8 PUSH2 0x2823 JUMP JUMPDEST SWAP1 POP PUSH1 0x40 MLOAD DUP1 PUSH2 0x180 ADD PUSH1 0x40 MSTORE DUP1 DUP5 DUP2 MSTORE PUSH1 0x20 ADD CALLER PUSH1 0x1 PUSH1 0x1 PUSH1 0xA0 SHL SUB AND DUP2 MSTORE PUSH1 0x20 ADD DUP8 DUP2 MSTORE PUSH1 0x20 ADD PUSH2 0x2BC DUP2 MSTORE PUSH1 0x20 ADD DUP3 DUP2 MSTORE PUSH1 0x20 ADD TIMESTAMP DUP2 MSTORE PUSH1 0x20 ADD PUSH1 0x0 DUP2 MSTORE PUSH1 0x20 ADD PUSH1 0x0 DUP2 MSTORE PUSH1 0x20 ADD PUSH1 0x0 PUSH1 0x1 PUSH1 0x1 PUSH1 0xA0 SHL SUB AND DUP2 MSTORE PUSH1 0x20 ADD CALLVALUE DUP2 MSTORE PUSH1 0x20 ADD PUSH1 0x0 PUSH1 0x4 DUP2 GT ISZERO PUSH2 0x1521 JUMPI PUSH2 0x1521 PUSH2 0x25FF JUMP JUMPDEST DUP2 MSTORE PUSH1 0x1 PUSH1 0x20 SWAP2 DUP3 ADD DUP2 SWAP1 MSTORE PUSH1 0x0 DUP7 DUP2 MSTORE PUSH1 0x7 DUP1 DUP5 MSTORE PUSH1 0x40 SWAP2 DUP3 SWAP1 KECCAK256 DUP6 MLOAD DUP2 SSTORE SWAP4 DUP6 ADD MLOAD DUP5 DUP5 ADD DUP1 SLOAD PUSH1 0x1 PUSH1 0x1 PUSH1 0xA0 SHL SUB NOT SWAP1 DUP2 AND PUSH1 0x1 PUSH1 0x1 PUSH1 0xA0 SHL SUB SWAP4 DUP5 AND OR SWAP1 SWAP2 SSTORE SWAP3 DUP7 ADD MLOAD PUSH1 0x2 DUP7 ADD SSTORE PUSH1 0x60 DUP7 ADD MLOAD PUSH1 0x3 DUP7 ADD SSTORE PUSH1 0x80 DUP7 ADD MLOAD PUSH1 0x4 DUP1 DUP8 ADD SWAP2 SWAP1 SWAP2 SSTORE PUSH1 0xA0 DUP8 ADD MLOAD PUSH1 0x5 DUP8 ADD SSTORE PUSH1 0xC0 DUP8 ADD MLOAD PUSH1 0x6 DUP8 ADD SSTORE PUSH1 0xE0 DUP8 ADD MLOAD SWAP3 DUP7 ADD SWAP3 SWAP1 SWAP3 SSTORE PUSH2 0x100 DUP7 ADD MLOAD PUSH1 0x8 DUP7 ADD DUP1 SLOAD SWAP1 SWAP5 AND SWAP2 AND OR SWAP1 SWAP2 SSTORE PUSH2 0x120 DUP5 ADD MLOAD PUSH1 0x9 DUP5 ADD SSTORE PUSH2 0x140 DUP5 ADD MLOAD PUSH1 0xA DUP5 ADD DUP1 SLOAD SWAP2 SWAP4 SWAP1 SWAP3 PUSH1 0xFF NOT SWAP1 SWAP3 AND SWAP2 DUP5 SWAP1 DUP2 GT ISZERO PUSH2 0x15EE JUMPI PUSH2 0x15EE PUSH2 0x25FF JUMP JUMPDEST MUL OR SWAP1 SSTORE POP PUSH2 0x160 SWAP2 SWAP1 SWAP2 ADD MLOAD PUSH1 0xA SWAP1 SWAP2 ADD DUP1 SLOAD SWAP2 ISZERO ISZERO PUSH2 0x100 MUL PUSH2 0xFF00 NOT SWAP1 SWAP3 AND SWAP2 SWAP1 SWAP2 OR SWAP1 SSTORE PUSH1 0x40 DUP1 MLOAD DUP8 DUP2 MSTORE CALLVALUE PUSH1 0x20 DUP3 ADD MSTORE CALLER SWAP2 DUP6 SWAP2 PUSH32 0x68595DBE887AE7F496F2C88735019A8918919A1DECFDEE6BDB460480AB87DECB SWAP2 ADD PUSH1 0x40 MLOAD DUP1 SWAP2 SUB SWAP1 LOG3 DUP6 PUSH1 0x9 SLOAD LT PUSH2 0x1664 JUMPI PUSH2 0x1664 DUP4 PUSH2 0x226D JUMP JUMPDEST POP POP POP POP POP PUSH2 0xB20 PUSH1 0x1 PUSH1 0x0 SSTORE JUMP JUMPDEST PUSH1 0x40 DUP1 MLOAD PUSH1 0x80 DUP2 ADD DUP3 MSTORE PUSH1 0x0 DUP1 DUP3 MSTORE PUSH1 0x20 DUP3 ADD DUP2 SWAP1 MSTORE SWAP2 DUP2 ADD DUP3 SWAP1 MSTORE PUSH1 0x60 DUP2 ADD SWAP2 SWAP1 SWAP2 MSTORE PUSH1 0x2 SLOAD DUP3 GT ISZERO DUP1 ISZERO PUSH2 0x16A9 JUMPI POP PUSH1 0x0 DUP3 GT JUMPDEST PUSH2 0x1700 JUMPI PUSH1 0x40 MLOAD PUSH3 0x461BCD PUSH1 0xE5 SHL DUP2 MSTORE PUSH1 0x20 PUSH1 0x4 DUP3 ADD MSTORE PUSH1 0x22 PUSH1 0x24 DUP3 ADD MSTORE PUSH32 0x476574456E646F7273653A20496E76616C696420656E646F7273656D656E7420 PUSH1 0x44 DUP3 ADD MSTORE PUSH2 0x1251 PUSH1 0xF2 SHL PUSH1 0x64 DUP3 ADD MSTORE PUSH1 0x84 ADD PUSH2 0x812 JUMP JUMPDEST POP PUSH1 0x0 SWAP1 DUP2 MSTORE PUSH1 0x6 PUSH1 0x20 SWAP1 DUP2 MSTORE PUSH1 0x40 SWAP2 DUP3 SWAP1 KECCAK256 DUP3 MLOAD PUSH1 0x80 DUP2 ADD DUP5 MSTORE DUP2 SLOAD PUSH1 0x1 PUSH1 0x1 PUSH1 0xA0 SHL SUB SWAP1 DUP2 AND DUP3 MSTORE PUSH1 0x1 DUP4 ADD SLOAD AND SWAP3 DUP2 ADD SWAP3 SWAP1 SWAP3 MSTORE PUSH1 0x2 DUP2 ADD SLOAD SWAP3 DUP3 ADD SWAP3 SWAP1 SWAP3 MSTORE PUSH1 0x3 SWAP1 SWAP2 ADD SLOAD PUSH1 0xFF AND ISZERO ISZERO PUSH1 0x60 DUP3 ADD MSTORE SWAP1 JUMP JUMPDEST PUSH1 0x8 PUSH1 0x20 MSTORE DUP2 PUSH1 0x0 MSTORE PUSH1 0x40 PUSH1 0x0 KECCAK256 DUP2 DUP2 SLOAD DUP2 LT PUSH2 0x1772 JUMPI PUSH1 0x0 DUP1 REVERT JUMPDEST SWAP1 PUSH1 0x0 MSTORE PUSH1 0x20 PUSH1 0x0 KECCAK256 ADD PUSH1 0x0 SWAP2 POP SWAP2 POP POP SLOAD DUP2 JUMP JUMPDEST PUSH1 0x0 DUP1 PUSH1 0x9 SLOAD PUSH2 0x1796 PUSH1 0x1 SLOAD SWAP1 JUMP JUMPDEST SWAP2 POP SWAP2 POP SWAP1 SWAP2 JUMP JUMPDEST PUSH2 0x17A6 PUSH2 0x214C JUMP JUMPDEST PUSH1 0x0 DUP2 DUP2 MSTORE PUSH1 0x7 PUSH1 0x20 MSTORE PUSH1 0x40 SWAP1 KECCAK256 PUSH1 0xA DUP2 ADD SLOAD PUSH2 0x100 SWAP1 DIV PUSH1 0xFF AND PUSH2 0x180D JUMPI PUSH1 0x40 MLOAD PUSH3 0x461BCD PUSH1 0xE5 SHL DUP2 MSTORE PUSH1 0x20 PUSH1 0x4 DUP3 ADD MSTORE PUSH1 0x1A PUSH1 0x24 DUP3 ADD MSTORE PUSH32 0x52657061793A204C6F616E20646F6573206E6F74206578697374000000000000 PUSH1 0x44 DUP3 ADD MSTORE PUSH1 0x64 ADD PUSH2 0x812 JUMP JUMPDEST PUSH1 0x1 DUP2 ADD SLOAD PUSH1 0x1 PUSH1 0x1 PUSH1 0xA0 SHL SUB AND CALLER EQ PUSH2 0x1873 JUMPI PUSH1 0x40 MLOAD PUSH3 0x461BCD PUSH1 0xE5 SHL DUP2 MSTORE PUSH1 0x20 PUSH1 0x4 DUP3 ADD MSTORE PUSH1 0x21 PUSH1 0x24 DUP3 ADD MSTORE PUSH32 0x52657061793A2043616C6C6572206973206E6F742074686520626F72726F7765 PUSH1 0x44 DUP3 ADD MSTORE PUSH1 0x39 PUSH1 0xF9 SHL PUSH1 0x64 DUP3 ADD MSTORE PUSH1 0x84 ADD PUSH2 0x812 JUMP JUMPDEST PUSH1 0x1 PUSH1 0xA DUP3 ADD SLOAD PUSH1 0xFF AND PUSH1 0x4 DUP2 GT ISZERO PUSH2 0x188E JUMPI PUSH2 0x188E PUSH2 0x25FF JUMP JUMPDEST EQ PUSH2 0x18F3 JUMPI PUSH1 0x40 MLOAD PUSH3 0x461BCD PUSH1 0xE5 SHL DUP2 MSTORE PUSH1 0x20 PUSH1 0x4 DUP3 ADD MSTORE PUSH1 0x2F PUSH1 0x24 DUP3 ADD MSTORE PUSH32 0x52657061793A204C6F616E206E6F7420696E20617070726F7665642073746174 PUSH1 0x44 DUP3 ADD MSTORE PUSH15 0x1948199BDC881C995C185E5B595B9D PUSH1 0x8A SHL PUSH1 0x64 DUP3 ADD MSTORE PUSH1 0x84 ADD PUSH2 0x812 JUMP JUMPDEST DUP1 PUSH1 0x4 ADD SLOAD CALLVALUE EQ PUSH2 0x1955 JUMPI PUSH1 0x40 MLOAD PUSH3 0x461BCD PUSH1 0xE5 SHL DUP2 MSTORE PUSH1 0x20 PUSH1 0x4 DUP3 ADD MSTORE PUSH1 0x26 PUSH1 0x24 DUP3 ADD MSTORE PUSH32 0x52657061793A20496E636F72726563742072657061796D656E7420616D6F756E PUSH1 0x44 DUP3 ADD MSTORE PUSH6 0x1D081CD95B9D PUSH1 0xD2 SHL PUSH1 0x64 DUP3 ADD MSTORE PUSH1 0x84 ADD PUSH2 0x812 JUMP JUMPDEST PUSH1 0xA DUP2 ADD DUP1 SLOAD PUSH1 0xFF NOT AND PUSH1 0x2 OR SWAP1 SSTORE PUSH1 0x4 DUP2 ADD SLOAD PUSH1 0x9 DUP1 SLOAD PUSH1 0x0 SWAP1 PUSH2 0x197B SWAP1 DUP5 SWAP1 PUSH2 0x2823 JUMP JUMPDEST SWAP1 SWAP2 SSTORE POP POP CALLER PUSH1 0x0 SWAP1 DUP2 MSTORE PUSH1 0x3 PUSH1 0x20 MSTORE PUSH1 0x40 DUP2 KECCAK256 PUSH1 0x4 DUP2 ADD DUP1 SLOAD SWAP2 SWAP3 PUSH2 0x19A0 DUP4 PUSH2 0x280A JUMP JUMPDEST SWAP2 SWAP1 POP SSTORE POP PUSH2 0x19B2 CALLER PUSH1 0x14 PUSH1 0x1 PUSH2 0x21A5 JUMP JUMPDEST CALLER PUSH1 0x0 SWAP1 DUP2 MSTORE PUSH1 0x8 PUSH1 0x20 MSTORE PUSH1 0x40 DUP2 KECCAK256 SWAP1 JUMPDEST DUP2 SLOAD DUP2 LT ISZERO PUSH2 0x1A6D JUMPI DUP5 DUP3 DUP3 DUP2 SLOAD DUP2 LT PUSH2 0x19DF JUMPI PUSH2 0x19DF PUSH2 0x283C JUMP JUMPDEST SWAP1 PUSH1 0x0 MSTORE PUSH1 0x20 PUSH1 0x0 KECCAK256 ADD SLOAD SUB PUSH2 0x1A65 JUMPI DUP2 SLOAD DUP3 SWAP1 PUSH2 0x19FF SWAP1 PUSH1 0x1 SWAP1 PUSH2 0x2852 JUMP JUMPDEST DUP2 SLOAD DUP2 LT PUSH2 0x1A0F JUMPI PUSH2 0x1A0F PUSH2 0x283C JUMP JUMPDEST SWAP1 PUSH1 0x0 MSTORE PUSH1 0x20 PUSH1 0x0 KECCAK256 ADD SLOAD DUP3 DUP3 DUP2 SLOAD DUP2 LT PUSH2 0x1A2C JUMPI PUSH2 0x1A2C PUSH2 0x283C JUMP JUMPDEST SWAP1 PUSH1 0x0 MSTORE PUSH1 0x20 PUSH1 0x0 KECCAK256 ADD DUP2 SWAP1 SSTORE POP DUP2 DUP1 SLOAD DUP1 PUSH2 0x1A4A JUMPI PUSH2 0x1A4A PUSH2 0x2865 JUMP JUMPDEST PUSH1 0x1 SWAP1 SUB DUP2 DUP2 SWAP1 PUSH1 0x0 MSTORE PUSH1 0x20 PUSH1 0x0 KECCAK256 ADD PUSH1 0x0 SWAP1 SSTORE SWAP1 SSTORE PUSH2 0x1A6D JUMP JUMPDEST PUSH1 0x1 ADD PUSH2 0x19C3 JUMP JUMPDEST POP PUSH1 0x9 DUP4 ADD SLOAD ISZERO PUSH2 0x1ABA JUMPI PUSH1 0x1 DUP4 ADD SLOAD PUSH1 0x9 DUP5 ADD SLOAD PUSH1 0x40 MLOAD PUSH1 0x1 PUSH1 0x1 PUSH1 0xA0 SHL SUB SWAP1 SWAP3 AND SWAP2 DUP2 ISZERO PUSH2 0x8FC MUL SWAP2 SWAP1 PUSH1 0x0 DUP2 DUP2 DUP2 DUP6 DUP9 DUP9 CALL SWAP4 POP POP POP POP ISZERO DUP1 ISZERO PUSH2 0x1AB8 JUMPI RETURNDATASIZE PUSH1 0x0 DUP1 RETURNDATACOPY RETURNDATASIZE PUSH1 0x0 REVERT JUMPDEST POP JUMPDEST PUSH1 0x40 MLOAD DUP5 SWAP1 PUSH32 0x9A7851747CD7FFB3FE0A32CAF3DA48B31F27CEBE131267051640F8B72FC47186 SWAP1 PUSH1 0x0 SWAP1 LOG2 POP POP POP PUSH2 0xB20 PUSH1 0x1 PUSH1 0x0 SSTORE JUMP JUMPDEST PUSH2 0x1AFA PUSH2 0x214C JUMP JUMPDEST CALLER PUSH1 0x0 SWAP1 DUP2 MSTORE PUSH1 0x4 PUSH1 0x20 MSTORE PUSH1 0x40 SWAP1 KECCAK256 SLOAD PUSH1 0xFF AND PUSH2 0x1B29 JUMPI PUSH1 0x40 MLOAD PUSH3 0x461BCD PUSH1 0xE5 SHL DUP2 MSTORE PUSH1 0x4 ADD PUSH2 0x812 SWAP1 PUSH2 0x27BD JUMP JUMPDEST PUSH1 0x1 PUSH1 0x1 PUSH1 0xA0 SHL SUB DUP2 AND PUSH1 0x0 SWAP1 DUP2 MSTORE PUSH1 0x5 PUSH1 0x20 SWAP1 DUP2 MSTORE PUSH1 0x40 DUP1 DUP4 KECCAK256 CALLER DUP5 MSTORE SWAP1 SWAP2 MSTORE DUP2 KECCAK256 SLOAD SWAP1 DUP2 SWAP1 SUB PUSH2 0x1BC3 JUMPI PUSH1 0x40 MLOAD PUSH3 0x461BCD PUSH1 0xE5 SHL DUP2 MSTORE PUSH1 0x20 PUSH1 0x4 DUP3 ADD MSTORE PUSH1 0x3B PUSH1 0x24 DUP3 ADD MSTORE PUSH32 0x5769746864726177456E646F7273653A204E6F2061637469766520656E646F72 PUSH1 0x44 DUP3 ADD MSTORE PUSH32 0x73656D656E7420666F722074686973207573657220627920796F750000000000 PUSH1 0x64 DUP3 ADD MSTORE PUSH1 0x84 ADD PUSH2 0x812 JUMP JUMPDEST PUSH1 0x0 DUP2 DUP2 MSTORE PUSH1 0x6 PUSH1 0x20 MSTORE PUSH1 0x40 SWAP1 KECCAK256 DUP1 SLOAD PUSH1 0x1 PUSH1 0x1 PUSH1 0xA0 SHL SUB AND CALLER EQ PUSH2 0x1C38 JUMPI PUSH1 0x40 MLOAD PUSH3 0x461BCD PUSH1 0xE5 SHL DUP2 MSTORE PUSH1 0x20 PUSH1 0x4 DUP3 ADD MSTORE PUSH1 0x25 PUSH1 0x24 DUP3 ADD MSTORE PUSH32 0x5769746864726177456E646F7273653A204E6F7420796F757220656E646F7273 PUSH1 0x44 DUP3 ADD MSTORE PUSH5 0x195B595B9D PUSH1 0xDA SHL PUSH1 0x64 DUP3 ADD MSTORE PUSH1 0x84 ADD PUSH2 0x812 JUMP JUMPDEST PUSH1 0x3 DUP2 ADD SLOAD PUSH1 0xFF AND PUSH2 0x1C9C JUMPI PUSH1 0x40 MLOAD PUSH3 0x461BCD PUSH1 0xE5 SHL DUP2 MSTORE PUSH1 0x20 PUSH1 0x4 DUP3 ADD MSTORE PUSH1 0x27 PUSH1 0x24 DUP3 ADD MSTORE PUSH32 0x5769746864726177456E646F7273653A20456E646F7273656D656E74206E6F74 PUSH1 0x44 DUP3 ADD MSTORE PUSH7 0x20616374697665 PUSH1 0xC8 SHL PUSH1 0x64 DUP3 ADD MSTORE PUSH1 0x84 ADD PUSH2 0x812 JUMP JUMPDEST PUSH1 0x1 PUSH1 0x1 PUSH1 0xA0 SHL SUB DUP4 AND PUSH1 0x0 SWAP1 DUP2 MSTORE PUSH1 0x8 PUSH1 0x20 MSTORE PUSH1 0x40 DUP2 KECCAK256 DUP2 JUMPDEST DUP2 SLOAD DUP2 LT ISZERO PUSH2 0x1D20 JUMPI PUSH1 0x1 PUSH1 0x7 PUSH1 0x0 DUP5 DUP5 DUP2 SLOAD DUP2 LT PUSH2 0x1CD7 JUMPI PUSH2 0x1CD7 PUSH2 0x283C JUMP JUMPDEST PUSH1 0x0 SWAP2 DUP3 MSTORE PUSH1 0x20 DUP1 DUP4 KECCAK256 SWAP1 SWAP2 ADD SLOAD DUP4 MSTORE DUP3 ADD SWAP3 SWAP1 SWAP3 MSTORE PUSH1 0x40 ADD SWAP1 KECCAK256 PUSH1 0xA ADD SLOAD PUSH1 0xFF AND PUSH1 0x4 DUP2 GT ISZERO PUSH2 0x1D0A JUMPI PUSH2 0x1D0A PUSH2 0x25FF JUMP JUMPDEST SUB PUSH2 0x1D18 JUMPI PUSH1 0x1 SWAP3 POP PUSH2 0x1D20 JUMP JUMPDEST PUSH1 0x1 ADD PUSH2 0x1CB6 JUMP JUMPDEST POP DUP2 ISZERO PUSH2 0x1DAE JUMPI PUSH1 0x40 MLOAD PUSH3 0x461BCD PUSH1 0xE5 SHL DUP2 MSTORE PUSH1 0x20 PUSH1 0x4 DUP3 ADD MSTORE PUSH1 0x50 PUSH1 0x24 DUP3 ADD MSTORE PUSH32 0x5769746864726177456E646F7273653A20456E646F7273656520686173206163 PUSH1 0x44 DUP3 ADD MSTORE PUSH32 0x746976652028417070726F76656429206C6F616E732C2063616E6E6F74207769 PUSH1 0x64 DUP3 ADD MSTORE PUSH16 0x1D1A191C985DC81CDD185AD9481E595D PUSH1 0x82 SHL PUSH1 0x84 DUP3 ADD MSTORE PUSH1 0xA4 ADD PUSH2 0x812 JUMP JUMPDEST PUSH1 0x2 DUP4 ADD SLOAD PUSH1 0x9 SLOAD DUP2 GT ISZERO PUSH2 0x1E2B JUMPI PUSH1 0x40 MLOAD PUSH3 0x461BCD PUSH1 0xE5 SHL DUP2 MSTORE PUSH1 0x20 PUSH1 0x4 DUP3 ADD MSTORE PUSH1 0x3E PUSH1 0x24 DUP3 ADD MSTORE PUSH32 0x5769746864726177456E646F7273653A20496E73756666696369656E7420706F PUSH1 0x44 DUP3 ADD MSTORE PUSH32 0x6F6C206C697175696469747920746F207769746864726177207374616B650000 PUSH1 0x64 DUP3 ADD MSTORE PUSH1 0x84 ADD PUSH2 0x812 JUMP JUMPDEST PUSH1 0x3 DUP1 DUP6 ADD DUP1 SLOAD PUSH1 0xFF NOT AND SWAP1 SSTORE PUSH1 0x0 PUSH1 0x2 DUP1 DUP8 ADD DUP3 SWAP1 SSTORE PUSH1 0x1 PUSH1 0x1 PUSH1 0xA0 SHL SUB DUP10 AND DUP3 MSTORE PUSH1 0x20 SWAP3 SWAP1 SWAP3 MSTORE PUSH1 0x40 DUP2 KECCAK256 SWAP2 DUP3 ADD DUP1 SLOAD SWAP2 PUSH2 0x1E67 DUP4 PUSH2 0x28B4 JUMP JUMPDEST SWAP2 SWAP1 POP SSTORE POP DUP2 DUP2 PUSH1 0x3 ADD PUSH1 0x0 DUP3 DUP3 SLOAD PUSH2 0x1E80 SWAP2 SWAP1 PUSH2 0x2852 JUMP JUMPDEST SWAP3 POP POP DUP2 SWAP1 SSTORE POP DUP2 PUSH1 0x9 PUSH1 0x0 DUP3 DUP3 SLOAD PUSH2 0x1E99 SWAP2 SWAP1 PUSH2 0x2852 JUMP JUMPDEST SWAP1 SWAP2 SSTORE POP POP PUSH1 0x40 MLOAD CALLER SWAP1 DUP4 ISZERO PUSH2 0x8FC MUL SWAP1 DUP5 SWAP1 PUSH1 0x0 DUP2 DUP2 DUP2 DUP6 DUP9 DUP9 CALL SWAP4 POP POP POP POP ISZERO DUP1 ISZERO PUSH2 0x1ECB JUMPI RETURNDATASIZE PUSH1 0x0 DUP1 RETURNDATACOPY RETURNDATASIZE PUSH1 0x0 REVERT JUMPDEST POP DUP7 PUSH1 0x1 PUSH1 0x1 PUSH1 0xA0 SHL SUB AND CALLER PUSH1 0x1 PUSH1 0x1 PUSH1 0xA0 SHL SUB AND DUP8 PUSH32 0xF7B925416F6A43620836DB6972AB3CAA00E68E8838FE5C093F732F0A747CF499 DUP6 PUSH1 0x40 MLOAD PUSH2 0x1F12 SWAP2 DUP2 MSTORE PUSH1 0x20 ADD SWAP1 JUMP JUMPDEST PUSH1 0x40 MLOAD DUP1 SWAP2 SUB SWAP1 LOG4 POP POP POP POP POP POP PUSH2 0xB20 PUSH1 0x1 PUSH1 0x0 SSTORE JUMP JUMPDEST PUSH2 0x1F32 PUSH2 0x214C JUMP JUMPDEST CALLER PUSH1 0x0 SWAP1 DUP2 MSTORE PUSH1 0x4 PUSH1 0x20 MSTORE PUSH1 0x40 SWAP1 KECCAK256 SLOAD PUSH1 0xFF AND PUSH2 0x1F61 JUMPI PUSH1 0x40 MLOAD PUSH3 0x461BCD PUSH1 0xE5 SHL DUP2 MSTORE PUSH1 0x4 ADD PUSH2 0x812 SWAP1 PUSH2 0x27BD JUMP JUMPDEST PUSH1 0x0 DUP2 GT PUSH2 0x1FBD JUMPI PUSH1 0x40 MLOAD PUSH3 0x461BCD PUSH1 0xE5 SHL DUP2 MSTORE PUSH1 0x20 PUSH1 0x4 DUP3 ADD MSTORE PUSH1 0x24 DUP1 DUP3 ADD MSTORE PUSH32 0x57697468647261774361703A20416D6F756E74206D75737420626520706F7369 PUSH1 0x44 DUP3 ADD MSTORE PUSH4 0x74697665 PUSH1 0xE0 SHL PUSH1 0x64 DUP3 ADD MSTORE PUSH1 0x84 ADD PUSH2 0x812 JUMP JUMPDEST CALLER PUSH1 0x0 SWAP1 DUP2 MSTORE PUSH1 0xA PUSH1 0x20 MSTORE PUSH1 0x40 SWAP1 KECCAK256 SLOAD DUP2 GT ISZERO PUSH2 0x2039 JUMPI PUSH1 0x40 MLOAD PUSH3 0x461BCD PUSH1 0xE5 SHL DUP2 MSTORE PUSH1 0x20 PUSH1 0x4 DUP3 ADD MSTORE PUSH1 0x34 PUSH1 0x24 DUP3 ADD MSTORE PUSH32 0x57697468647261774361703A20496E73756666696369656E74206465706F7369 PUSH1 0x44 DUP3 ADD MSTORE PUSH20 0x3A32B21031B0B834BA30B6103337B9103AB9B2B9 PUSH1 0x61 SHL PUSH1 0x64 DUP3 ADD MSTORE PUSH1 0x84 ADD PUSH2 0x812 JUMP JUMPDEST DUP1 PUSH1 0x9 SLOAD LT ISZERO PUSH2 0x20A2 JUMPI PUSH1 0x40 MLOAD PUSH3 0x461BCD PUSH1 0xE5 SHL DUP2 MSTORE PUSH1 0x20 PUSH1 0x4 DUP3 ADD MSTORE PUSH1 0x2E PUSH1 0x24 DUP3 ADD MSTORE PUSH32 0x57697468647261774361703A20496E73756666696369656E7420746F74616C20 PUSH1 0x44 DUP3 ADD MSTORE PUSH14 0x706F6F6C206C6971756964697479 PUSH1 0x90 SHL PUSH1 0x64 DUP3 ADD MSTORE PUSH1 0x84 ADD PUSH2 0x812 JUMP JUMPDEST CALLER PUSH1 0x0 SWAP1 DUP2 MSTORE PUSH1 0xA PUSH1 0x20 MSTORE PUSH1 0x40 DUP2 KECCAK256 DUP1 SLOAD DUP4 SWAP3 SWAP1 PUSH2 0x20C1 SWAP1 DUP5 SWAP1 PUSH2 0x2852 JUMP JUMPDEST SWAP3 POP POP DUP2 SWAP1 SSTORE POP DUP1 PUSH1 0x9 PUSH1 0x0 DUP3 DUP3 SLOAD PUSH2 0x20DA SWAP2 SWAP1 PUSH2 0x2852 JUMP JUMPDEST SWAP1 SWAP2 SSTORE POP POP PUSH1 0x40 MLOAD CALLER SWAP1 DUP3 ISZERO PUSH2 0x8FC MUL SWAP1 DUP4 SWAP1 PUSH1 0x0 DUP2 DUP2 DUP2 DUP6 DUP9 DUP9 CALL SWAP4 POP POP POP POP ISZERO DUP1 ISZERO PUSH2 0x210C JUMPI RETURNDATASIZE PUSH1 0x0 DUP1 RETURNDATACOPY RETURNDATASIZE PUSH1 0x0 REVERT JUMPDEST POP PUSH1 0x40 MLOAD DUP2 DUP2 MSTORE CALLER SWAP1 PUSH32 0xFD282AF50C2A0AF33F26B6ABCC27C8BAE5FC57DC3F7CE9B71612B4CD6DB59CA0 SWAP1 PUSH1 0x20 ADD PUSH1 0x40 MLOAD DUP1 SWAP2 SUB SWAP1 LOG2 PUSH2 0xB20 PUSH1 0x1 PUSH1 0x0 SSTORE JUMP JUMPDEST PUSH1 0x2 PUSH1 0x0 SLOAD SUB PUSH2 0x219E JUMPI PUSH1 0x40 MLOAD PUSH3 0x461BCD PUSH1 0xE5 SHL DUP2 MSTORE PUSH1 0x20 PUSH1 0x4 DUP3 ADD MSTORE PUSH1 0x1F PUSH1 0x24 DUP3 ADD MSTORE PUSH32 0x5265656E7472616E637947756172643A207265656E7472616E742063616C6C00 PUSH1 0x44 DUP3 ADD MSTORE PUSH1 0x64 ADD PUSH2 0x812 JUMP JUMPDEST PUSH1 0x2 PUSH1 0x0 SSTORE JUMP JUMPDEST PUSH1 0x1 PUSH1 0x1 PUSH1 0xA0 SHL SUB DUP4 AND PUSH1 0x0 SWAP1 DUP2 MSTORE PUSH1 0x3 PUSH1 0x20 MSTORE PUSH1 0x40 SWAP1 KECCAK256 DUP2 ISZERO PUSH2 0x21E2 JUMPI DUP3 DUP2 PUSH1 0x1 ADD PUSH1 0x0 DUP3 DUP3 SLOAD PUSH2 0x21D7 SWAP2 SWAP1 PUSH2 0x2823 JUMP JUMPDEST SWAP1 SWAP2 SSTORE POP PUSH2 0x2209 SWAP1 POP JUMP JUMPDEST DUP3 DUP2 PUSH1 0x1 ADD SLOAD LT PUSH2 0x2201 JUMPI DUP3 DUP2 PUSH1 0x1 ADD PUSH1 0x0 DUP3 DUP3 SLOAD PUSH2 0x21D7 SWAP2 SWAP1 PUSH2 0x2852 JUMP JUMPDEST PUSH1 0x0 PUSH1 0x1 DUP3 ADD SSTORE JUMPDEST PUSH2 0x3E8 DUP2 PUSH1 0x1 ADD SLOAD GT ISZERO PUSH2 0x2220 JUMPI PUSH2 0x3E8 PUSH1 0x1 DUP3 ADD SSTORE JUMPDEST DUP4 PUSH1 0x1 PUSH1 0x1 PUSH1 0xA0 SHL SUB AND PUSH32 0x16BF5E9C27E8FB3837DCA08521258EAF9F8E21BB809D3DD7A1A4A00093C99A44 DUP3 PUSH1 0x1 ADD SLOAD PUSH1 0x40 MLOAD PUSH2 0x225F SWAP2 DUP2 MSTORE PUSH1 0x20 ADD SWAP1 JUMP JUMPDEST PUSH1 0x40 MLOAD DUP1 SWAP2 SUB SWAP1 LOG2 POP POP POP POP JUMP JUMPDEST PUSH1 0x0 DUP2 DUP2 MSTORE PUSH1 0x7 PUSH1 0x20 MSTORE PUSH1 0x40 SWAP1 KECCAK256 PUSH1 0xA DUP2 ADD SLOAD PUSH2 0x100 SWAP1 DIV PUSH1 0xFF AND PUSH2 0x22D4 JUMPI PUSH1 0x40 MLOAD PUSH3 0x461BCD PUSH1 0xE5 SHL DUP2 MSTORE PUSH1 0x20 PUSH1 0x4 DUP3 ADD DUP2 SWAP1 MSTORE PUSH1 0x24 DUP3 ADD MSTORE PUSH32 0x417070726F76654C6F616E3A204C6F616E20646F6573206E6F74206578697374 PUSH1 0x44 DUP3 ADD MSTORE PUSH1 0x64 ADD PUSH2 0x812 JUMP JUMPDEST PUSH1 0x0 PUSH1 0xA DUP3 ADD SLOAD PUSH1 0xFF AND PUSH1 0x4 DUP2 GT ISZERO PUSH2 0x22EF JUMPI PUSH2 0x22EF PUSH2 0x25FF JUMP JUMPDEST EQ PUSH2 0x234D JUMPI PUSH1 0x40 MLOAD PUSH3 0x461BCD PUSH1 0xE5 SHL DUP2 MSTORE PUSH1 0x20 PUSH1 0x4 DUP3 ADD MSTORE PUSH1 0x28 PUSH1 0x24 DUP3 ADD MSTORE PUSH32 0x417070726F76654C6F616E3A204C6F616E206E6F7420696E2072657175657374 PUSH1 0x44 DUP3 ADD MSTORE PUSH8 0x6564207374617465 PUSH1 0xC0 SHL PUSH1 0x64 DUP3 ADD MSTORE PUSH1 0x84 ADD PUSH2 0x812 JUMP JUMPDEST DUP1 PUSH1 0x2 ADD SLOAD PUSH1 0x9 SLOAD LT ISZERO PUSH2 0x23C2 JUMPI PUSH1 0x40 MLOAD PUSH3 0x461BCD PUSH1 0xE5 SHL DUP2 MSTORE PUSH1 0x20 PUSH1 0x4 DUP3 ADD MSTORE PUSH1 0x36 PUSH1 0x24 DUP3 ADD MSTORE PUSH32 0x417070726F76654C6F616E3A20496E73756666696369656E7420706F6F6C206C PUSH1 0x44 DUP3 ADD MSTORE PUSH22 0x34B8BAB4B234BA3C903337B9103A3434B9903637B0B7 PUSH1 0x51 SHL PUSH1 0x64 DUP3 ADD MSTORE PUSH1 0x84 ADD PUSH2 0x812 JUMP JUMPDEST PUSH1 0xA DUP2 ADD DUP1 SLOAD PUSH1 0xFF NOT AND PUSH1 0x1 OR SWAP1 SSTORE PUSH1 0x8 DUP2 ADD DUP1 SLOAD ADDRESS PUSH1 0x1 PUSH1 0x1 PUSH1 0xA0 SHL SUB NOT SWAP1 SWAP2 AND OR SWAP1 SSTORE TIMESTAMP PUSH1 0x6 DUP3 ADD DUP2 SWAP1 SSTORE PUSH2 0x23FD SWAP1 PUSH3 0x278D00 SWAP1 PUSH2 0x2823 JUMP JUMPDEST PUSH1 0x7 DUP3 ADD SSTORE PUSH1 0x2 DUP2 ADD SLOAD PUSH1 0x9 DUP1 SLOAD PUSH1 0x0 SWAP1 PUSH2 0x2419 SWAP1 DUP5 SWAP1 PUSH2 0x2852 JUMP JUMPDEST SWAP1 SWAP2 SSTORE POP POP PUSH1 0x1 DUP1 DUP3 ADD DUP1 SLOAD PUSH1 0x1 PUSH1 0x1 PUSH1 0xA0 SHL SUB SWAP1 DUP2 AND PUSH1 0x0 SWAP1 DUP2 MSTORE PUSH1 0x8 PUSH1 0x20 SWAP1 DUP2 MSTORE PUSH1 0x40 DUP1 DUP4 KECCAK256 DUP1 SLOAD SWAP7 DUP8 ADD DUP2 SSTORE DUP4 MSTORE SWAP1 DUP3 KECCAK256 SWAP1 SWAP5 ADD DUP7 SWAP1 SSTORE SWAP2 SLOAD PUSH1 0x2 DUP6 ADD SLOAD SWAP4 MLOAD SWAP2 AND SWAP3 DUP1 ISZERO PUSH2 0x8FC MUL SWAP3 SWAP1 SWAP2 SWAP1 DUP2 DUP2 DUP2 DUP6 DUP9 DUP9 CALL SWAP4 POP POP POP POP ISZERO DUP1 ISZERO PUSH2 0x2486 JUMPI RETURNDATASIZE PUSH1 0x0 DUP1 RETURNDATACOPY RETURNDATASIZE PUSH1 0x0 REVERT JUMPDEST POP ADDRESS PUSH1 0x1 PUSH1 0x1 PUSH1 0xA0 SHL SUB AND DUP3 PUSH32 0xB2C6DE76341D4F1188DA5458FD8729CBC0E9278F99E8992F40F36900BCEF78CB DUP4 PUSH1 0x4 ADD SLOAD DUP5 PUSH1 0x7 ADD SLOAD PUSH1 0x40 MLOAD PUSH2 0x24D4 SWAP3 SWAP2 SWAP1 SWAP2 DUP3 MSTORE PUSH1 0x20 DUP3 ADD MSTORE PUSH1 0x40 ADD SWAP1 JUMP JUMPDEST PUSH1 0x40 MLOAD DUP1 SWAP2 SUB SWAP1 LOG3 POP POP JUMP JUMPDEST PUSH1 0x40 MLOAD DUP1 PUSH2 0x180 ADD PUSH1 0x40 MSTORE DUP1 PUSH1 0x0 DUP2 MSTORE PUSH1 0x20 ADD PUSH1 0x0 PUSH1 0x1 PUSH1 0x1 PUSH1 0xA0 SHL SUB AND DUP2 MSTORE PUSH1 0x20 ADD PUSH1 0x0 DUP2 MSTORE PUSH1 0x20 ADD PUSH1 0x0 DUP2 MSTORE PUSH1 0x20 ADD PUSH1 0x0 DUP2 MSTORE PUSH1 0x20 ADD PUSH1 0x0 DUP2 MSTORE PUSH1 0x20 ADD PUSH1 0x0 DUP2 MSTORE PUSH1 0x20 ADD PUSH1 0x0 DUP2 MSTORE PUSH1 0x20 ADD PUSH1 0x0 PUSH1 0x1 PUSH1 0x1 PUSH1 0xA0 SHL SUB AND DUP2 MSTORE PUSH1 0x20 ADD PUSH1 0x0 DUP2 MSTORE PUSH1 0x20 ADD PUSH1 0x0 PUSH1 0x4 DUP2 GT ISZERO PUSH2 0x2557 JUMPI PUSH2 0x2557 PUSH2 0x25FF JUMP JUMPDEST DUP2 MSTORE PUSH1 0x0 PUSH1 0x20 SWAP1 SWAP2 ADD MSTORE SWAP1 JUMP JUMPDEST DUP1 CALLDATALOAD PUSH1 0x1 PUSH1 0x1 PUSH1 0xA0 SHL SUB DUP2 AND DUP2 EQ PUSH2 0x257B JUMPI PUSH1 0x0 DUP1 REVERT JUMPDEST SWAP2 SWAP1 POP JUMP JUMPDEST PUSH1 0x0 PUSH1 0x20 DUP3 DUP5 SUB SLT ISZERO PUSH2 0x2592 JUMPI PUSH1 0x0 DUP1 REVERT JUMPDEST PUSH2 0x259B DUP3 PUSH2 0x2564 JUMP JUMPDEST SWAP4 SWAP3 POP POP POP JUMP JUMPDEST PUSH1 0x20 DUP1 DUP3 MSTORE DUP3 MLOAD DUP3 DUP3 ADD DUP2 SWAP1 MSTORE PUSH1 0x0 SWAP2 SWAP1 DUP5 DUP3 ADD SWAP1 PUSH1 0x40 DUP6 ADD SWAP1 DUP5 JUMPDEST DUP2 DUP2 LT ISZERO PUSH2 0x25DA JUMPI DUP4 MLOAD DUP4 MSTORE SWAP3 DUP5 ADD SWAP3 SWAP2 DUP5 ADD SWAP2 PUSH1 0x1 ADD PUSH2 0x25BE JUMP JUMPDEST POP SWAP1 SWAP7 SWAP6 POP POP POP POP POP POP JUMP JUMPDEST PUSH1 0x0 PUSH1 0x20 DUP3 DUP5 SUB SLT ISZERO PUSH2 0x25F8 JUMPI PUSH1 0x0 DUP1 REVERT JUMPDEST POP CALLDATALOAD SWAP2 SWAP1 POP JUMP JUMPDEST PUSH4 0x4E487B71 PUSH1 0xE0 SHL PUSH1 0x0 MSTORE PUSH1 0x21 PUSH1 0x4 MSTORE PUSH1 0x24 PUSH1 0x0 REVERT JUMPDEST PUSH1 0x5 DUP2 LT PUSH2 0x2633 JUMPI PUSH4 0x4E487B71 PUSH1 0xE0 SHL PUSH1 0x0 MSTORE PUSH1 0x21 PUSH1 0x4 MSTORE PUSH1 0x24 PUSH1 0x0 REVERT JUMPDEST SWAP1 MSTORE JUMP JUMPDEST DUP2 MLOAD DUP2 MSTORE PUSH1 0x20 DUP1 DUP4 ADD MLOAD PUSH2 0x180 DUP4 ADD SWAP2 PUSH2 0x265B SWAP1 DUP5 ADD DUP3 PUSH1 0x1 PUSH1 0x1 PUSH1 0xA0 SHL SUB AND SWAP1 MSTORE JUMP JUMPDEST POP PUSH1 0x40 DUP4 ADD MLOAD PUSH1 0x40 DUP4 ADD MSTORE PUSH1 0x60 DUP4 ADD MLOAD PUSH1 0x60 DUP4 ADD MSTORE PUSH1 0x80 DUP4 ADD MLOAD PUSH1 0x80 DUP4 ADD MSTORE PUSH1 0xA0 DUP4 ADD MLOAD PUSH1 0xA0 DUP4 ADD MSTORE PUSH1 0xC0 DUP4 ADD MLOAD PUSH1 0xC0 DUP4 ADD MSTORE PUSH1 0xE0 DUP4 ADD MLOAD PUSH1 0xE0 DUP4 ADD MSTORE PUSH2 0x100 DUP1 DUP5 ADD MLOAD PUSH2 0x26B3 DUP3 DUP6 ADD DUP3 PUSH1 0x1 PUSH1 0x1 PUSH1 0xA0 SHL SUB AND SWAP1 MSTORE JUMP JUMPDEST POP POP PUSH2 0x120 DUP4 DUP2 ADD MLOAD SWAP1 DUP4 ADD MSTORE PUSH2 0x140 DUP1 DUP5 ADD MLOAD PUSH2 0x26D3 DUP3 DUP6 ADD DUP3 PUSH2 0x2615 JUMP JUMPDEST POP POP PUSH2 0x160 SWAP3 DUP4 ADD MLOAD ISZERO ISZERO SWAP2 SWAP1 SWAP3 ADD MSTORE SWAP1 JUMP JUMPDEST PUSH1 0x0 DUP1 PUSH1 0x40 DUP4 DUP6 SUB SLT ISZERO PUSH2 0x26F9 JUMPI PUSH1 0x0 DUP1 REVERT JUMPDEST PUSH2 0x2702 DUP4 PUSH2 0x2564 JUMP JUMPDEST SWAP2 POP PUSH2 0x2710 PUSH1 0x20 DUP5 ADD PUSH2 0x2564 JUMP JUMPDEST SWAP1 POP SWAP3 POP SWAP3 SWAP1 POP JUMP JUMPDEST PUSH1 0x0 DUP1 PUSH1 0x40 DUP4 DUP6 SUB SLT ISZERO PUSH2 0x272C JUMPI PUSH1 0x0 DUP1 REVERT JUMPDEST PUSH2 0x2735 DUP4 PUSH2 0x2564 JUMP JUMPDEST SWAP5 PUSH1 0x20 SWAP4 SWAP1 SWAP4 ADD CALLDATALOAD SWAP4 POP POP POP JUMP JUMPDEST DUP13 DUP2 MSTORE PUSH1 0x1 PUSH1 0x1 PUSH1 0xA0 SHL SUB DUP13 DUP2 AND PUSH1 0x20 DUP4 ADD MSTORE PUSH1 0x40 DUP3 ADD DUP13 SWAP1 MSTORE PUSH1 0x60 DUP3 ADD DUP12 SWAP1 MSTORE PUSH1 0x80 DUP3 ADD DUP11 SWAP1 MSTORE PUSH1 0xA0 DUP3 ADD DUP10 SWAP1 MSTORE PUSH1 0xC0 DUP3 ADD DUP9 SWAP1 MSTORE PUSH1 0xE0 DUP3 ADD DUP8 SWAP1 MSTORE DUP6 AND PUSH2 0x100 DUP3 ADD MSTORE PUSH2 0x120 DUP2 ADD DUP5 SWAP1 MSTORE PUSH2 0x180 DUP2 ADD PUSH2 0x27A3 PUSH2 0x140 DUP4 ADD DUP6 PUSH2 0x2615 JUMP JUMPDEST DUP3 ISZERO ISZERO PUSH2 0x160 DUP4 ADD MSTORE SWAP14 SWAP13 POP POP POP POP POP POP POP POP POP POP POP POP POP JUMP JUMPDEST PUSH1 0x20 DUP1 DUP3 MSTORE PUSH1 0x1B SWAP1 DUP3 ADD MSTORE PUSH32 0x557365723A2043616C6C6572206E6F7420726567697374657265640000000000 PUSH1 0x40 DUP3 ADD MSTORE PUSH1 0x60 ADD SWAP1 JUMP JUMPDEST PUSH4 0x4E487B71 PUSH1 0xE0 SHL PUSH1 0x0 MSTORE PUSH1 0x11 PUSH1 0x4 MSTORE PUSH1 0x24 PUSH1 0x0 REVERT JUMPDEST PUSH1 0x0 PUSH1 0x1 DUP3 ADD PUSH2 0x281C JUMPI PUSH2 0x281C PUSH2 0x27F4 JUMP JUMPDEST POP PUSH1 0x1 ADD SWAP1 JUMP JUMPDEST DUP1 DUP3 ADD DUP1 DUP3 GT ISZERO PUSH2 0x2836 JUMPI PUSH2 0x2836 PUSH2 0x27F4 JUMP JUMPDEST SWAP3 SWAP2 POP POP JUMP JUMPDEST PUSH4 0x4E487B71 PUSH1 0xE0 SHL PUSH1 0x0 MSTORE PUSH1 0x32 PUSH1 0x4 MSTORE PUSH1 0x24 PUSH1 0x0 REVERT JUMPDEST DUP2 DUP2 SUB DUP2 DUP2 GT ISZERO PUSH2 0x2836 JUMPI PUSH2 0x2836 PUSH2 0x27F4 JUMP JUMPDEST PUSH4 0x4E487B71 PUSH1 0xE0 SHL PUSH1 0x0 MSTORE PUSH1 0x31 PUSH1 0x4 MSTORE PUSH1 0x24 PUSH1 0x0 REVERT JUMPDEST DUP1 DUP3 MUL DUP2 ISZERO DUP3 DUP3 DIV DUP5 EQ OR PUSH2 0x2836 JUMPI PUSH2 0x2836 PUSH2 0x27F4 JUMP JUMPDEST PUSH1 0x0 DUP3 PUSH2 0x28AF JUMPI PUSH4 0x4E487B71 PUSH1 0xE0 SHL PUSH1 0x0 MSTORE PUSH1 0x12 PUSH1 0x4 MSTORE PUSH1 0x24 PUSH1 0x0 REVERT JUMPDEST POP DIV SWAP1 JUMP JUMPDEST PUSH1 0x0 DUP2 PUSH2 0x28C3 JUMPI PUSH2 0x28C3 PUSH2 0x27F4 JUMP JUMPDEST POP PUSH1 0x0 NOT ADD SWAP1 JUMP INVALID LOG2 PUSH5 0x6970667358 0x22 SLT KECCAK256 ADD 0xD1 0x29 0xC 0xE1 0xE1 ADDRESS 0xB3 0xBA DUP8 STOP PUSH18 0x9948BB758CD1E18A4DC511F7963096DD687A GT 0xD8 PUSH5 0x736F6C6343 STOP ADDMOD XOR STOP CALLER "},"methodIdentifiers":{"COLLATERAL_REQUIREMENT_BPS()":"5b76428f","DEFAULT_INTEREST_RATE()":"316f8639","ENDORSEMENT_TRUST_BONUS()":"61d054b7","INITIAL_TRUST_SCORE()":"a91a36e9","LOAN_DEFAULT_TRUST_PENALTY()":"c4096a6d","LOAN_DURATION()":"e02a4dfd","LOAN_REPAID_TRUST_BONUS()":"7540774f","MAX_TRUST_SCORE()":"74c8d377","MIN_TRUST_SCORE_FOR_LOAN()":"1de2447d","depositCapital()":"80d8c98f","endorseUser(address)":"39a811ee","endorsements(uint256)":"34d9aee2","getActiveLoansForUser(address)":"06ad4964","getEndorsement(uint256)":"8efb1040","getLendingPoolStats()":"9ea13ddf","getLoan(uint256)":"504006ca","getUser(address)":"6f77926b","isUserRegistered(address)":"163f7522","liquidateDefaultedLoan(uint256)":"84aa8b5a","loans(uint256)":"e1ec3c68","registerUser()":"4d3820eb","repayLoan(uint256)":"ab7b1c89","requestLoan(uint256)":"8d5d3429","totalLiquidity()":"15770f92","userActiveLoans(address,uint256)":"9dd27538","userDeposits(address)":"0ba36dcd","userEndorsementIds(address,address)":"8c6a10d2","users(address)":"a87430ba","withdrawCapital(uint256)":"d95b0a12","withdrawEndorsementStake(address)":"b3792479"}}}}}