{
  "_format": "hh-sol-artifact-1",
  "contractName": "TrustChain",
  "sourceName": "contracts/TrustChain.sol",
  "abi": [
    {
      "inputs": [],
      "stateMutability": "nonpayable",
      "type": "constructor"
    },
    {
      "anonymous": false,
      "inputs": [
        {
          "indexed": true,
          "internalType": "address",
          "name": "depositor",
          "type": "address"
        },
        {
          "indexed": false,
          "internalType": "uint256",
          "name": "amount",
          "type": "uint256"
        }
      ],
      "name": "CapitalDeposited",
      "type": "event"
    },
    {
      "anonymous": false,
      "inputs": [
        {
          "indexed": true,
          "internalType": "address",
          "name": "depositor",
          "type": "address"
        },
        {
          "indexed": false,
          "internalType": "uint256",
          "name": "amount",
          "type": "uint256"
        }
      ],
      "name": "CapitalWithdrawn",
      "type": "event"
    },
    {
      "anonymous": false,
      "inputs": [
        {
          "indexed": true,
          "internalType": "uint256",
          "name": "endorsementId",
          "type": "uint256"
        },
        {
          "indexed": true,
          "internalType": "address",
          "name": "endorser",
          "type": "address"
        },
        {
          "indexed": true,
          "internalType": "address",
          "name": "endorsee",
          "type": "address"
        },
        {
          "indexed": false,
          "internalType": "uint256",
          "name": "amountWithdrawn",
          "type": "uint256"
        }
      ],
      "name": "EndorsementStakeWithdrawn",
      "type": "event"
    },
    {
      "anonymous": false,
      "inputs": [
        {
          "indexed": true,
          "internalType": "uint256",
          "name": "loanId",
          "type": "uint256"
        },
        {
          "indexed": true,
          "internalType": "address",
          "name": "lender",
          "type": "address"
        },
        {
          "indexed": false,
          "internalType": "uint256",
          "name": "repaymentAmount",
          "type": "uint256"
        },
        {
          "indexed": false,
          "internalType": "uint256",
          "name": "repaymentDeadline",
          "type": "uint256"
        }
      ],
      "name": "LoanApproved",
      "type": "event"
    },
    {
      "anonymous": false,
      "inputs": [
        {
          "indexed": true,
          "internalType": "uint256",
          "name": "loanId",
          "type": "uint256"
        }
      ],
      "name": "LoanDefaulted",
      "type": "event"
    },
    {
      "anonymous": false,
      "inputs": [
        {
          "indexed": true,
          "internalType": "uint256",
          "name": "loanId",
          "type": "uint256"
        }
      ],
      "name": "LoanRepaid",
      "type": "event"
    },
    {
      "anonymous": false,
      "inputs": [
        {
          "indexed": true,
          "internalType": "uint256",
          "name": "loanId",
          "type": "uint256"
        },
        {
          "indexed": true,
          "internalType": "address",
          "name": "borrower",
          "type": "address"
        },
        {
          "indexed": false,
          "internalType": "uint256",
          "name": "amount",
          "type": "uint256"
        }
      ],
      "name": "LoanRequested",
      "type": "event"
    },
    {
      "anonymous": false,
      "inputs": [
        {
          "indexed": true,
          "internalType": "address",
          "name": "userAddr",
          "type": "address"
        },
        {
          "indexed": false,
          "internalType": "uint256",
          "name": "newTrustScore",
          "type": "uint256"
        }
      ],
      "name": "TrustScoreUpdated",
      "type": "event"
    },
    {
      "anonymous": false,
      "inputs": [
        {
          "indexed": true,
          "internalType": "uint256",
          "name": "endorsementId",
          "type": "uint256"
        },
        {
          "indexed": true,
          "internalType": "address",
          "name": "endorser",
          "type": "address"
        },
        {
          "indexed": true,
          "internalType": "address",
          "name": "endorsee",
          "type": "address"
        },
        {
          "indexed": false,
          "internalType": "uint256",
          "name": "amountStaked",
          "type": "uint256"
        }
      ],
      "name": "UserEndorsed",
      "type": "event"
    },
    {
      "anonymous": false,
      "inputs": [
        {
          "indexed": true,
          "internalType": "address",
          "name": "userAddr",
          "type": "address"
        }
      ],
      "name": "UserRegistered",
      "type": "event"
    },
    {
      "inputs": [],
      "name": "DEFAULT_INTEREST_RATE",
      "outputs": [
        {
          "internalType": "uint256",
          "name": "",
          "type": "uint256"
        }
      ],
      "stateMutability": "view",
      "type": "function"
    },
    {
      "inputs": [],
      "name": "ENDORSEMENT_TRUST_BONUS",
      "outputs": [
        {
          "internalType": "uint256",
          "name": "",
          "type": "uint256"
        }
      ],
      "stateMutability": "view",
      "type": "function"
    },
    {
      "inputs": [],
      "name": "INITIAL_TRUST_SCORE",
      "outputs": [
        {
          "internalType": "uint256",
          "name": "",
          "type": "uint256"
        }
      ],
      "stateMutability": "view",
      "type": "function"
    },
    {
      "inputs": [],
      "name": "LOAN_DEFAULT_TRUST_PENALTY",
      "outputs": [
        {
          "internalType": "uint256",
          "name": "",
          "type": "uint256"
        }
      ],
      "stateMutability": "view",
      "type": "function"
    },
    {
      "inputs": [],
      "name": "LOAN_DURATION",
      "outputs": [
        {
          "internalType": "uint256",
          "name": "",
          "type": "uint256"
        }
      ],
      "stateMutability": "view",
      "type": "function"
    },
    {
      "inputs": [],
      "name": "LOAN_REPAID_TRUST_BONUS",
      "outputs": [
        {
          "internalType": "uint256",
          "name": "",
          "type": "uint256"
        }
      ],
      "stateMutability": "view",
      "type": "function"
    },
    {
      "inputs": [],
      "name": "MIN_TRUST_SCORE_FOR_LOAN",
      "outputs": [
        {
          "internalType": "uint256",
          "name": "",
          "type": "uint256"
        }
      ],
      "stateMutability": "view",
      "type": "function"
    },
    {
      "inputs": [],
      "name": "depositCapital",
      "outputs": [],
      "stateMutability": "payable",
      "type": "function"
    },
    {
      "inputs": [
        {
          "internalType": "address",
          "name": "_endorsee",
          "type": "address"
        }
      ],
      "name": "endorseUser",
      "outputs": [],
      "stateMutability": "payable",
      "type": "function"
    },
    {
      "inputs": [
        {
          "internalType": "uint256",
          "name": "",
          "type": "uint256"
        }
      ],
      "name": "endorsements",
      "outputs": [
        {
          "internalType": "address",
          "name": "endorser",
          "type": "address"
        },
        {
          "internalType": "address",
          "name": "endorsee",
          "type": "address"
        },
        {
          "internalType": "uint256",
          "name": "amountStaked",
          "type": "uint256"
        },
        {
          "internalType": "bool",
          "name": "active",
          "type": "bool"
        }
      ],
      "stateMutability": "view",
      "type": "function"
    },
    {
      "inputs": [
        {
          "internalType": "address",
          "name": "_userAddr",
          "type": "address"
        }
      ],
      "name": "getActiveLoansForUser",
      "outputs": [
        {
          "internalType": "uint256[]",
          "name": "",
          "type": "uint256[]"
        }
      ],
      "stateMutability": "view",
      "type": "function"
    },
    {
      "inputs": [
        {
          "internalType": "uint256",
          "name": "_endorsementId",
          "type": "uint256"
        }
      ],
      "name": "getEndorsement",
      "outputs": [
        {
          "components": [
            {
              "internalType": "address",
              "name": "endorser",
              "type": "address"
            },
            {
              "internalType": "address",
              "name": "endorsee",
              "type": "address"
            },
            {
              "internalType": "uint256",
              "name": "amountStaked",
              "type": "uint256"
            },
            {
              "internalType": "bool",
              "name": "active",
              "type": "bool"
            }
          ],
          "internalType": "struct TrustChain.Endorsement",
          "name": "",
          "type": "tuple"
        }
      ],
      "stateMutability": "view",
      "type": "function"
    },
    {
      "inputs": [],
      "name": "getLendingPoolStats",
      "outputs": [
        {
          "internalType": "uint256",
          "name": "_totalLiquidity",
          "type": "uint256"
        },
        {
          "internalType": "uint256",
          "name": "_numberOfLoans",
          "type": "uint256"
        }
      ],
      "stateMutability": "view",
      "type": "function"
    },
    {
      "inputs": [
        {
          "internalType": "uint256",
          "name": "_loanId",
          "type": "uint256"
        }
      ],
      "name": "getLoan",
      "outputs": [
        {
          "components": [
            {
              "internalType": "uint256",
              "name": "loanId",
              "type": "uint256"
            },
            {
              "internalType": "address",
              "name": "borrower",
              "type": "address"
            },
            {
              "internalType": "uint256",
              "name": "amount",
              "type": "uint256"
            },
            {
              "internalType": "uint256",
              "name": "interestRate",
              "type": "uint256"
            },
            {
              "internalType": "uint256",
              "name": "repaymentAmount",
              "type": "uint256"
            },
            {
              "internalType": "uint256",
              "name": "requestedTimestamp",
              "type": "uint256"
            },
            {
              "internalType": "uint256",
              "name": "approvalTimestamp",
              "type": "uint256"
            },
            {
              "internalType": "uint256",
              "name": "repaymentDeadline",
              "type": "uint256"
            },
            {
              "internalType": "address",
              "name": "lender",
              "type": "address"
            },
            {
              "internalType": "enum TrustChain.LoanStatus",
              "name": "status",
              "type": "uint8"
            },
            {
              "internalType": "bool",
              "name": "exists",
              "type": "bool"
            }
          ],
          "internalType": "struct TrustChain.Loan",
          "name": "",
          "type": "tuple"
        }
      ],
      "stateMutability": "view",
      "type": "function"
    },
    {
      "inputs": [
        {
          "internalType": "address",
          "name": "_userAddr",
          "type": "address"
        }
      ],
      "name": "getUser",
      "outputs": [
        {
          "components": [
            {
              "internalType": "address",
              "name": "userAddress",
              "type": "address"
            },
            {
              "internalType": "uint256",
              "name": "trustScore",
              "type": "uint256"
            },
            {
              "internalType": "uint256",
              "name": "endorsementsReceivedCount",
              "type": "uint256"
            },
            {
              "internalType": "uint256",
              "name": "totalStakedOnUser",
              "type": "uint256"
            },
            {
              "internalType": "uint256",
              "name": "loansCompleted",
              "type": "uint256"
            },
            {
              "internalType": "uint256",
              "name": "loansDefaulted",
              "type": "uint256"
            },
            {
              "internalType": "bool",
              "name": "isRegistered",
              "type": "bool"
            }
          ],
          "internalType": "struct TrustChain.User",
          "name": "",
          "type": "tuple"
        }
      ],
      "stateMutability": "view",
      "type": "function"
    },
    {
      "inputs": [
        {
          "internalType": "address",
          "name": "",
          "type": "address"
        }
      ],
      "name": "isUserRegistered",
      "outputs": [
        {
          "internalType": "bool",
          "name": "",
          "type": "bool"
        }
      ],
      "stateMutability": "view",
      "type": "function"
    },
    {
      "inputs": [
        {
          "internalType": "uint256",
          "name": "_loanId",
          "type": "uint256"
        }
      ],
      "name": "liquidateDefaultedLoan",
      "outputs": [],
      "stateMutability": "nonpayable",
      "type": "function"
    },
    {
      "inputs": [
        {
          "internalType": "uint256",
          "name": "",
          "type": "uint256"
        }
      ],
      "name": "loans",
      "outputs": [
        {
          "internalType": "uint256",
          "name": "loanId",
          "type": "uint256"
        },
        {
          "internalType": "address",
          "name": "borrower",
          "type": "address"
        },
        {
          "internalType": "uint256",
          "name": "amount",
          "type": "uint256"
        },
        {
          "internalType": "uint256",
          "name": "interestRate",
          "type": "uint256"
        },
        {
          "internalType": "uint256",
          "name": "repaymentAmount",
          "type": "uint256"
        },
        {
          "internalType": "uint256",
          "name": "requestedTimestamp",
          "type": "uint256"
        },
        {
          "internalType": "uint256",
          "name": "approvalTimestamp",
          "type": "uint256"
        },
        {
          "internalType": "uint256",
          "name": "repaymentDeadline",
          "type": "uint256"
        },
        {
          "internalType": "address",
          "name": "lender",
          "type": "address"
        },
        {
          "internalType": "enum TrustChain.LoanStatus",
          "name": "status",
          "type": "uint8"
        },
        {
          "internalType": "bool",
          "name": "exists",
          "type": "bool"
        }
      ],
      "stateMutability": "view",
      "type": "function"
    },
    {
      "inputs": [],
      "name": "registerUser",
      "outputs": [],
      "stateMutability": "nonpayable",
      "type": "function"
    },
    {
      "inputs": [
        {
          "internalType": "uint256",
          "name": "_loanId",
          "type": "uint256"
        }
      ],
      "name": "repayLoan",
      "outputs": [],
      "stateMutability": "payable",
      "type": "function"
    },
    {
      "inputs": [
        {
          "internalType": "uint256",
          "name": "_amount",
          "type": "uint256"
        }
      ],
      "name": "requestLoan",
      "outputs": [],
      "stateMutability": "nonpayable",
      "type": "function"
    },
    {
      "inputs": [],
      "name": "totalLiquidity",
      "outputs": [
        {
          "internalType": "uint256",
          "name": "",
          "type": "uint256"
        }
      ],
      "stateMutability": "view",
      "type": "function"
    },
    {
      "inputs": [
        {
          "internalType": "address",
          "name": "",
          "type": "address"
        },
        {
          "internalType": "uint256",
          "name": "",
          "type": "uint256"
        }
      ],
      "name": "userActiveLoans",
      "outputs": [
        {
          "internalType": "uint256",
          "name": "",
          "type": "uint256"
        }
      ],
      "stateMutability": "view",
      "type": "function"
    },
    {
      "inputs": [
        {
          "internalType": "address",
          "name": "",
          "type": "address"
        }
      ],
      "name": "userDeposits",
      "outputs": [
        {
          "internalType": "uint256",
          "name": "",
          "type": "uint256"
        }
      ],
      "stateMutability": "view",
      "type": "function"
    },
    {
      "inputs": [
        {
          "internalType": "address",
          "name": "",
          "type": "address"
        },
        {
          "internalType": "address",
          "name": "",
          "type": "address"
        }
      ],
      "name": "userEndorsementIds",
      "outputs": [
        {
          "internalType": "uint256",
          "name": "",
          "type": "uint256"
        }
      ],
      "stateMutability": "view",
      "type": "function"
    },
    {
      "inputs": [
        {
          "internalType": "address",
          "name": "",
          "type": "address"
        }
      ],
      "name": "users",
      "outputs": [
        {
          "internalType": "address",
          "name": "userAddress",
          "type": "address"
        },
        {
          "internalType": "uint256",
          "name": "trustScore",
          "type": "uint256"
        },
        {
          "internalType": "uint256",
          "name": "endorsementsReceivedCount",
          "type": "uint256"
        },
        {
          "internalType": "uint256",
          "name": "totalStakedOnUser",
          "type": "uint256"
        },
        {
          "internalType": "uint256",
          "name": "loansCompleted",
          "type": "uint256"
        },
        {
          "internalType": "uint256",
          "name": "loansDefaulted",
          "type": "uint256"
        },
        {
          "internalType": "bool",
          "name": "isRegistered",
          "type": "bool"
        }
      ],
      "stateMutability": "view",
      "type": "function"
    },
    {
      "inputs": [
        {
          "internalType": "uint256",
          "name": "_amount",
          "type": "uint256"
        }
      ],
      "name": "withdrawCapital",
      "outputs": [],
      "stateMutability": "nonpayable",
      "type": "function"
    },
    {
      "inputs": [
        {
          "internalType": "address",
          "name": "_endorsee",
          "type": "address"
        }
      ],
      "name": "withdrawEndorsementStake",
      "outputs": [],
      "stateMutability": "nonpayable",
      "type": "function"
    }
  ],
  "bytecode": "0x608060405234801561001057600080fd5b5060016000556124a6806100256000396000f3fe6080604052600436106101b75760003560e01c806384aa8b5a116100ec578063a91a36e91161008a578063c4096a6d11610064578063c4096a6d14610648578063d95b0a121461065d578063e02a4dfd1461067d578063e1ec3c681461069457600080fd5b8063a91a36e9146105ff578063ab7b1c8914610615578063b37924791461062857600080fd5b80638efb1040116100c65780638efb1040146104ab5780639dd275381461050e5780639ea13ddf1461052e578063a87430ba1461055857600080fd5b806384aa8b5a146104335780638c6a10d2146104535780638d5d34291461048b57600080fd5b806339a811ee1161015957806361d054b71161013357806361d054b7146103855780636f77926b1461039a5780637540774f1461041657806380d8c98f1461042b57600080fd5b806339a811ee1461032e5780634d3820eb14610343578063504006ca1461035857600080fd5b8063163f752211610195578063163f7522146102435780631de2447d14610283578063316f86391461029957806334d9aee2146102af57600080fd5b806306ad4964146101bc5780630ba36dcd146101f257806315770f921461022d575b600080fd5b3480156101c857600080fd5b506101dc6101d7366004612116565b610733565b6040516101e99190612138565b60405180910390f35b3480156101fe57600080fd5b5061021f61020d366004612116565b600a6020526000908152604090205481565b6040519081526020016101e9565b34801561023957600080fd5b5061021f60095481565b34801561024f57600080fd5b5061027361025e366004612116565b60046020526000908152604090205460ff1681565b60405190151581526020016101e9565b34801561028f57600080fd5b5061021f61019081565b3480156102a557600080fd5b5061021f6102bc81565b3480156102bb57600080fd5b506103016102ca36600461217c565b60066020526000908152604090208054600182015460028301546003909301546001600160a01b0392831693919092169160ff1684565b604080516001600160a01b03958616815294909316602085015291830152151560608201526080016101e9565b61034161033c366004612116565b61079f565b005b34801561034f57600080fd5b50610341610ad8565b34801561036457600080fd5b5061037861037336600461217c565b610c17565b6040516101e991906121cd565b34801561039157600080fd5b5061021f600a81565b3480156103a657600080fd5b506103ba6103b5366004612116565b610d2c565b6040516101e9919081516001600160a01b031681526020808301519082015260408083015190820152606080830151908201526080808301519082015260a0828101519082015260c09182015115159181019190915260e00190565b34801561042257600080fd5b5061021f601481565b610341610e21565b34801561043f57600080fd5b5061034161044e36600461217c565b610f26565b34801561045f57600080fd5b5061021f61046e366004612271565b600560209081526000928352604080842090915290825290205481565b34801561049757600080fd5b506103416104a636600461217c565b611197565b3480156104b757600080fd5b506104cb6104c636600461217c565b611476565b6040516101e9919081516001600160a01b039081168252602080840151909116908201526040808301519082015260609182015115159181019190915260800190565b34801561051a57600080fd5b5061021f6105293660046122a4565b611547565b34801561053a57600080fd5b50610543611578565b604080519283526020830191909152016101e9565b34801561056457600080fd5b506105be610573366004612116565b600360208190526000918252604090912080546001820154600283015493830154600484015460058501546006909501546001600160a01b0390941695929492939192909160ff1687565b604080516001600160a01b0390981688526020880196909652948601939093526060850191909152608084015260a0830152151560c082015260e0016101e9565b34801561060b57600080fd5b5061021f6101f481565b61034161062336600461217c565b61158f565b34801561063457600080fd5b50610341610643366004612116565b611835565b34801561065457600080fd5b5061021f606481565b34801561066957600080fd5b5061034161067836600461217c565b611bfb565b34801561068957600080fd5b5061021f62278d0081565b3480156106a057600080fd5b5061071c6106af36600461217c565b600760208190526000918252604090912080546001820154600283015460038401546004850154600586015460068701549787015460089097015495976001600160a01b03958616979496939592949193909281169060ff600160a01b8204811691600160a81b9004168b565b6040516101e99b9a999897969594939291906122ce565b6001600160a01b03811660009081526008602090815260409182902080548351818402810184019094528084526060939283018282801561079357602002820191906000526020600020905b81548152602001906001019080831161077f575b50505050509050919050565b6107a7611de8565b3360009081526004602052604090205460ff166107df5760405162461bcd60e51b81526004016107d69061233f565b60405180910390fd5b6001600160a01b03811660009081526004602052604090205460ff166108475760405162461bcd60e51b815260206004820152601760248201527f456e646f72736565206e6f74207265676973746572656400000000000000000060448201526064016107d6565b336001600160a01b0382160361089f5760405162461bcd60e51b815260206004820152601760248201527f43616e6e6f7420656e646f72736520796f757273656c6600000000000000000060448201526064016107d6565b600034116108fb5760405162461bcd60e51b815260206004820152602360248201527f5374616b6520616d6f756e74206d75737420626520677265617465722074686160448201526206e20360ec1b60648201526084016107d6565b6001600160a01b03811660009081526005602090815260408083203384529091529020541561096c5760405162461bcd60e51b815260206004820152601a60248201527f416c726561647920656e646f727365642074686973207573657200000000000060448201526064016107d6565b61097a600280546001019055565b600061098560025490565b60408051608081018252338082526001600160a01b0386811660208085018281523486880190815260016060880181815260008b8152600686528a812099518a549089166001600160a01b0319918216178b559451928a0180549390981692909416919091179095555160028088019190915593516003968701805491151560ff1990921691909117905582815260058252868120948152938152858420879055908352929092529182209081018054939450909291610a4483612382565b919050555034816003016000828254610a5d919061239b565b90915550610a70905083600a6001611e41565b3460096000828254610a82919061239b565b90915550506040513481526001600160a01b03841690339084907f0d89b081a2c97eaccc807d2e4ff6a001248c8a6544bcc36156f62acb98f82c259060200160405180910390a45050610ad56001600055565b50565b3360009081526004602052604090205460ff1615610b385760405162461bcd60e51b815260206004820152601760248201527f5573657220616c7265616479207265676973746572656400000000000000000060448201526064016107d6565b6040805160e081018252338082526101f460208084019182526000848601818152606086018281526080870183815260a08801848152600160c08a0181815289875260038089528c88209b518c546001600160a01b03919091166001600160a01b0319909116178c5598518b830155945160028b0155925196890196909655516004808901919091559451600588015590516006909601805496151560ff1997881617905592909152848120805490941690911790925591517f54db7a5cb4735e1aac1f53db512d3390390bb6637bd30ad4bf9fc98667d9b9b99190a2565b610c1f61207d565b600082815260076020526040902060080154600160a81b900460ff16610c575760405162461bcd60e51b81526004016107d6906123b4565b6000828152600760208181526040928390208351610160810185528154815260018201546001600160a01b0390811693820193909352600282015494810194909452600381015460608501526004808201546080860152600582015460a0860152600682015460c08601529281015460e0850152600881015491821661010085015291610120840191600160a01b900460ff1690811115610cfa57610cfa612195565b6004811115610d0b57610d0b612195565b815260089190910154600160a81b900460ff16151560209091015292915050565b610d776040518060e0016040528060006001600160a01b0316815260200160008152602001600081526020016000815260200160008152602001600081526020016000151581525090565b6001600160a01b03821660009081526004602052604090205460ff16610daf5760405162461bcd60e51b81526004016107d69061233f565b506001600160a01b03908116600090815260036020818152604092839020835160e08101855281549095168552600181015491850191909152600281015492840192909252810154606083015260048101546080830152600581015460a08301526006015460ff16151560c082015290565b610e29611de8565b3360009081526004602052604090205460ff16610e585760405162461bcd60e51b81526004016107d69061233f565b60003411610ea85760405162461bcd60e51b815260206004820152601f60248201527f4465706f73697420616d6f756e74206d75737420626520706f7369746976650060448201526064016107d6565b336000908152600a602052604081208054349290610ec790849061239b565b925050819055503460096000828254610ee0919061239b565b909155505060405134815233907faa72ad912d8778453c6fbde6cd2557892fed031985b1c7e2ae57112118b9a3329060200160405180910390a2610f246001600055565b565b610f2e611de8565b60008181526007602052604090206008810154600160a81b900460ff16610f675760405162461bcd60e51b81526004016107d6906123b4565b60016008820154600160a01b900460ff166004811115610f8957610f89612195565b14610fe15760405162461bcd60e51b815260206004820152602260248201527f4c6f616e206e6f7420616374697665206f7220616c72656164792068616e646c604482015261195960f21b60648201526084016107d6565b806007015442116110345760405162461bcd60e51b815260206004820152601a60248201527f4c6f616e206e6f7420796574207061737420646561646c696e6500000000000060448201526064016107d6565b60088101805460ff60a01b1916600360a01b17905560018101546001600160a01b03166000908152600360205260408120600581018054919261107683612382565b90915550506001820154611096906001600160a01b031660646000611e41565b60018201546001600160a01b03166000908152600860205260408120905b815481101561115e57848282815481106110d0576110d06123e1565b90600052602060002001540361115657815482906110f0906001906123f7565b81548110611100576111006123e1565b906000526020600020015482828154811061111d5761111d6123e1565b90600052602060002001819055508180548061113b5761113b61240a565b6001900381819060005260206000200160009055905561115e565b6001016110b4565b5060405184907f0789b7097e8066538cfaa1132488b132e14ba5f0c938c8b7aaf8cf40356aab0b90600090a2505050610ad56001600055565b61119f611de8565b3360009081526004602052604090205460ff166111ce5760405162461bcd60e51b81526004016107d69061233f565b6000811161121e5760405162461bcd60e51b815260206004820152601c60248201527f4c6f616e20616d6f756e74206d75737420626520706f7369746976650000000060448201526064016107d6565b336000908152600360205260409020600181015461019011156112795760405162461bcd60e51b815260206004820152601360248201527254727573742073636f726520746f6f206c6f7760681b60448201526064016107d6565b611287600180546001019055565b600061129260015490565b905060006127106112a56102bc86612420565b6112af9190612437565b905060006112bd828661239b565b9050604051806101600160405280848152602001336001600160a01b031681526020018681526020016102bc8152602001828152602001428152602001600081526020016000815260200160006001600160a01b031681526020016000600481111561132b5761132b612195565b81526001602091820181905260008681526007808452604091829020855181559385015192840180546001600160a01b03199081166001600160a01b039586161790915591850151600285015560608501516003850155608085015160048086019190915560a0860151600586015560c0860151600686015560e08601519185019190915561010085015160088501805493841691909416908117845561012086015193926001600160a81b0319161790600160a01b9084908111156113f3576113f3612195565b0217905550610140919091015160089091018054911515600160a81b0260ff60a81b19909216919091179055604051858152339084907f97e04be2fd6414727fe9d0400464568f4384aa8b06264119565ca8f6cc2a4b7a9060200160405180910390a384600954106114685761146883611ef2565b50505050610ad56001600055565b60408051608081018252600080825260208201819052918101829052606081019190915260025482111580156114ac5750600082115b6114f15760405162461bcd60e51b8152602060048201526016602482015275125b9d985b1a5908195b991bdc9cd95b595b9d08125160521b60448201526064016107d6565b50600090815260066020908152604091829020825160808101845281546001600160a01b0390811682526001830154169281019290925260028101549282019290925260039091015460ff161515606082015290565b6008602052816000526040600020818154811061156357600080fd5b90600052602060002001600091509150505481565b60008060095461158760015490565b915091509091565b611597611de8565b60008181526007602052604090206008810154600160a81b900460ff166115d05760405162461bcd60e51b81526004016107d6906123b4565b60018101546001600160a01b0316331461161c5760405162461bcd60e51b815260206004820152600d60248201526c2737ba103cb7bab9103637b0b760991b60448201526064016107d6565b60016008820154600160a01b900460ff16600481111561163e5761163e612195565b1461168b5760405162461bcd60e51b815260206004820152601a60248201527f4c6f616e206e6f7420696e20617070726f76656420737461746500000000000060448201526064016107d6565b806004015434146116de5760405162461bcd60e51b815260206004820152601a60248201527f496e636f72726563742072657061796d656e7420616d6f756e7400000000000060448201526064016107d6565b60088101805460ff60a01b1916600160a11b17905560048101546009805460009061170a90849061239b565b9091555050336000908152600360205260408120600481018054919261172f83612382565b91905055506117413360146001611e41565b336000908152600860205260408120905b81548110156117fc578482828154811061176e5761176e6123e1565b9060005260206000200154036117f4578154829061178e906001906123f7565b8154811061179e5761179e6123e1565b90600052602060002001548282815481106117bb576117bb6123e1565b9060005260206000200181905550818054806117d9576117d961240a565b600190038181906000526020600020016000905590556117fc565b600101611752565b5060405184907f9a7851747cd7ffb3fe0a32caf3da48b31f27cebe131267051640f8b72fc4718690600090a2505050610ad56001600055565b61183d611de8565b3360009081526004602052604090205460ff1661186c5760405162461bcd60e51b81526004016107d69061233f565b6001600160a01b0381166000908152600560209081526040808320338452909152812054908190036118ec5760405162461bcd60e51b815260206004820152602360248201527f4e6f2061637469766520656e646f7273656d656e7420666f722074686973207560448201526239b2b960e91b60648201526084016107d6565b600081815260066020526040902080546001600160a01b0316331461194a5760405162461bcd60e51b8152602060048201526014602482015273139bdd081e5bdd5c88195b991bdc9cd95b595b9d60621b60448201526064016107d6565b600381015460ff166119975760405162461bcd60e51b8152602060048201526016602482015275456e646f7273656d656e74206e6f742061637469766560501b60448201526064016107d6565b6001600160a01b0383166000908152600860205260408120815b8154811015611a23576001600760008484815481106119d2576119d26123e1565b9060005260206000200154815260200190815260200160002060080160149054906101000a900460ff166004811115611a0d57611a0d612195565b03611a1b5760019250611a23565b6001016119b1565b508115611a8f5760405162461bcd60e51b815260206004820152603460248201527f456e646f727365652068617320616374697665206c6f616e732c2063616e6e6f6044820152731d081dda5d1a191c985dc81cdd185ad9481e595d60621b60648201526084016107d6565b6002830154600954811115611afc5760405162461bcd60e51b815260206004820152602d60248201527f496e73756666696369656e7420706f6f6c206c697175696469747920746f207760448201526c69746864726177207374616b6560981b60648201526084016107d6565b6003808501805460ff19169055600060028087018290556001600160a01b038916825260209290925260408120918201805491611b3883612459565b919050555081816003016000828254611b5191906123f7565b925050819055508160096000828254611b6a91906123f7565b9091555050604051339083156108fc029084906000818181858888f19350505050158015611b9c573d6000803e3d6000fd5b50866001600160a01b0316336001600160a01b0316877ff7b925416f6a43620836db6972ab3caa00e68e8838fe5c093f732f0a747cf49985604051611be391815260200190565b60405180910390a4505050505050610ad56001600055565b611c03611de8565b3360009081526004602052604090205460ff16611c325760405162461bcd60e51b81526004016107d69061233f565b60008111611c8d5760405162461bcd60e51b815260206004820152602260248201527f5769746864726177616c20616d6f756e74206d75737420626520706f73697469604482015261766560f01b60648201526084016107d6565b336000908152600a6020526040902054811115611cec5760405162461bcd60e51b815260206004820152601e60248201527f496e73756666696369656e74206465706f7369746564206361706974616c000060448201526064016107d6565b806009541015611d3e5760405162461bcd60e51b815260206004820152601b60248201527f496e73756666696369656e7420706f6f6c206c6971756964697479000000000060448201526064016107d6565b336000908152600a602052604081208054839290611d5d9084906123f7565b925050819055508060096000828254611d7691906123f7565b9091555050604051339082156108fc029083906000818181858888f19350505050158015611da8573d6000803e3d6000fd5b5060405181815233907ffd282af50c2a0af33f26b6abcc27c8bae5fc57dc3f7ce9b71612b4cd6db59ca09060200160405180910390a2610ad56001600055565b600260005403611e3a5760405162461bcd60e51b815260206004820152601f60248201527f5265656e7472616e637947756172643a207265656e7472616e742063616c6c0060448201526064016107d6565b6002600055565b6001600160a01b03831660009081526003602052604090208115611e7e5782816001016000828254611e73919061239b565b90915550611ea59050565b82816001015410611e9d5782816001016000828254611e7391906123f7565b600060018201555b836001600160a01b03167f16bf5e9c27e8fb3837dca08521258eaf9f8e21bb809d3dd7a1a4a00093c99a448260010154604051611ee491815260200190565b60405180910390a250505050565b600081815260076020526040902060028101546009541015611f685760405162461bcd60e51b815260206004820152602960248201527f496e73756666696369656e7420706f6f6c206c697175696469747920666f72206044820152683a3434b9903637b0b760b91b60648201526084016107d6565b600881018054306001600160a81b031990911617600160a01b1790554260068201819055611f9a9062278d009061239b565b6007820155600281015460098054600090611fb69084906123f7565b9091555050600180820180546001600160a01b03908116600090815260086020908152604080832080549687018155835290822090940186905591546002850154935191169280156108fc0292909190818181858888f19350505050158015612023573d6000803e3d6000fd5b50306001600160a01b0316827fb2c6de76341d4f1188da5458fd8729cbc0e9278f99e8992f40f36900bcef78cb83600401548460070154604051612071929190918252602082015260400190565b60405180910390a35050565b6040518061016001604052806000815260200160006001600160a01b0316815260200160008152602001600081526020016000815260200160008152602001600081526020016000815260200160006001600160a01b03168152602001600060048111156120ed576120ed612195565b8152600060209091015290565b80356001600160a01b038116811461211157600080fd5b919050565b60006020828403121561212857600080fd5b612131826120fa565b9392505050565b6020808252825182820181905260009190848201906040850190845b8181101561217057835183529284019291840191600101612154565b50909695505050505050565b60006020828403121561218e57600080fd5b5035919050565b634e487b7160e01b600052602160045260246000fd5b600581106121c957634e487b7160e01b600052602160045260246000fd5b9052565b815181526020808301516101608301916121f1908401826001600160a01b03169052565b5060408301516040830152606083015160608301526080830151608083015260a083015160a083015260c083015160c083015260e083015160e083015261010080840151612249828501826001600160a01b03169052565b50506101208084015161225e828501826121ab565b5050610140928301511515919092015290565b6000806040838503121561228457600080fd5b61228d836120fa565b915061229b602084016120fa565b90509250929050565b600080604083850312156122b757600080fd5b6122c0836120fa565b946020939093013593505050565b8b81526001600160a01b038b81166020830152604082018b9052606082018a90526080820189905260a0820188905260c0820187905260e08201869052841661010082015261016081016123266101208301856121ab565b8215156101408301529c9b505050505050505050505050565b602080825260139082015272155cd95c881b9bdd081c9959da5cdd195c9959606a1b604082015260600190565b634e487b7160e01b600052601160045260246000fd5b6000600182016123945761239461236c565b5060010190565b808201808211156123ae576123ae61236c565b92915050565b602080825260139082015272131bd85b88191bd95cc81b9bdd08195e1a5cdd606a1b604082015260600190565b634e487b7160e01b600052603260045260246000fd5b818103818111156123ae576123ae61236c565b634e487b7160e01b600052603160045260246000fd5b80820281158282048414176123ae576123ae61236c565b60008261245457634e487b7160e01b600052601260045260246000fd5b500490565b6000816124685761246861236c565b50600019019056fea2646970667358221220a170e37a26e92f206d4f987ce72a415563f622ba04e17160573dcfebcb4e2c2764736f6c63430008180033",
  "linkReferences": {},
  "deployedLinkReferences": {}
}