{
  "_format": "hh-sol-artifact-1",
  "contractName": "TrustChain",
  "sourceName": "contracts/TrustChain.sol",
  "abi": [
    {
      "inputs": [],
      "stateMutability": "nonpayable",
      "type": "constructor"
    },
    {
      "anonymous": false,
      "inputs": [
        {
          "indexed": true,
          "internalType": "address",
          "name": "depositor",
          "type": "address"
        },
        {
          "indexed": false,
          "internalType": "uint256",
          "name": "amount",
          "type": "uint256"
        }
      ],
      "name": "CapitalDeposited",
      "type": "event"
    },
    {
      "anonymous": false,
      "inputs": [
        {
          "indexed": true,
          "internalType": "address",
          "name": "depositor",
          "type": "address"
        },
        {
          "indexed": false,
          "internalType": "uint256",
          "name": "amount",
          "type": "uint256"
        }
      ],
      "name": "CapitalWithdrawn",
      "type": "event"
    },
    {
      "anonymous": false,
      "inputs": [
        {
          "indexed": true,
          "internalType": "uint256",
          "name": "endorsementId",
          "type": "uint256"
        },
        {
          "indexed": true,
          "internalType": "address",
          "name": "endorser",
          "type": "address"
        },
        {
          "indexed": true,
          "internalType": "address",
          "name": "endorsee",
          "type": "address"
        },
        {
          "indexed": false,
          "internalType": "uint256",
          "name": "amountWithdrawn",
          "type": "uint256"
        }
      ],
      "name": "EndorsementStakeWithdrawn",
      "type": "event"
    },
    {
      "anonymous": false,
      "inputs": [
        {
          "indexed": true,
          "internalType": "uint256",
          "name": "loanId",
          "type": "uint256"
        },
        {
          "indexed": true,
          "internalType": "address",
          "name": "lender",
          "type": "address"
        },
        {
          "indexed": false,
          "internalType": "uint256",
          "name": "repaymentAmount",
          "type": "uint256"
        },
        {
          "indexed": false,
          "internalType": "uint256",
          "name": "repaymentDeadline",
          "type": "uint256"
        }
      ],
      "name": "LoanApproved",
      "type": "event"
    },
    {
      "anonymous": false,
      "inputs": [
        {
          "indexed": true,
          "internalType": "uint256",
          "name": "loanId",
          "type": "uint256"
        }
      ],
      "name": "LoanDefaulted",
      "type": "event"
    },
    {
      "anonymous": false,
      "inputs": [
        {
          "indexed": true,
          "internalType": "uint256",
          "name": "loanId",
          "type": "uint256"
        }
      ],
      "name": "LoanRepaid",
      "type": "event"
    },
    {
      "anonymous": false,
      "inputs": [
        {
          "indexed": true,
          "internalType": "uint256",
          "name": "loanId",
          "type": "uint256"
        },
        {
          "indexed": true,
          "internalType": "address",
          "name": "borrower",
          "type": "address"
        },
        {
          "indexed": false,
          "internalType": "uint256",
          "name": "amount",
          "type": "uint256"
        },
        {
          "indexed": false,
          "internalType": "uint256",
          "name": "collateralAmount",
          "type": "uint256"
        }
      ],
      "name": "LoanRequested",
      "type": "event"
    },
    {
      "anonymous": false,
      "inputs": [
        {
          "indexed": true,
          "internalType": "address",
          "name": "userAddr",
          "type": "address"
        },
        {
          "indexed": false,
          "internalType": "uint256",
          "name": "newTrustScore",
          "type": "uint256"
        }
      ],
      "name": "TrustScoreUpdated",
      "type": "event"
    },
    {
      "anonymous": false,
      "inputs": [
        {
          "indexed": true,
          "internalType": "uint256",
          "name": "endorsementId",
          "type": "uint256"
        },
        {
          "indexed": true,
          "internalType": "address",
          "name": "endorser",
          "type": "address"
        },
        {
          "indexed": true,
          "internalType": "address",
          "name": "endorsee",
          "type": "address"
        },
        {
          "indexed": false,
          "internalType": "uint256",
          "name": "amountStaked",
          "type": "uint256"
        }
      ],
      "name": "UserEndorsed",
      "type": "event"
    },
    {
      "anonymous": false,
      "inputs": [
        {
          "indexed": true,
          "internalType": "address",
          "name": "userAddr",
          "type": "address"
        }
      ],
      "name": "UserRegistered",
      "type": "event"
    },
    {
      "inputs": [],
      "name": "COLLATERAL_REQUIREMENT_BPS",
      "outputs": [
        {
          "internalType": "uint256",
          "name": "",
          "type": "uint256"
        }
      ],
      "stateMutability": "view",
      "type": "function"
    },
    {
      "inputs": [],
      "name": "DEFAULT_INTEREST_RATE",
      "outputs": [
        {
          "internalType": "uint256",
          "name": "",
          "type": "uint256"
        }
      ],
      "stateMutability": "view",
      "type": "function"
    },
    {
      "inputs": [],
      "name": "ENDORSEMENT_TRUST_BONUS",
      "outputs": [
        {
          "internalType": "uint256",
          "name": "",
          "type": "uint256"
        }
      ],
      "stateMutability": "view",
      "type": "function"
    },
    {
      "inputs": [],
      "name": "INITIAL_TRUST_SCORE",
      "outputs": [
        {
          "internalType": "uint256",
          "name": "",
          "type": "uint256"
        }
      ],
      "stateMutability": "view",
      "type": "function"
    },
    {
      "inputs": [],
      "name": "LOAN_DEFAULT_TRUST_PENALTY",
      "outputs": [
        {
          "internalType": "uint256",
          "name": "",
          "type": "uint256"
        }
      ],
      "stateMutability": "view",
      "type": "function"
    },
    {
      "inputs": [],
      "name": "LOAN_DURATION",
      "outputs": [
        {
          "internalType": "uint256",
          "name": "",
          "type": "uint256"
        }
      ],
      "stateMutability": "view",
      "type": "function"
    },
    {
      "inputs": [],
      "name": "LOAN_REPAID_TRUST_BONUS",
      "outputs": [
        {
          "internalType": "uint256",
          "name": "",
          "type": "uint256"
        }
      ],
      "stateMutability": "view",
      "type": "function"
    },
    {
      "inputs": [],
      "name": "MAX_TRUST_SCORE",
      "outputs": [
        {
          "internalType": "uint256",
          "name": "",
          "type": "uint256"
        }
      ],
      "stateMutability": "view",
      "type": "function"
    },
    {
      "inputs": [],
      "name": "MIN_TRUST_SCORE_FOR_LOAN",
      "outputs": [
        {
          "internalType": "uint256",
          "name": "",
          "type": "uint256"
        }
      ],
      "stateMutability": "view",
      "type": "function"
    },
    {
      "inputs": [],
      "name": "depositCapital",
      "outputs": [],
      "stateMutability": "payable",
      "type": "function"
    },
    {
      "inputs": [
        {
          "internalType": "address",
          "name": "_endorsee",
          "type": "address"
        }
      ],
      "name": "endorseUser",
      "outputs": [],
      "stateMutability": "payable",
      "type": "function"
    },
    {
      "inputs": [
        {
          "internalType": "uint256",
          "name": "",
          "type": "uint256"
        }
      ],
      "name": "endorsements",
      "outputs": [
        {
          "internalType": "address",
          "name": "endorser",
          "type": "address"
        },
        {
          "internalType": "address",
          "name": "endorsee",
          "type": "address"
        },
        {
          "internalType": "uint256",
          "name": "amountStaked",
          "type": "uint256"
        },
        {
          "internalType": "bool",
          "name": "active",
          "type": "bool"
        }
      ],
      "stateMutability": "view",
      "type": "function"
    },
    {
      "inputs": [
        {
          "internalType": "address",
          "name": "_userAddr",
          "type": "address"
        }
      ],
      "name": "getActiveLoansForUser",
      "outputs": [
        {
          "internalType": "uint256[]",
          "name": "",
          "type": "uint256[]"
        }
      ],
      "stateMutability": "view",
      "type": "function"
    },
    {
      "inputs": [
        {
          "internalType": "uint256",
          "name": "_endorsementId",
          "type": "uint256"
        }
      ],
      "name": "getEndorsement",
      "outputs": [
        {
          "components": [
            {
              "internalType": "address",
              "name": "endorser",
              "type": "address"
            },
            {
              "internalType": "address",
              "name": "endorsee",
              "type": "address"
            },
            {
              "internalType": "uint256",
              "name": "amountStaked",
              "type": "uint256"
            },
            {
              "internalType": "bool",
              "name": "active",
              "type": "bool"
            }
          ],
          "internalType": "struct TrustChain.Endorsement",
          "name": "",
          "type": "tuple"
        }
      ],
      "stateMutability": "view",
      "type": "function"
    },
    {
      "inputs": [],
      "name": "getLendingPoolStats",
      "outputs": [
        {
          "internalType": "uint256",
          "name": "_totalLiquidity",
          "type": "uint256"
        },
        {
          "internalType": "uint256",
          "name": "_numberOfLoans",
          "type": "uint256"
        }
      ],
      "stateMutability": "view",
      "type": "function"
    },
    {
      "inputs": [
        {
          "internalType": "uint256",
          "name": "_loanId",
          "type": "uint256"
        }
      ],
      "name": "getLoan",
      "outputs": [
        {
          "components": [
            {
              "internalType": "uint256",
              "name": "loanId",
              "type": "uint256"
            },
            {
              "internalType": "address",
              "name": "borrower",
              "type": "address"
            },
            {
              "internalType": "uint256",
              "name": "amount",
              "type": "uint256"
            },
            {
              "internalType": "uint256",
              "name": "interestRate",
              "type": "uint256"
            },
            {
              "internalType": "uint256",
              "name": "repaymentAmount",
              "type": "uint256"
            },
            {
              "internalType": "uint256",
              "name": "requestedTimestamp",
              "type": "uint256"
            },
            {
              "internalType": "uint256",
              "name": "approvalTimestamp",
              "type": "uint256"
            },
            {
              "internalType": "uint256",
              "name": "repaymentDeadline",
              "type": "uint256"
            },
            {
              "internalType": "address",
              "name": "lender",
              "type": "address"
            },
            {
              "internalType": "uint256",
              "name": "collateralAmount",
              "type": "uint256"
            },
            {
              "internalType": "enum TrustChain.LoanStatus",
              "name": "status",
              "type": "uint8"
            },
            {
              "internalType": "bool",
              "name": "exists",
              "type": "bool"
            }
          ],
          "internalType": "struct TrustChain.Loan",
          "name": "",
          "type": "tuple"
        }
      ],
      "stateMutability": "view",
      "type": "function"
    },
    {
      "inputs": [
        {
          "internalType": "address",
          "name": "_userAddr",
          "type": "address"
        }
      ],
      "name": "getUser",
      "outputs": [
        {
          "components": [
            {
              "internalType": "address",
              "name": "userAddress",
              "type": "address"
            },
            {
              "internalType": "uint256",
              "name": "trustScore",
              "type": "uint256"
            },
            {
              "internalType": "uint256",
              "name": "endorsementsReceivedCount",
              "type": "uint256"
            },
            {
              "internalType": "uint256",
              "name": "totalStakedOnUser",
              "type": "uint256"
            },
            {
              "internalType": "uint256",
              "name": "loansCompleted",
              "type": "uint256"
            },
            {
              "internalType": "uint256",
              "name": "loansDefaulted",
              "type": "uint256"
            },
            {
              "internalType": "bool",
              "name": "isRegistered",
              "type": "bool"
            }
          ],
          "internalType": "struct TrustChain.User",
          "name": "",
          "type": "tuple"
        }
      ],
      "stateMutability": "view",
      "type": "function"
    },
    {
      "inputs": [
        {
          "internalType": "address",
          "name": "",
          "type": "address"
        }
      ],
      "name": "isUserRegistered",
      "outputs": [
        {
          "internalType": "bool",
          "name": "",
          "type": "bool"
        }
      ],
      "stateMutability": "view",
      "type": "function"
    },
    {
      "inputs": [
        {
          "internalType": "uint256",
          "name": "_loanId",
          "type": "uint256"
        }
      ],
      "name": "liquidateDefaultedLoan",
      "outputs": [],
      "stateMutability": "nonpayable",
      "type": "function"
    },
    {
      "inputs": [
        {
          "internalType": "uint256",
          "name": "",
          "type": "uint256"
        }
      ],
      "name": "loans",
      "outputs": [
        {
          "internalType": "uint256",
          "name": "loanId",
          "type": "uint256"
        },
        {
          "internalType": "address",
          "name": "borrower",
          "type": "address"
        },
        {
          "internalType": "uint256",
          "name": "amount",
          "type": "uint256"
        },
        {
          "internalType": "uint256",
          "name": "interestRate",
          "type": "uint256"
        },
        {
          "internalType": "uint256",
          "name": "repaymentAmount",
          "type": "uint256"
        },
        {
          "internalType": "uint256",
          "name": "requestedTimestamp",
          "type": "uint256"
        },
        {
          "internalType": "uint256",
          "name": "approvalTimestamp",
          "type": "uint256"
        },
        {
          "internalType": "uint256",
          "name": "repaymentDeadline",
          "type": "uint256"
        },
        {
          "internalType": "address",
          "name": "lender",
          "type": "address"
        },
        {
          "internalType": "uint256",
          "name": "collateralAmount",
          "type": "uint256"
        },
        {
          "internalType": "enum TrustChain.LoanStatus",
          "name": "status",
          "type": "uint8"
        },
        {
          "internalType": "bool",
          "name": "exists",
          "type": "bool"
        }
      ],
      "stateMutability": "view",
      "type": "function"
    },
    {
      "inputs": [],
      "name": "registerUser",
      "outputs": [],
      "stateMutability": "nonpayable",
      "type": "function"
    },
    {
      "inputs": [
        {
          "internalType": "uint256",
          "name": "_loanId",
          "type": "uint256"
        }
      ],
      "name": "repayLoan",
      "outputs": [],
      "stateMutability": "payable",
      "type": "function"
    },
    {
      "inputs": [
        {
          "internalType": "uint256",
          "name": "_loanAmount",
          "type": "uint256"
        }
      ],
      "name": "requestLoan",
      "outputs": [],
      "stateMutability": "payable",
      "type": "function"
    },
    {
      "inputs": [],
      "name": "totalLiquidity",
      "outputs": [
        {
          "internalType": "uint256",
          "name": "",
          "type": "uint256"
        }
      ],
      "stateMutability": "view",
      "type": "function"
    },
    {
      "inputs": [
        {
          "internalType": "address",
          "name": "",
          "type": "address"
        },
        {
          "internalType": "uint256",
          "name": "",
          "type": "uint256"
        }
      ],
      "name": "userActiveLoans",
      "outputs": [
        {
          "internalType": "uint256",
          "name": "",
          "type": "uint256"
        }
      ],
      "stateMutability": "view",
      "type": "function"
    },
    {
      "inputs": [
        {
          "internalType": "address",
          "name": "",
          "type": "address"
        }
      ],
      "name": "userDeposits",
      "outputs": [
        {
          "internalType": "uint256",
          "name": "",
          "type": "uint256"
        }
      ],
      "stateMutability": "view",
      "type": "function"
    },
    {
      "inputs": [
        {
          "internalType": "address",
          "name": "",
          "type": "address"
        },
        {
          "internalType": "address",
          "name": "",
          "type": "address"
        }
      ],
      "name": "userEndorsementIds",
      "outputs": [
        {
          "internalType": "uint256",
          "name": "",
          "type": "uint256"
        }
      ],
      "stateMutability": "view",
      "type": "function"
    },
    {
      "inputs": [
        {
          "internalType": "address",
          "name": "",
          "type": "address"
        }
      ],
      "name": "users",
      "outputs": [
        {
          "internalType": "address",
          "name": "userAddress",
          "type": "address"
        },
        {
          "internalType": "uint256",
          "name": "trustScore",
          "type": "uint256"
        },
        {
          "internalType": "uint256",
          "name": "endorsementsReceivedCount",
          "type": "uint256"
        },
        {
          "internalType": "uint256",
          "name": "totalStakedOnUser",
          "type": "uint256"
        },
        {
          "internalType": "uint256",
          "name": "loansCompleted",
          "type": "uint256"
        },
        {
          "internalType": "uint256",
          "name": "loansDefaulted",
          "type": "uint256"
        },
        {
          "internalType": "bool",
          "name": "isRegistered",
          "type": "bool"
        }
      ],
      "stateMutability": "view",
      "type": "function"
    },
    {
      "inputs": [
        {
          "internalType": "uint256",
          "name": "_amount",
          "type": "uint256"
        }
      ],
      "name": "withdrawCapital",
      "outputs": [],
      "stateMutability": "nonpayable",
      "type": "function"
    },
    {
      "inputs": [
        {
          "internalType": "address",
          "name": "_endorsee",
          "type": "address"
        }
      ],
      "name": "withdrawEndorsementStake",
      "outputs": [],
      "stateMutability": "nonpayable",
      "type": "function"
    }
  ],
  "bytecode": "0x608060405234801561001057600080fd5b506001600055612901806100256000396000f3fe6080604052600436106101cd5760003560e01c806380d8c98f116100f7578063a87430ba11610095578063c4096a6d11610064578063c4096a6d1461067d578063d95b0a1214610692578063e02a4dfd146106b2578063e1ec3c68146106c957600080fd5b8063a87430ba1461058d578063a91a36e914610634578063ab7b1c891461064a578063b37924791461065d57600080fd5b80638d5d3429116100d15780638d5d3429146104cd5780638efb1040146104e05780639dd27538146105435780639ea13ddf1461056357600080fd5b806380d8c98f1461046d57806384aa8b5a146104755780638c6a10d21461049557600080fd5b806339a811ee1161016f57806361d054b71161013e57806361d054b7146103b15780636f77926b146103c657806374c8d377146104425780637540774f1461045857600080fd5b806339a811ee146103445780634d3820eb14610359578063504006ca1461036e5780635b76428f1461039b57600080fd5b8063163f7522116101ab578063163f7522146102595780631de2447d14610299578063316f8639146102af57806334d9aee2146102c557600080fd5b806306ad4964146101d25780630ba36dcd1461020857806315770f9214610243575b600080fd5b3480156101de57600080fd5b506101f26101ed366004612580565b61076f565b6040516101ff91906125a2565b60405180910390f35b34801561021457600080fd5b50610235610223366004612580565b600a6020526000908152604090205481565b6040519081526020016101ff565b34801561024f57600080fd5b5061023560095481565b34801561026557600080fd5b50610289610274366004612580565b60046020526000908152604090205460ff1681565b60405190151581526020016101ff565b3480156102a557600080fd5b5061023561019081565b3480156102bb57600080fd5b506102356102bc81565b3480156102d157600080fd5b506103176102e03660046125e6565b60066020526000908152604090208054600182015460028301546003909301546001600160a01b0392831693919092169160ff1684565b604080516001600160a01b03958616815294909316602085015291830152151560608201526080016101ff565b610357610352366004612580565b6107db565b005b34801561036557600080fd5b50610357610b23565b34801561037a57600080fd5b5061038e6103893660046125e6565b610c62565b6040516101ff9190612637565b3480156103a757600080fd5b506102356132c881565b3480156103bd57600080fd5b50610235600a81565b3480156103d257600080fd5b506103e66103e1366004612580565b610dad565b6040516101ff919081516001600160a01b031681526020808301519082015260408083015190820152606080830151908201526080808301519082015260a0828101519082015260c09182015115159181019190915260e00190565b34801561044e57600080fd5b506102356103e881565b34801561046457600080fd5b50610235601481565b610357610ed2565b34801561048157600080fd5b506103576104903660046125e6565b610fd7565b3480156104a157600080fd5b506102356104b03660046126e6565b600560209081526000928352604080842090915290825290205481565b6103576104db3660046125e6565b6112ab565b3480156104ec57600080fd5b506105006104fb3660046125e6565b611673565b6040516101ff919081516001600160a01b039081168252602080840151909116908201526040808301519082015260609182015115159181019190915260800190565b34801561054f57600080fd5b5061023561055e366004612719565b611756565b34801561056f57600080fd5b50610578611787565b604080519283526020830191909152016101ff565b34801561059957600080fd5b506105f36105a8366004612580565b600360208190526000918252604090912080546001820154600283015493830154600484015460058501546006909501546001600160a01b0390941695929492939192909160ff1687565b604080516001600160a01b0390981688526020880196909652948601939093526060850191909152608084015260a0830152151560c082015260e0016101ff565b34801561064057600080fd5b506102356101f481565b6103576106583660046125e6565b61179e565b34801561066957600080fd5b50610357610678366004612580565b611af2565b34801561068957600080fd5b50610235606481565b34801561069e57600080fd5b506103576106ad3660046125e6565b611f2a565b3480156106be57600080fd5b5061023562278d0081565b3480156106d557600080fd5b506107576106e43660046125e6565b600760208190526000918252604090912080546001820154600283015460038401546004850154600586015460068701549787015460088801546009890154600a9099015497996001600160a01b0397881699969895979496939590949293919092169160ff808216916101009004168c565b6040516101ff9c9b9a99989796959493929190612743565b6001600160a01b0381166000908152600860209081526040918290208054835181840281018401909452808452606093928301828280156107cf57602002820191906000526020600020905b8154815260200190600101908083116107bb575b50505050509050919050565b6107e361214c565b3360009081526004602052604090205460ff1661081b5760405162461bcd60e51b8152600401610812906127bd565b60405180910390fd5b6001600160a01b03811660009081526004602052604090205460ff166108835760405162461bcd60e51b815260206004820181905260248201527f456e646f7273653a20456e646f72736565206e6f7420726567697374657265646044820152606401610812565b336001600160a01b038216036108db5760405162461bcd60e51b815260206004820181905260248201527f456e646f7273653a2043616e6e6f7420656e646f72736520796f757273656c666044820152606401610812565b6000341161093a5760405162461bcd60e51b815260206004820152602660248201527f456e646f7273653a205374616b6520616d6f756e74206d75737420626520706f60448201526573697469766560d01b6064820152608401610812565b6001600160a01b0381166000908152600560209081526040808320338452909152902054156109b75760405162461bcd60e51b815260206004820152602360248201527f456e646f7273653a20416c726561647920656e646f727365642074686973207560448201526239b2b960e91b6064820152608401610812565b6109c5600280546001019055565b60006109d060025490565b60408051608081018252338082526001600160a01b0386811660208085018281523486880190815260016060880181815260008b8152600686528a812099518a549089166001600160a01b0319918216178b559451928a0180549390981692909416919091179095555160028088019190915593516003968701805491151560ff1990921691909117905582815260058252868120948152938152858420879055908352929092529182209081018054939450909291610a8f8361280a565b919050555034816003016000828254610aa89190612823565b90915550610abb905083600a60016121a5565b3460096000828254610acd9190612823565b90915550506040513481526001600160a01b03841690339084907f0d89b081a2c97eaccc807d2e4ff6a001248c8a6544bcc36156f62acb98f82c259060200160405180910390a45050610b206001600055565b50565b3360009081526004602052604090205460ff1615610b835760405162461bcd60e51b815260206004820152601860248201527f557365723a20416c7265616479207265676973746572656400000000000000006044820152606401610812565b6040805160e081018252338082526101f460208084019182526000848601818152606086018281526080870183815260a08801848152600160c08a0181815289875260038089528c88209b518c546001600160a01b03919091166001600160a01b0319909116178c5598518b830155945160028b0155925196890196909655516004808901919091559451600588015590516006909601805496151560ff1997881617905592909152848120805490941690911790925591517f54db7a5cb4735e1aac1f53db512d3390390bb6637bd30ad4bf9fc98667d9b9b99190a2565b610c6a6124e0565b6000828152600760205260409020600a0154610100900460ff16610cd05760405162461bcd60e51b815260206004820152601c60248201527f4765744c6f616e3a204c6f616e20646f6573206e6f74206578697374000000006044820152606401610812565b6000828152600760208181526040928390208351610180810185528154815260018201546001600160a01b0390811693820193909352600282015494810194909452600381015460608501526004808201546080860152600582015460a0860152600682015460c08601529281015460e085015260088101549091166101008401526009810154610120840152600a810154909161014084019160ff1690811115610d7d57610d7d6125ff565b6004811115610d8e57610d8e6125ff565b8152600a9190910154610100900460ff16151560209091015292915050565b610df86040518060e0016040528060006001600160a01b0316815260200160008152602001600081526020016000815260200160008152602001600081526020016000151581525090565b6001600160a01b03821660009081526004602052604090205460ff16610e605760405162461bcd60e51b815260206004820152601c60248201527f476574557365723a2055736572206e6f742072656769737465726564000000006044820152606401610812565b506001600160a01b03908116600090815260036020818152604092839020835160e08101855281549095168552600181015491850191909152600281015492840192909252810154606083015260048101546080830152600581015460a08301526006015460ff16151560c082015290565b610eda61214c565b3360009081526004602052604090205460ff16610f095760405162461bcd60e51b8152600401610812906127bd565b60003411610f595760405162461bcd60e51b815260206004820181905260248201527f4465706f7369743a20416d6f756e74206d75737420626520706f7369746976656044820152606401610812565b336000908152600a602052604081208054349290610f78908490612823565b925050819055503460096000828254610f919190612823565b909155505060405134815233907faa72ad912d8778453c6fbde6cd2557892fed031985b1c7e2ae57112118b9a3329060200160405180910390a2610fd56001600055565b565b610fdf61214c565b6000818152600760205260409020600a810154610100900460ff166110465760405162461bcd60e51b815260206004820152601e60248201527f4c69717569646174653a204c6f616e20646f6573206e6f7420657869737400006044820152606401610812565b6001600a82015460ff166004811115611061576110616125ff565b146110c45760405162461bcd60e51b815260206004820152602d60248201527f4c69717569646174653a204c6f616e206e6f7420616374697665206f7220616c60448201526c1c9958591e481a185b991b1959609a1b6064820152608401610812565b8060070154421161112f5760405162461bcd60e51b815260206004820152602f60248201527f4c69717569646174653a204c6f616e206e6f742079657420706173742072657060448201526e61796d656e7420646561646c696e6560881b6064820152608401610812565b600a8101805460ff1916600390811790915560018201546001600160a01b0316600090815260209190915260408120600581018054919261116f8361280a565b9091555050600182015461118f906001600160a01b0316606460006121a5565b8160090154600960008282546111a59190612823565b909155505060018201546001600160a01b03166000908152600860205260408120905b815481101561127257848282815481106111e4576111e461283c565b90600052602060002001540361126a578154829061120490600190612852565b815481106112145761121461283c565b90600052602060002001548282815481106112315761123161283c565b90600052602060002001819055508180548061124f5761124f612865565b60019003818190600052602060002001600090559055611272565b6001016111c8565b5060405184907f0789b7097e8066538cfaa1132488b132e14ba5f0c938c8b7aaf8cf40356aab0b90600090a2505050610b206001600055565b6112b361214c565b3360009081526004602052604090205460ff166112e25760405162461bcd60e51b8152600401610812906127bd565b600081116113325760405162461bcd60e51b815260206004820181905260248201527f4c6f616e5265713a20416d6f756e74206d75737420626520706f7369746976656044820152606401610812565b336000908152600360205260409020600681015460ff166113955760405162461bcd60e51b815260206004820181905260248201527f4c6f616e5265713a20426f72726f776572206e6f7420726567697374657265646044820152606401610812565b610190816001015410156113eb5760405162461bcd60e51b815260206004820152601c60248201527f4c6f616e5265713a2054727573742073636f726520746f6f206c6f77000000006044820152606401610812565b60006127106113fc6132c88561287b565b6114069190612892565b90508034146114695760405162461bcd60e51b815260206004820152602960248201527f4c6f616e5265713a20496e636f727265637420636f6c6c61746572616c20616d6044820152681bdd5b9d081cd95b9d60ba1b6064820152608401610812565b611477600180546001019055565b600061148260015490565b905060006127106114956102bc8761287b565b61149f9190612892565b905060006114ad8287612823565b9050604051806101800160405280848152602001336001600160a01b031681526020018781526020016102bc8152602001828152602001428152602001600081526020016000815260200160006001600160a01b0316815260200134815260200160006004811115611521576115216125ff565b81526001602091820181905260008681526007808452604091829020855181559385015184840180546001600160a01b03199081166001600160a01b039384161790915592860151600286015560608601516003860155608086015160048087019190915560a0870151600587015560c0870151600687015560e0870151928601929092556101008601516008860180549094169116179091556101208401516009840155610140840151600a840180549193909260ff199092169184908111156115ee576115ee6125ff565b02179055506101609190910151600a90910180549115156101000261ff001990921691909117905560408051878152346020820152339185917f68595dbe887ae7f496f2c88735019a8918919a1decfdee6bdb460480ab87decb910160405180910390a38560095410611664576116648361226d565b5050505050610b206001600055565b60408051608081018252600080825260208201819052918101829052606081019190915260025482111580156116a95750600082115b6117005760405162461bcd60e51b815260206004820152602260248201527f476574456e646f7273653a20496e76616c696420656e646f7273656d656e7420604482015261125160f21b6064820152608401610812565b50600090815260066020908152604091829020825160808101845281546001600160a01b0390811682526001830154169281019290925260028101549282019290925260039091015460ff161515606082015290565b6008602052816000526040600020818154811061177257600080fd5b90600052602060002001600091509150505481565b60008060095461179660015490565b915091509091565b6117a661214c565b6000818152600760205260409020600a810154610100900460ff1661180d5760405162461bcd60e51b815260206004820152601a60248201527f52657061793a204c6f616e20646f6573206e6f742065786973740000000000006044820152606401610812565b60018101546001600160a01b031633146118735760405162461bcd60e51b815260206004820152602160248201527f52657061793a2043616c6c6572206973206e6f742074686520626f72726f77656044820152603960f91b6064820152608401610812565b6001600a82015460ff16600481111561188e5761188e6125ff565b146118f35760405162461bcd60e51b815260206004820152602f60248201527f52657061793a204c6f616e206e6f7420696e20617070726f766564207374617460448201526e1948199bdc881c995c185e5b595b9d608a1b6064820152608401610812565b806004015434146119555760405162461bcd60e51b815260206004820152602660248201527f52657061793a20496e636f72726563742072657061796d656e7420616d6f756e6044820152651d081cd95b9d60d21b6064820152608401610812565b600a8101805460ff1916600217905560048101546009805460009061197b908490612823565b909155505033600090815260036020526040812060048101805491926119a08361280a565b91905055506119b233601460016121a5565b336000908152600860205260408120905b8154811015611a6d57848282815481106119df576119df61283c565b906000526020600020015403611a6557815482906119ff90600190612852565b81548110611a0f57611a0f61283c565b9060005260206000200154828281548110611a2c57611a2c61283c565b906000526020600020018190555081805480611a4a57611a4a612865565b60019003818190600052602060002001600090559055611a6d565b6001016119c3565b50600983015415611aba57600183015460098401546040516001600160a01b039092169181156108fc0291906000818181858888f19350505050158015611ab8573d6000803e3d6000fd5b505b60405184907f9a7851747cd7ffb3fe0a32caf3da48b31f27cebe131267051640f8b72fc4718690600090a2505050610b206001600055565b611afa61214c565b3360009081526004602052604090205460ff16611b295760405162461bcd60e51b8152600401610812906127bd565b6001600160a01b038116600090815260056020908152604080832033845290915281205490819003611bc35760405162461bcd60e51b815260206004820152603b60248201527f5769746864726177456e646f7273653a204e6f2061637469766520656e646f7260448201527f73656d656e7420666f722074686973207573657220627920796f7500000000006064820152608401610812565b600081815260066020526040902080546001600160a01b03163314611c385760405162461bcd60e51b815260206004820152602560248201527f5769746864726177456e646f7273653a204e6f7420796f757220656e646f7273604482015264195b595b9d60da1b6064820152608401610812565b600381015460ff16611c9c5760405162461bcd60e51b815260206004820152602760248201527f5769746864726177456e646f7273653a20456e646f7273656d656e74206e6f746044820152662061637469766560c81b6064820152608401610812565b6001600160a01b0383166000908152600860205260408120815b8154811015611d2057600160076000848481548110611cd757611cd761283c565b600091825260208083209091015483528201929092526040019020600a015460ff166004811115611d0a57611d0a6125ff565b03611d185760019250611d20565b600101611cb6565b508115611dae5760405162461bcd60e51b815260206004820152605060248201527f5769746864726177456e646f7273653a20456e646f727365652068617320616360448201527f746976652028417070726f76656429206c6f616e732c2063616e6e6f7420776960648201526f1d1a191c985dc81cdd185ad9481e595d60821b608482015260a401610812565b6002830154600954811115611e2b5760405162461bcd60e51b815260206004820152603e60248201527f5769746864726177456e646f7273653a20496e73756666696369656e7420706f60448201527f6f6c206c697175696469747920746f207769746864726177207374616b6500006064820152608401610812565b6003808501805460ff19169055600060028087018290556001600160a01b038916825260209290925260408120918201805491611e67836128b4565b919050555081816003016000828254611e809190612852565b925050819055508160096000828254611e999190612852565b9091555050604051339083156108fc029084906000818181858888f19350505050158015611ecb573d6000803e3d6000fd5b50866001600160a01b0316336001600160a01b0316877ff7b925416f6a43620836db6972ab3caa00e68e8838fe5c093f732f0a747cf49985604051611f1291815260200190565b60405180910390a4505050505050610b206001600055565b611f3261214c565b3360009081526004602052604090205460ff16611f615760405162461bcd60e51b8152600401610812906127bd565b60008111611fbd5760405162461bcd60e51b8152602060048201526024808201527f57697468647261774361703a20416d6f756e74206d75737420626520706f73696044820152637469766560e01b6064820152608401610812565b336000908152600a60205260409020548111156120395760405162461bcd60e51b815260206004820152603460248201527f57697468647261774361703a20496e73756666696369656e74206465706f73696044820152733a32b21031b0b834ba30b6103337b9103ab9b2b960611b6064820152608401610812565b8060095410156120a25760405162461bcd60e51b815260206004820152602e60248201527f57697468647261774361703a20496e73756666696369656e7420746f74616c2060448201526d706f6f6c206c697175696469747960901b6064820152608401610812565b336000908152600a6020526040812080548392906120c1908490612852565b9250508190555080600960008282546120da9190612852565b9091555050604051339082156108fc029083906000818181858888f1935050505015801561210c573d6000803e3d6000fd5b5060405181815233907ffd282af50c2a0af33f26b6abcc27c8bae5fc57dc3f7ce9b71612b4cd6db59ca09060200160405180910390a2610b206001600055565b60026000540361219e5760405162461bcd60e51b815260206004820152601f60248201527f5265656e7472616e637947756172643a207265656e7472616e742063616c6c006044820152606401610812565b6002600055565b6001600160a01b038316600090815260036020526040902081156121e257828160010160008282546121d79190612823565b909155506122099050565b8281600101541061220157828160010160008282546121d79190612852565b600060018201555b6103e881600101541115612220576103e860018201555b836001600160a01b03167f16bf5e9c27e8fb3837dca08521258eaf9f8e21bb809d3dd7a1a4a00093c99a44826001015460405161225f91815260200190565b60405180910390a250505050565b6000818152600760205260409020600a810154610100900460ff166122d45760405162461bcd60e51b815260206004820181905260248201527f417070726f76654c6f616e3a204c6f616e20646f6573206e6f742065786973746044820152606401610812565b6000600a82015460ff1660048111156122ef576122ef6125ff565b1461234d5760405162461bcd60e51b815260206004820152602860248201527f417070726f76654c6f616e3a204c6f616e206e6f7420696e2072657175657374604482015267656420737461746560c01b6064820152608401610812565b806002015460095410156123c25760405162461bcd60e51b815260206004820152603660248201527f417070726f76654c6f616e3a20496e73756666696369656e7420706f6f6c206c60448201527534b8bab4b234ba3c903337b9103a3434b9903637b0b760511b6064820152608401610812565b600a8101805460ff19166001179055600881018054306001600160a01b031990911617905542600682018190556123fd9062278d0090612823565b6007820155600281015460098054600090612419908490612852565b9091555050600180820180546001600160a01b03908116600090815260086020908152604080832080549687018155835290822090940186905591546002850154935191169280156108fc0292909190818181858888f19350505050158015612486573d6000803e3d6000fd5b50306001600160a01b0316827fb2c6de76341d4f1188da5458fd8729cbc0e9278f99e8992f40f36900bcef78cb836004015484600701546040516124d4929190918252602082015260400190565b60405180910390a35050565b6040518061018001604052806000815260200160006001600160a01b0316815260200160008152602001600081526020016000815260200160008152602001600081526020016000815260200160006001600160a01b031681526020016000815260200160006004811115612557576125576125ff565b8152600060209091015290565b80356001600160a01b038116811461257b57600080fd5b919050565b60006020828403121561259257600080fd5b61259b82612564565b9392505050565b6020808252825182820181905260009190848201906040850190845b818110156125da578351835292840192918401916001016125be565b50909695505050505050565b6000602082840312156125f857600080fd5b5035919050565b634e487b7160e01b600052602160045260246000fd5b6005811061263357634e487b7160e01b600052602160045260246000fd5b9052565b8151815260208083015161018083019161265b908401826001600160a01b03169052565b5060408301516040830152606083015160608301526080830151608083015260a083015160a083015260c083015160c083015260e083015160e0830152610100808401516126b3828501826001600160a01b03169052565b50506101208381015190830152610140808401516126d382850182612615565b5050610160928301511515919092015290565b600080604083850312156126f957600080fd5b61270283612564565b915061271060208401612564565b90509250929050565b6000806040838503121561272c57600080fd5b61273583612564565b946020939093013593505050565b8c81526001600160a01b038c81166020830152604082018c9052606082018b9052608082018a905260a0820189905260c0820188905260e082018790528516610100820152610120810184905261018081016127a3610140830185612615565b8215156101608301529d9c50505050505050505050505050565b6020808252601b908201527f557365723a2043616c6c6572206e6f7420726567697374657265640000000000604082015260600190565b634e487b7160e01b600052601160045260246000fd5b60006001820161281c5761281c6127f4565b5060010190565b80820180821115612836576128366127f4565b92915050565b634e487b7160e01b600052603260045260246000fd5b81810381811115612836576128366127f4565b634e487b7160e01b600052603160045260246000fd5b8082028115828204841417612836576128366127f4565b6000826128af57634e487b7160e01b600052601260045260246000fd5b500490565b6000816128c3576128c36127f4565b50600019019056fea264697066735822122001d1290ce1e130b3ba8700719948bb758cd1e18a4dc511f7963096dd687a11d864736f6c63430008180033",
  "linkReferences": {},
  "deployedLinkReferences": {}
}